:100000000C9404040C9457040C9457040C94570457
:100010000C9457040C9457040C9457040C945704F4
:100020000C9457040C9457040C94BA260C9457045F
:100030000C9483340C9457040C9457040C94570478
:100040000C9457040C9457040C9457040C945704C4
:100050000C9457040C94CA0E0C9457040C94570437
:100060000C9457040C9457040C9457040C945704A4
:100070000C9457040C9457040C9457040C94570494
:100080000C9457040C9457040C9457040C94570484
:100090000C9457040C9457040C9457040C94570474
:1000A0000C9457040C9457040C945704000000005F
:1000B0000405060708090A0B0C0D0E0F1011121388
:1000C0001415161718191A1B1C1D1E1F2021222378
:1000D0002425262728292A2B2C2D2E2F3031323368
:1000E0003435363738393A3B3C3D3E3F4041424358
:1000F0004445464748494A4B4C4D4E4F5051525348
:100100005455565758595A5B5C5D5E5F6061626337
:100110006465A56768696A6B6C6D6E6F70717273E8
:100120007475767778797A7B7C7D7EA8A9AA0000A1
:100130000085008788898A8B00000000909100006C
:1001400000000000000000000000000000000000AF
:10015000000000000000000000000000000000009F
:10016000000000000000000000000000000000008F
:10017000000000000000000000000000000000007F
:10018000000000000000000000000000E0E1E2E3E9
:10019000E4E5E6E7000000000000000000000000C9
:1001A0000000000000000000000000005B78452B0C
:1001B0002B5D005B7845315D000D0A0020000D0AC3
:1001C0000028686964626F6F742E682920496E7414
:1001D0006572666163653A000D0A002868696462A9
:1001E0006F6F742E682920537472616E6765207278
:1001F00065616420636F756E743A20000D0A0028F3
:10020000686964626F6F742E682920506F6C6C3A55
:10021000000D0A0028686964626F6F742E682920D7
:100220006570496E666F5B6570496E746572727554
:100230007074496E496E646578202B20695D2E6D5F
:100240006178506B7453697A653D000D0A00286827
:100250006964626F6F742E6829206570496E666FDD
:100260005B6570496E74657272757074496E496E23
:10027000646578202B20695D2E6570416464723D51
:10028000000D0A0028686964626F6F742E68292067
:10029000693D0053657450726F746F3A00424D208F
:1002A000636F6E666967757265640D0A000D0A00FA
:1002B00052504950452072636F64653A000D0A0040
:1002C0005345545F49444C452072636F64653A005E
:1002D0000D0A0050524F544F434F4C205345542069
:1002E0004849445F424F4F542072636F64653A003F
:1002F0000D0A000D0A496E746572666163653A0005
:100300000D0A00624E756D49666163653A000D0A1B
:10031000006249666163654E756D3A000D0A0043DF
:100320006E663A000D0A00624E756D45503A0048FF
:1003300049445F50524F544F434F4C5F4B455942D5
:100340004F4152440D0A000D0A004E433A000D0A77
:1003500000416464723A000D0A007365744164647C
:10036000723A006570696E666F0D0A00424D204951
:100370006E69740D0A0073706565643A2025730A0E
:10038000007573625F73746174653A20253032586A
:100390000A00686F73742E5461736B3A2025640AE7
:1003A00000526F6C6C6F766572206572726F723A74
:1003B0002069676E6F7265640D0A000D0A002025C2
:1003C00030325800696E7075742025643A000D0A49
:1003D00000436C3A005B67435D000D0A0041747492
:1003E000656D7074436F6E666967323A0041322002
:1003F000004143320A000D0A00417474656D707447
:10040000436F6E6669673A00413120004143310A0B
:10041000000D0A007375626B6C6173733A000D0A0C
:10042000006B6C6173733A000D0A007069643A00E6
:100430000D0A007669643A004255535253540A003B
:100440000D0A00496E69743A000D0A0064726976FB
:1004500065723A000D0A00436F6E666967757269CE
:100460006E673A0054332000543220000D0A0028F1
:100470005553423A3A496E5472616E7366657229F9
:100480002065702072657175657374656420000D58
:100490000A00285553423A3A496E5472616E7366A7
:1004A0006572292061646472207265717565737468
:1004B000656420000D0A00285553423A3A496E54AB
:1004C00072616E736665722920536574416464724B
:1004D000657373204661696C656420000D0A0063D2
:1004E0007253543A000D0A0063724F55543A000D8E
:1004F0000A006E616B5F6C696D69743A00436F202E
:10050000000D0A006C6566743A000D0A00726561A0
:10051000643A00543120000D0A006372494E3A00DB
:100520000D0A006E616B5F6C696D69743A00436916
:1005300020000D0A00637253553A000D0A006E61E7
:100540006B5F6C696D69743A000D0A006372534108
:100550003A000D0A006E616B5F6C696D69743A0058
:100560002E2E2E4641494C0D0A006875623A3A64B7
:100570006F6E650D0A000D0A006875623A3A736580
:1005800074436F6E663A000D0A006875623A3A6706
:100590006574436F6E6644657363723A000D0A00BA
:1005A0006875623A3A676574436F6E664465736353
:1005B000723A000D0A006875623A3A676574436FD3
:1005C0006E6644657363723A000D0A006875623A9C
:1005D0003A47657448756244657363726970746FF5
:1005E000723A000D0A006875623A3A736574457094
:1005F000496E666F456E7472793A000D0A0068752F
:10060000623A3A67657444657644657363723A008A
:100610000D0A006875623A3A736574416464723A0F
:10062000000D0A006875623A3A676574446576445D
:10063000657363723A000D0A006875623A3A496E52
:1006400069743A0042756666657220706F696E74EF
:100650006572206973204E554C4C210D0A000D0A1D
:10066000000D0A736574436F6E6620000D0A67659E
:1006700074446576446573637220000A4C6F6F7032
:100680002073746172742E0A000A55534220636FFE
:100690006E666967757265642E0A000A544D4B3A9E
:1006A0003165663435632F4C5546413A64366137BF
:1006B00064662F554853323A3864633363380A000E
:1006C0003C03550053004200200074006F002000DE
:1006D00055005300420020006B0065007900620065
:1006E0006F00610072006400200063006F006E0004
:1006F00076006500720074006500720000000E0351
:1007000074002E006D002E006B002E00000004030C
:10071000090409024200020100A03209040000019C
:100720000301010009211101000122400007058198
:100730000308000A09040100020300000009211156
:1007400001000122220007058203200001070502A3
:10075000032000011201100100000008EDFE5B0003
:100760001408010200010631FF0974A10109751581
:100770000026FF009520750881020976150026FFE6
:1007800000952075089102C005010906A101050721
:1007900019E029E7150025019508750181029501E9
:1007A0007508810105081901290595057501910252
:1007B0009501750391010507190029FF150026FF12
:1007C00000950675088100C0636F6E73756D657264
:1007D0003A20253034580A0073797374656D3A20D5
:1007E000253034580A000A002530325820006B6545
:1007F00079626F6172643A20004C45443A2025309A
:1008000032580A00670D340E11241FBECFEFDAE014
:10081000DEBFCDBF04B603FE28C08091B70590911E
:10082000B805A091B905B091BA058730904BA740A3
:10083000B04BD9F41092B7051092B8051092B905D3
:100840001092BA0514BE0FB6F894A8958091600076
:10085000886180936000109260000FBE10920108C2
:1008600010920008E0E0F8E3099511E0A0E0B1E0A3
:10087000EEE1FEE602C005900D92A838B107D9F767
:1008800025E0A8E8B1E001C01D92A73BB207E1F75F
:1008900014E0C4E0D4E004C02197FE010E940737B1
:1008A000C230D107C9F70E9419220C940D370C945D
:1008B0000000FF93EF93E0918801F0918901309758
:1008C00009F00995EF91FF910895FC018591803021
:1008D00011F0EFDFFBCF0895FF27E0E230E247FFA2
:1008E0000CC0419597FF09C0EDE260957095809529
:1008F0009095611D711D811D911D27FF02C02195DD
:1009000030E350E2AA27660F771F881F991FAA1F9E
:10091000A41710F0A41B63955A95A9F7AA3008F004
:10092000A95FA05DAF93F3956115710581059105F0
:1009300041F7ED3211F4EF93F395F21718F43F936A
:10094000F395FBCF8F91B5DFFA95E1F70895E99123
:10095000F9918591803021F0853219F0AADFF9CF25
:10096000089520E0E89455915532C1F3503311F4C5
:10097000689455915A3348F4505390F3220F022E45
:10098000220F220F200D250FF4CF0EF4219589910F
:100990009991533619F3533729F1533559F1BC0165
:1009A00088279927E8945C3621F489919991689475
:1009B0005591543639F446EF7EF077FF0DC08FEF36
:1009C0009FEF0AC055374AE039F0583540E121F031
:1009D000523642E009F00895FF93EF937DDFEF91E7
:1009E000FF91B7CFFF93EF93FC0181918030B9F372
:1009F00060DFFBCFFF93EF9368DFF1CFDF93CF93FF
:100A0000CDB7DEB72596A3DFCF91DF91089580E0C3
:100A10000895089580E00895CF93DF93CDB7DEB7B2
:100A200028970FB6F894DEBF0FBECDBFE22F298303
:100A30003A834B835C836D837E838F839887209179
:100A4000C6022E2B2093C602FE013396AE01475FED
:100A50005F4F2191243060F0A8ECB2E090E080E09C
:100A60003D91311111C08A539D4FDC0112962C9398
:100A7000E417F50771F728960FB6F894DEBF0FBE9E
:100A8000CDBFDF91CF91089501968630910541F752
:100A9000EFCF70E0660F771F860F971FFC01568718
:100AA000458781E00895FC0187890895CF93DF93FE
:100AB000EC018C819D81DC01ED91FC910480F5813C
:100AC000E02D6E8109951F86188A81E08A8B1E822F
:100AD0001B8A1C8A1D8A1E8A1F8A80E0DF91CF91A3
:100AE0000895FC018681089581E0633009F080E07B
:100AF000089581E0613009F080E0089570E0660FAC
:100B0000771F860F971FFC018585968508950895A8
:100B1000EF92FF920F931F93CF93DF93EC01062F79
:100B2000142F60E870E083EB91E00E94B11F8A8986
:100B3000823099F10F87188BD70113969C911397E8
:100B40009370933051F512969C91129797FF25C0A0
:100B500016962C91388D321708F4288F282F30E004
:100B6000F901EE0FFF1FE20FF31FEC0FFD1F9F7047
:100B70009783D70114969C91908794E091878F5F1B
:100B80008A8B60E870E08CEA91E0DF91CF911F9151
:100B90000F91FF90EF900C94B11FDF91CF911F91B7
:100BA0000F91FF90EF900895EF92FF920F930297AD
:100BB0000E9488050F91FF90EF900895CF93DF93E7
:100BC0006091E4017091E5014091D8015091D90103
:100BD0002091CC013091CD018091C0019091C10153
:100BE000E0919201F09193016E177F07B1F4E091CB
:100BF0009001F0919101E417F50779F4E0918E01ED
:100C0000F0918F01E217F30741F4E0918C01F0912C
:100C10008D01E817F90709F4B3C07093930160934D
:100C20009201509391014093900130938F01209352
:100C30008E0190938D0180938C0188E0E6ECF2E0C8
:100C4000DF011D928A95E9F72091DC013091DD01E9
:100C50004091DE015091DF016091E0017091E1016E
:100C60008091E2019091E3010E940C052091D00156
:100C70003091D1014091D2015091D3016091D401C2
:100C80007091D5018091D6019091D7010E940C05F9
:100C90002091C4013091C5014091C6015091C70116
:100CA0006091C8017091C9018091CA019091CB01F6
:100CB0000E940C052091B8013091B9014091BA0110
:100CC0005091BB016091BC017091BD018091BE014A
:100CD0009091BF010E940C0581E08093C5020E94A3
:100CE000A30EEC018EE492E00E942219CE010E9434
:100CF000BB0E8536910560F09F938F9382E993E058
:100D00009F938F930E94FE040F900F900F900F906F
:100D10008EE492E00E94001090918B01891761F19E
:100D20008EE492E00E94001080938B011F928F93BB
:100D300081E893E09F938F930E94FE040F900F90A1
:100D40000F900F9080918B018039B1F480918A01CE
:100D50008230C9F486E191E09F938F9386E793E018
:100D60009F938F930E94FE040E94AA270E94162937
:100D70000F900F900F900F9081E0DF91CF91089529
:100D80001092C502ACCF8BE191E0E6CF482F80E115
:100D9000489F90011124205E31092830310508F563
:100DA0009091C6029923E9F0892F90E0E8ECF2E0F7
:100DB00061E070E02191243078F0322F32953F705D
:100DC00034130AC02F70DB0102C0AA0FBB1F2A9583
:100DD000E2F79D018A2B932BB2E0EE3CFB0751F723
:100DE000089590E080E0E2CF0895CF92DF92EF92F5
:100DF000FF920F93CF93DF931F92CDB7DEB7898316
:100E000080914B02882371F0CE0101966C01EE2493
:100E1000E394F12C00E022E040E060E084E392E023
:100E20000E94631A80913102882371F0CE010196ED
:100E30006C01EE24E394F12C00E022E040E060E05D
:100E40008AE192E00E94631A80911702882371F070
:100E5000CE0101966C01EE24E394F12C00E022E037
:100E600040E060E080E092E00E94631A8091FD0122
:100E7000882371F0CE0101966C01EE24E394F12CED
:100E800000E022E040E060E086EE91E00E94631A1C
:100E90000F90DF91CF910F91FF90EF90DF90CF9067
:100EA00008950E9441348091AC05882331F00E945E
:100EB0006A34882321F00C943C230C94DE050895B9
:100EC000FC01758364838FE291E0918380838DE4DC
:100ED00091E093838283138A148A158A168A178A6B
:100EE000418F81E0828B118A178288E080878CE3B2
:100EF00081871286138684E0848715861686178676
:100F000061157105B1F0DB01AA5ABF4F90E080E096
:100F10002D913D91232B49F4DC019B96AA0FBB1F19
:100F2000A60FB71FED93FC930895019680319105AC
:100F300079F708952E9A08952E988EBD0DB407FE68
:100F4000FDCF1EBC0DB407FEFDCF0E949A078EB5E3
:100F500008952E9882608EBD0DB407FEFDCF6EBD44
:100F60000DB407FEFDCF0C949A0788EC0E949C07F5
:100F700085FF14C060E288EC0E94A90788EF0E94F8
:100F80009C07807C909100019817E1F1809300010B
:100F9000803409F150F4882379F1089580918A0111
:100FA000811130C064E088EEE7CF803819F0803CD2
:100FB00009F1089588ED0E949C0790918A0181FDB6
:100FC00011C09230F9F061EC88ED0E94A90782E02F
:100FD00080938A01089588ED0E949C0790918A0170
:100FE00081FDEFCF933071F063EC88ED0E94A9078B
:100FF00083E0EECF81E0ECCF61EC88ED0E94A907A1
:1010000010928A0108950F931F93CF93DF938C0161
:10101000269A0E949A07219A229A2398209A80E57C
:101020008CBD81E08DBD259868E188E80E94A90704
:1010300060E288E70E94A90760E088E70E94A907AC
:10104000D0E0C0E088E60E949C07219680FF22C085
:1010500061EC88ED0E94A90760E280ED0E94A9077B
:1010600064E088EE0E94A90788EE0E949C0782FF38
:10107000FBCFC8010E94B50760E288EC0E94A90777
:1010800061E080E80E94A90780E0DF91CF911F9185
:101090000F910895CF3FDC07A9F68FEFF6CF80912F
:1010A000A80581608093A8058EE492E00E94030861
:1010B0008AED91E090934202809341028EEC91E0A0
:1010C000909328028093270282EC91E090930E0285
:1010D00080930D0286EB91E09093F4018093F301ED
:1010E00008950F931F93CF93C82F8B01282F30E0C3
:1010F00084E0359527958A95E1F780E3820F8A335E
:1011000010F087E3820FB8010E94A41FCF7080E324
:101110008C0F8A3310F087E38C0FB801CF911F91A9
:101120000F910C94A41F3F924F925F926F927F9207
:101130008F929F92AF92BF92CF92DF92EF92FF92E7
:101140000F931F93CF93DF93CDB7DEB7EB970FB617
:10115000F894DEBF0FBECDBF7C01562E342E422E3A
:10116000DC0114968D909C9060E870E08CE693E032
:101170000E94B11FF7018681811122C2108ED40115
:10118000ED91FC910190F081E02D60E0C4010995A2
:101190005C010097D9F456ED552E852DEB960FB6D0
:1011A000F894DEBF0FBECDBFDF91CF911F910F919D
:1011B000FF90EF90DF90CF90BF90AF909F908F9077
:1011C0007F906F905F904F903F900895FC016080FA
:1011D00071806114710449F460E870E083E693E083
:1011E0000E94B11F47ED542ED8CF6701F7E0CF0E14
:1011F000D11CDC011196DC92CE9214964C928E0199
:10120000065D1F4F28E030E040E060E0F701848198
:1012100095810E940415182F8111D8C11AA5D501F6
:101220006D927C92D401ED91FC910280F381E02DCE
:10123000232D40E0652DC4010995F701868388239D
:1012400009F4C1C199A99087282F40E060E084810A
:1012500095810E94C815582E882311F1D501149646
:101260001C92D401ED91FC910480F581E02DD70111
:1012700016966C91C4010995F701168260E870E03A
:101280008AE593E00E94B11F60E870E0852D0E941E
:10129000710860E870E087E593E00E94B11F7DCFA0
:1012A00060E870E081E593E00E94B11F60E870E0C3
:1012B000D70116968C910E94710860E870E08EE468
:1012C00093E00E94B11FF5011482D401ED91FC91CD
:1012D0000190F081E02DD70116966C91C40109951B
:1012E000009709F458CFFC014482960141E0D701F0
:1012F00016966C91169714968D919C910E941F10D2
:1013000011114DC04BAC60E870E08AE493E00E949C
:10131000B11F60E870E0842D0E94710860E870E001
:1013200087E493E00E94B11F60E870E08FE293E0F1
:101330000E94B11F33E2832E31E0932E3701B2E0D9
:101340006B0E711C5E01E1E1AE0EB11C451409F497
:1013500040C09A8289827C826B821D821A861B869B
:101360001E86188A1F8619A21AA21BA219A6BF825E
:10137000AE82B986A886BD86AC868E010F5F1F4FF0
:10138000252D40E0F7016681848195810E945215E8
:10139000D70152968C918230E1F05394D7CF13311C
:1013A00008F012E1212F30E08E01065D1F4F40E072
:1013B000D70116966C91169714968D919C910E9468
:1013C0000415182F882309F49DCF0E94CE1F512E9B
:1013D000E8C060E870E087E293E00E94B11F60E837
:1013E00070E0F70182890E94710860E870E084E291
:1013F00093E00E94B11FD70152968C91529721ED34
:10140000522E823009F0CDC0960142E016966C91C2
:10141000169714968D919C910E941F1060E870E0C1
:101420008FE193E00E94B11F60E870E0F7018785CB
:101430000E94710860E870E08CE193E00E94B11FA7
:1014400068EE73E080E090E00E944B0ED7011F969B
:101450002C911F9740E016966C91169714968D91DB
:101460009C910E942F16582E8111A7C068EE73E040
:1014700080E090E00E944B0E60E870E081E193E034
:101480000E94B11F60E870E0F70180890E94710836
:1014900060E870E08EE093E00E94B11F60E870E0C9
:1014A00083E093E00E94B11F60E870E0D70151969D
:1014B0008C910E94710860E870E080E093E00E94E7
:1014C000B11F60E870E083EF92E00E94B11F60E816
:1014D00070E080E00E94710860E870E080EF92E0C8
:1014E0000E94B11FF701418D60E0C7010E94BA1A46
:1014F000582E60E870E0811150C083ED92E00E94A8
:10150000B11F60E870E080E00E94710860E870E060
:1015100080ED92E00E94B11F20E040E060E0C70152
:101520000E94901A182F60E870E080EC92E00E9410
:10153000B11F60E870E0812F0E94710860E870E0E0
:101540008DEB92E00E94B11F89E291E09A8389833A
:10155000AE014F5F5F4F70E060E0C7010E94201A4C
:10156000182F60E870E080EB92E00E94B11F60E805
:1015700070E0812F0E94710860E870E08DEA92E0CF
:101580000E94B11F60E870E08DE992E00E94B11FF7
:1015900081E0D70157968C9300CE83E992E00E94B8
:1015A000B11F852D0E94DA1FD701ED91FC910480B7
:1015B000F581E02DC7010995F0CD0E94D41FF1CF30
:1015C00099ED592EEACD84ED582EE7CDF5017182C3
:1015D0006082FBCEEF92FF920F931F93CF93DF9326
:1015E0007C018B01CCE0D0E0C7010C2E02C09595A8
:1015F00087950A94E2F7982F9F7080E3890F8A33CA
:1016000010F087E3890FB8010E94A41F2497CC3FF4
:101610008FEFD80749F7DF91CF911F910F91FF907E
:10162000EF9008955F926F927F928F929F92AF9208
:10163000BF92CF92DF92EF92FF920F931F93CF93BF
:10164000DF9300D0CDB7DEB76C016DB67EB6DC019E
:1016500057968C91811119C0512C852D0FB6F89495
:101660007EBE0FBE6DBE0F900F90DF91CF911F9188
:101670000F91FF90EF90DF90CF90BF90AF909F9031
:101680008F907F906F905F9008950E94490EF601B1
:101690000389148925893689601B710B820B930B92
:1016A00097FDDACF8DB69EB661E870E084E892E0EF
:1016B0000E94B11F61E870E090E080E00E94EA0AB9
:1016C00061E870E081E892E00E94B11F61E870E09B
:1016D0008EE492E00E94B11F61E870E0D6011A9694
:1016E0008C910E94710861E870E08BE492E00E94A6
:1016F000B11F61E870E084E192E00E94B11F61E8EF
:1017000070E0F60183850E94710861E870E081E174
:1017100092E00E94B11FD6011B968C9190E081341B
:10172000910508F05FC09A83898389819A81EDB71A
:10173000FEB7E81BF90B0FB6F894FEBF0FBEEDBF66
:101740002DB73EB72F5F3F4F5901E12C89019E0114
:101750002F5F3F4FD6011A964C911A9716966C91AF
:10176000169714968D919C910E945416582E8111B3
:101770003CC029813A8123303105D8F1F6018585B5
:101780009685009749F0DC01ED91FC910190F08184
:10179000E02D40E0B601099589819A81892B09F4F1
:1017A00084C08091010190910201803891050CF470
:1017B0007CC010E029813A81812F90E08217930745
:1017C00008F06BC08A0D9B1D60E870E0DC018C9115
:1017D0000E94710860E870E08CEB91E00E94B11FFC
:1017E0001F5FE8CF80E490E09ECFB4E08B1709F450
:1017F0005CC061E870E08FEF91E00E94B11F61E88A
:1018000070E0852D0E94710861E870E08CEF91E036
:101810000E94B11F511049C089819A81892B09F416
:1018200044C060E870E08BED91E00E94B11FE98058
:10183000FA800CE010E0C701002E02C09695879553
:101840000A94E2F7982F9F7080E3890F8A3310F093
:1018500087E3890F60E870E00E94A41F045011091B
:101860000C3FEFEF1E0739F760E870E088ED91E07C
:101870000E94B11F60E870E081EC91E00E94B11F0E
:1018800060E870E090E080E00E94EA0A60E870E0C2
:101890008EEB91E00E94B11F7FCF232B31F060E8E7
:1018A00070E089EB91E00E94B11F0FB6F8949EBEE4
:1018B0000FBE8DBE0E94490EF601208D620F711D74
:1018C000811D911D638B748B858B968BC6CEEF9299
:1018D000FF920F931F93CF93DF93EC017B018A015B
:1018E00088A1823009F446C030F4882319F1813090
:1018F00059F181E032C0833009F442C08430C9F725
:101900008AA1843009F44CC0853009F46CC082305F
:1019100009F08BC0A801B701CE0107960E94631F92
:101920008823D1F08D898CA3CE0140969E838D8330
:1019300018A2DFCF82E08C832D813E8138872F83F0
:101940008A87898781E088A3A801B701CE0107961D
:101950000E94631F811108C080E0DF91CF911F9129
:101960000F91FF90EF900895ED81FE81808189A312
:1019700081818AA3CE0142969E838D8383E088A3D2
:101980008AA1843009F41BA289A182508C832D8105
:101990003E8138872F838A87898784E088A3B0CFE8
:1019A000A801B701CE0107960E94631F8823A1F208
:1019B0008D89833009F0B8CF8E89813009F0B4CF9A
:1019C00098A58F89992359F0882309F4ADCF91E028
:1019D0009BA39A899EA39B899FA38DA3A5CF8130AA
:1019E00009F0A2CFF4CFA801B701CE0107960E945B
:1019F000631F882309F4B0CF8BA1882309F494CF07
:101A00008A819B81009709F48FCFDC01ED91FC91D5
:101A10000190F081E02D7E01B0E1EB0EF11C0DA1F3
:101A20002FA14EA16CA109957FCF8D85882341F010
:101A3000813069F08E859F85892B09F475CF8CCF15
:101A400089A18250990B9F878E8781E08D878E8533
:101A50009F850097A9F0F80120813181232B51F354
:101A600001979F878E87D7018D919C911197019641
:101A70008D939C9380819181019791838083E7CF9F
:101A80001D86D8CF0F931F93CF93DF9300D000D044
:101A9000CDB7DEB78C017C836B835A8349838B81FE
:101AA0009C81892B59F0AE014D5F5F4FBE016F5F86
:101AB0007F4FC8010E94670C8111F1CF0F900F90EA
:101AC0000F900F90DF91CF911F910F9108958EE4A9
:101AD00092E00E94D00F40E06EE472E084E392E076
:101AE0000E94600740E06EE472E08AE192E00E94AA
:101AF000600740E06EE472E080E092E00E946007E0
:101B000040E06EE472E086EE91E00E94600783E5BB
:101B100091E09093DB018093DA019093CF01809361
:101B2000CE019093C3018093C2019093B70180933B
:101B3000B6016EE472E085EA91E00E94EF1B6EE46C
:101B400072E084E991E00C94EF1BAF92BF92CF92C8
:101B5000DF92EF92FF920F931F93CF93DF936C016D
:101B6000CB01E22EDB01ED91FC910084F185E02DAB
:101B700009951F928F9384EC93E09F938F930E941B
:101B8000FE04E801E00EF12EF11C0F900F900F9073
:101B90000F908EEBA82E83E0B82ECE15DF0561F0F6
:101BA00089911F928F93BF92AF920E94FE040F9073
:101BB0000F900F900F90F1CF8BEB93E09F938F934B
:101BC0000E94FE040F900F90F8018281813099F4F9
:101BD00081EA93E09F938F930E94FE040F900F90F1
:101BE000DF91CF911F910F91FF90EF90DF90CF90F9
:101BF000BF90AF900895D601129688E001900D92A3
:101C00008A95E1F70E94490ED6011B967C936E934C
:101C10001A97E6CF089590E080E008958FEF9FEF48
:101C2000089581E090E00895862F0E94502081E081
:101C300090E00895EF92FF920F931F93CF93DF935D
:101C40008A01EB017B01E40EF51ECE15DF0521F0C4
:101C500089910E945020F9CFC801DF91CF911F9147
:101C60000F91FF90EF900895EEECF2E01382128254
:101C700088EE93E0A0E0B0E084839583A683B783E9
:101C800089E591E0918380838FEF9FEF958784872B
:101C900008950C94AF0E8F929F92AF92BF92CF9205
:101CA000DF92EF92FF920E94E3354B015C0120E04E
:101CB00030E04AE755E40E949A366B017C0120E04F
:101CC00030E040E85FE30E94AF3587FD30C020E0A0
:101CD0003FEF4FE757E4C701B6010E94953618164B
:101CE000F4F420E030E040E251E4C501B4010E9488
:101CF0009A360E94B43520E931E06115710549F446
:101D0000FF90EF90DF90CF90BF90AF909F908F901B
:101D10000895C9010197F1F761507109EECFC7012C
:101D2000B6010E94B435CB010197F1F7E9CF61E02C
:101D300070E0F9CF82E084BD93E095BD9AEF97BD46
:101D400080936E0008952FB7F89480911E039091B0
:101D50001F03A0912003B09121032FBF08952FB737
:101D6000F89460911E0370911F038091200390915D
:101D700021032FBF08959C014FB7F89480911E0353
:101D800090911F03A0912003B09121034FBF821BAC
:101D9000930B089578941F920F920FB60F9211240F
:101DA0008F939F93AF93BF9380911E0390911F03D6
:101DB000A0912003B09121030196A11DB11D809334
:101DC0001E0390931F03A0932003B0932103BF91A0
:101DD000AF919F918F910F900FBE0F901F9018950C
:101DE000CF93DF93FC0167FD12C0283080F44423B9
:101DF00019F08581873059F0EF01A1E0B0E08D85C1
:101E0000882349F111962596A031B105C1F780E0EC
:101E100018C085E08A9FE0018B9FD00D1124CE0F62
:101E2000DF1F442389F081E4888785818F5F858364
:101E300025E02A9FC0012B9F900D1124E80FF91F68
:101E40008085DF91CF91089581E08887F1CF277059
:101E5000687B622B0FC06623E1F26770660F660F26
:101E6000660F4423A1F3606485818F5F858387704B
:101E7000687F682B25E02A9FC0012B9F900D1124BD
:101E8000E80FF91F6087862FDCCFDF92EF92FF9279
:101E90000F931F93CF93DF93EC0185E0E62EF12C97
:101EA000FE01869FE00DF11D1124908596FF24C050
:101EB000192F177001E085E0D82E8FEF800F8F303B
:101EC00008F001E0602F70E0062FD69EF001D79E4B
:101ED000F00D1124EC0FFD1F808586958695869563
:101EE0008770181701F16F5F7F4F603168F38D8144
:101EF000811302C011501D8385E08E9DF0018F9DDE
:101F0000F00D1124EC0FFD1F108681E081871286F1
:101F10002296D783C683DF91CF911F910F91FF90B7
:101F2000EF90DF900895CE010E94450FC6CFFC01CF
:101F300021E0611102C0069608953585631739F0D6
:101F40002F5F35962031C9F790E080E0089506961E
:101F500035E0239F800D911D11240895FC0121E09F
:101F6000613499F49C01255B3F4F61E0AC014E5F09
:101F70005F4F1586668717865487438735962E17D9
:101F80003F07B9F7FC01158208953585631729F0DD
:101F90002F5F35962031C9F70895622F0C94450FB5
:101FA000FC018BE691E091838083108681E081873C
:101FB0001286CF01029697838683128228E02383BC
:101FC0002CE324831582DF019F01255B3F4F41E015
:101FD0001D961C921D971E964C931E971F961C9241
:101FE0001F971C969C938E931B971596A217B30769
:101FF00079F7EA58FF4F108281E180932603089514
:10200000809126030895CF93C42F0E94970F0097C5
:1020100089F0DC01ED91FC911197309769F01396EE
:102020009C9180E0981731F020812C1729F033968D
:102030008F5FF8CFF0E0E0E0CF01CF9108950F93EC
:102040001F93CF93DF932115310599F0E901042FF8
:10205000162F0E94970FFC0186ED309729F012830E
:10206000D183C083038380E0DF91CF911F910F91D3
:10207000089588EDF9CFCF92DF92FF920F931F93CF
:10208000CF93DF93662381F1F62E8C016C0186E5F8
:10209000C80ED11CD0E0C0E0D6018D919D916D019C
:1020A0000097F1F0DC01ED91FC910084F185E02DC9
:1020B00009958F1115C0AB96CC0FDD1FC00FD11F36
:1020C00088819981DC01ED91FC910480F581E02DFE
:1020D000DF91CF911F910F91FF90DF90CF900994E6
:1020E0002196C031D105C1F680E0DF91CF911F91DB
:1020F0000F91FF90DF90CF9008952E980895CF9381
:10210000C82F0E947D10CEBD0DB407FEFDCF1EBCB2
:102110000DB407FEFDCF0E949A078EB5CF910895AA
:10212000CF93DF93C82FD62F0E947D10C260CEBD03
:102130000DB407FEFDCFDEBD0DB407FEFDCFDF9170
:10214000CF910C949A07AF92BF92CF92DF92EF9209
:10215000FF920F931F93CF93DF93EC01D62EC42EE3
:1021600059010E94970F7C0186EDE114F104E1F121
:10217000F70180819181892B09F441C04C2D6D2D8F
:10218000CE010E940310F501918380830097C9F16D
:10219000FC01228126952695203108F02FE081E070
:1021A00090E0A0E0B0E004C0880F991FAA1FBB1FF9
:1021B0002A95D2F70197F801918380836D2D80EEE7
:1021C0000E94901088ED0E947F10F7019481682F83
:1021D000697F992329F0CA58DF4F68816260682BB4
:1021E00088ED0E94901080E0DF91CF911F910F91B8
:1021F000FF90EF90DF90CF90BF90AF90089587ED64
:10220000F3CF8BEDF1CF8F929F92AF92BF92CF928F
:10221000DF92EF92FF920F931F93CF93DF93862E5F
:10222000942E59010E94490E6B017C0128E8C20ED0
:1022300023E1D21EE11CF11CC0E010E000E0D0E080
:1022400098280E94490E6C197D098E099F0997FFF5
:102250001EC0692D80EF0E9490100E94490E6C19DB
:102260007D098E099F0997FF09C088EC0E947F10A5
:1022700087FFF3CF60E888EC0E94901088EF0E94FF
:102280007F10C82FCF70C43081F0CE30B9F08C2FC2
:10229000DF91CF911F910F91FF90EF90DF90CF9042
:1022A000BF90AF909F908F9008950F5F1F4FA11424
:1022B000B10439F20A151B0521F6E9CFDF5FD330EF
:1022C00009F0BFCFE4CF0F931F93CF93DF93D82FA5
:1022D000C62F8A010E947D10D260DEBDF8018C2FCE
:1022E000882339F00DB407FEFDCF91919EBD81503A
:1022F000F7CFC00FD12FD11D0DB407FEFDCF0E9427
:102300009A07CE01DF91CF911F910F9108952F92DF
:102310003F924F925F926F927F928F929F92AF9275
:10232000BF92CF92DF92EF92FF920F931F93CF93C2
:10233000DF9300D000D01F92CDB7DEB77D836C83D2
:102340005A016901FB01F1808FEF8F0D803408F095
:10235000BDC00E94490E2B013C01F8E84F0EF3E18D
:102360005F1E611C711CEC81FD81828160E480FD37
:1023700060E888EE0E949010312C8F2D90E09A83B7
:102380008983C114D10409F47DC0E980FA80CE1498
:10239000DF0408F47601EB82A8016E2D80E10E9433
:1023A00063116E2D88E30E949010EC81FD816081A5
:1023B000606280EF0E94901088EC0E947F1087FF7F
:1023C000FBCF60E888EC0E94901088EF0E947F109D
:1023D0008F70382E912C812C212C332001F10E94FA
:1023E000490E641975098609970997FF18C0F6E028
:1023F0003F1609F440C02EE03216B1F084E03812E6
:1024000009C09FEF891A990AA114B10489F08A14AE
:102410009B0471F460E088E30E94901035C0CE18F0
:10242000DF080E0D1F1DADCF2394E3E02E1691F3B0
:1024300060E088E30E949010F801608180E10E94D2
:1024400090106B8188E30E949010EC81FD81608187
:10245000606280EF0E94901088EC0E947F1087FFDE
:10246000FBCF60E888EC0E94901088EF0E947F10FC
:102470008F70382EB2CF60E870E084E694E00E945E
:10248000B11FD6CF3110C6CF88EF0E947F10EC81EC
:10249000FD81928185FB90F99283832D0F900F909F
:1024A0000F900F900F90DF91CF911F910F91FF90A0
:1024B000EF90DF90CF90BF90AF909F908F907F90E4
:1024C0006F905F904F903F902F9008958AED382E37
:1024D000E4CF2F923F924F925F926F927F928F92B2
:1024E0009F92AF92BF92CF92DF92EF92FF920F93A3
:1024F0001F93CF93DF93CDB7DEB729970FB6F8942C
:10250000DEBF0FBECDBF9C838B836B015E834D838B
:102510005901E982F90180809180FB01F181FA8300
:10252000F90111821082FB01828160E181FD60E28C
:1025300088EE0E949010F9814F2E512C712C612C45
:102540008F822D813E81F601408160E08B819C81EC
:102550000E940311382EF6E08F1307C060E870E088
:1025600088E694E00E94B11FECCF811155C088EC41
:102570000E947F1082FF73C080E30E947F10282E8C
:102580008815190411F008F02F80F50180819181E0
:102590009401281B390B3987288737FF02C0198619
:1025A0001886E22CF12C88859985E816F90614F432
:1025B000F986E88638840E947D1098E09EBD0DB4AF
:1025C00007FEFDCFF801332041F01EBC3A940DB454
:1025D00007FEFDCF8EB58193F6CFE885F9850E0F06
:1025E0001F1F0E949A0764E088EC0E949010F5017A
:1025F00080819181E80EF91EF182E082FA812F1626
:1026000018F0E814F90410F188EF0E947F10F60129
:10261000928184FB91F99283832D29960FB6F894C9
:10262000DEBF0FBECDBFDF91CF911F910F91FF9005
:10263000EF90DF90CF90BF90AF909F908F907F9062
:102640006F905F904F903F902F900895F981FF23F6
:1026500009F477CFC301B2010E944B0E72CF80EF15
:10266000382EDACFEF92FF920F931F93CF93DF9321
:102670007C018B01CCE0D0E0C7010C2E02C0969506
:1026800087950A94E2F7982F9F7080E3890F8A3329
:1026900010F087E3890FB8010E94A41F2497CC3F54
:1026A0008FEFD80749F7DF91CF911F910F91FF90DE
:1026B000EF9008952F923F924F925F926F927F9288
:1026C0008F929F92AF92BF92CF92DF92EF92FF9242
:1026D0000F931F93CF93DF93CDB7DEB761970FB6FC
:1026E000F894DEBF0FBECDBF3C01F42E322E202E5B
:1026F000C98A65014EA05FA0A8A4B9A4188A1F8644
:102700001E861D868E01035F1F4F9E01215F3F4F76
:102710000E94A310182F882309F400C160E870E01C
:1027200085E595E00E94B11F60E870E08D859E858B
:102730000E94321360E870E082E595E00E94B11FCC
:1027400060E870E08CE495E00E94B11F60E870E002
:10275000812F0E94710860E870E089E495E00E9492
:10276000B11F812F61960FB6F894DEBF0FBECDBFAB
:10277000DF91CF911F910F91FF90EF90DF90CF905D
:10278000BF90AF909F908F907F906F905F904F9091
:102790003F902F90089560E870E08EE395E00E94EE
:1027A000B11F60E870E08D859E850E94321360E85D
:1027B00070E08BE395E00E94B11F60E870E085E374
:1027C00095E00E94B11F60E870E0812F0E947108BF
:1027D00060E870E082E395E0C2CF8AA59BA50097F0
:1027E000A1F06B857C85DC01ED91FC911197019046
:1027F000F081E02DC4018C199D099A8789879E017B
:10280000275F3F4FA501CD0109958B859C85C81A8F
:10281000D90A60E870E08DE095E00E94B11F60E8A1
:1028200070E08B859C850E94321360E870E08AE03E
:1028300095E00E94B11F60E870E084E095E00E949E
:10284000B11F60E870E0C6010E94321360E870E0DA
:1028500081E095E00E94B11F8B859C8584159505CC
:1028600008F088C02D853E8537FE3FC060EA3EC037
:102870008DEF94E00E94B11F6F857889FB01828102
:10288000816082834D855E8585019201C3010E942E
:102890008711182F2D853E85882339F160E870E077
:1028A00082EF94E00E94B11F60E870E08D859E8504
:1028B0000E94321360E870E08FEE94E00E94B11F36
:1028C00060E870E088EE94E00E94B11F60E870E07C
:1028D000812F0E94710860E870E085EE94E03FCFA0
:1028E00011113FCF2D853E85C1CF60E84F2DC3012B
:1028F0000E940311182F882309F433CF60E870E099
:102900008FED94E00E94B11F60E870E0812F0E947B
:10291000710860E870E08CED94E021CF39822A8262
:10292000EB82F989FC83DE82CD8298868F82AE01AC
:102930004F5F5F4F68E080E20E9463112D853E8506
:102940004F2D60E1C3010E940311182F811123CF85
:10295000A114B10409F486CF60E870E037FE88CF97
:102960008EE295E00E94B11FEF85F8898281826036
:1029700082836401C114D10409F4B2CF942D852D52
:10298000C414D50410F49C2D8D2D9B878C874D8508
:102990005E856F857889E12C85019E01255F3F4F1B
:1029A000C3010E946912182F882309F416CF60E82A
:1029B00070E083E295E00E94B11F60E870E08D85D1
:1029C0009E850E94321360E870E080E295E00E94EC
:1029D000B11F60E870E08AE195E00E94B11F60E8F5
:1029E00070E0812F0E94710860E870E087E195E057
:1029F0000E94B11F163009F0B4CE60E870E083E1A8
:102A000095E00E94B11FB6CF8F929F92AF92BF9276
:102A1000CF92EF920F931F931F921F921F930F93CA
:102A20003F932F934901B12CA12CCC24C394E12CCA
:102A300006E020E80E945A130F900F900F900F901D
:102A40000F900F901F910F91EF90CF90BF90AF908C
:102A50009F908F9008958F929F92AF92BF92CF9246
:102A6000EF92FF920F931F921F92FF92EF923F936C
:102A70002F934901B12CA12C22E0C22EE02E06E0BA
:102A800020E80E945A130F900F900F900F900F9014
:102A90000F900F91FF90EF90CF90BF90AF909F90CD
:102AA0008F9008954F925F926F927F928F929F9234
:102AB000AF92BF92CF92DF92EF92FF920F931F934C
:102AC000CF93DF93CDB7DEB7C054D1090FB6F894DA
:102AD000DEBF0FBECDBF3C01D62E542E422EC02EDF
:102AE00060E870E085ED93E00E94B11FCE01019691
:102AF0005C017C01042D29E030E0452D6D2DC301E2
:102B00000E942B1581112CC08B809C8060E870E0A6
:102B100081ED93E00E94B11F60E870E0C4010E9463
:102B2000321360E870E08EEC93E00E94B11F1F93B7
:102B3000CF92BF92AF921F9280E48F93B12CA12CC1
:102B400082E0C82EE42C06E020E8452D6D2DC3015F
:102B50000E945A130F900F900F900F900F900F90AC
:102B6000C05CDF4F0FB6F894DEBF0FBECDBFDF9164
:102B7000CF911F910F91FF90EF90DF90CF90BF907A
:102B8000AF909F908F907F906F905F904F9008953F
:102B90008F929F92AF92BF92CF92EF920F93CF936B
:102BA0001F921F921F921F921F921F92912C812C95
:102BB000B12CA12CC12CE22E05E020E00E945A137A
:102BC000C82F6CE271E080E090E00E944B0E0F9005
:102BD0000F900F900F900F900F908C2FCF910F911F
:102BE000EF90CF90BF90AF909F908F9008950F93EC
:102BF0001F93CF93DF938A3F3FEF930739F416ED8E
:102C0000812FDF91CF911F910F910895DC011696CE
:102C1000ED91FC9117EDEF2B99F3122F242FEC017E
:102C20001A8740E00E94F00E082F8823B1F0682F29
:102C3000CE010E94970F009711F3FC011483202FFF
:102C400040E060E0CE010E94C815182F8823C1F231
:102C5000602FCE010E94AE0FD3CF14EDD1CF8F9253
:102C60009F92AF92BF92CF92EF920F931F921F92BB
:102C70001F921F921F921F92912C812CB12CA12C7C
:102C8000C12CE22E09E020E00E945A130F900F9011
:102C90000F900F900F900F900F91EF90CF90BF90EB
:102CA000AF909F908F9008957F928F929F92AF9256
:102CB000BF92CF92DF92EF92FF920F931F93CF9329
:102CC000DF9300D000D0CDB7DEB76C01762EF42EA6
:102CD000590148011C821B821A8219828E010F5FE2
:102CE0001F4F9E012D5F3F4F0E94A310182F882376
:102CF00009F446C061E870E087EB94E00E94B11FE0
:102D000061E870E0812F0E94710861E870E084EB57
:102D100094E00E94B11F61E870E082E994E00E94B3
:102D2000B11F61E870E0872D0E94710861E870E0D2
:102D30008FE894E00E94B11F61E870E08FE694E0B4
:102D40000E94B11F61E870E08F2D0E94710861E858
:102D500070E08CE694E00E94B11F812F0F900F90DD
:102D60000F900F90DF91CF911F910F91FF90EF90F7
:102D7000DF90CF90BF90AF909F908F907F900895FD
:102D800049815A816B817C8184019501C6010E9431
:102D90006912182FE2CF8F929F92AF92BF92CF927B
:102DA000DF92EF92FF920F931F93CF93DF937C01FB
:102DB000862EC42F122F99249394C62ED12CCC0C7E
:102DC000DD1CC80ED91E86E5C80ED11CA42EB12C60
:102DD000ABE2AA0EB11CAA0CBB1CAE0CBF1CF601C8
:102DE00080819181DC01ED91FC910280F381E02DE5
:102DF000202F412F6C2F0995D82F803E09F062C0FB
:102E0000C11154C061E088EE0E94901066E670E047
:102E100080E090E00E944B0E60E870E08CE494E06B
:102E20000E94B11F60E870E0882D0E94710860E880
:102E300070E089E494E00E94B11FF60180819181E5
:102E4000DC01ED91FC910190F081E02D202F412FCC
:102E50006C2F0995D82F60E870E083E494E00E941D
:102E6000B11F60E870E08D2F0E94710860E870E08B
:102E700080E494E00E94B11FDD3009F042C08FEF82
:102E8000890D833028F1C1113FC060E870E088E30C
:102E900094E00E94B11F61E088EE0E94901066E607
:102EA00070E080E090E00E944B0E1DC0F501808133
:102EB0009181DC01ED91FC910284F385E02D612F7D
:102EC0000995AACF8D3061F48FEF890D833058F4C6
:102ED00064E670E080E090E00E944B0E93947FCF18
:102EE000882309F499CF8D2FDF91CF911F910F91F6
:102EF000FF90EF90DF90CF90BF90AF909F908F901A
:102F00000895DD2381F3BFCF8C2F90E08B96880F3F
:102F1000991F8E0D9F1DFC0180819181DC01ED9137
:102F2000FC910284F385E02D612F0995DCCF2F926F
:102F30003F924F925F926F927F928F929F92AF9249
:102F4000BF92CF92DF92EF92FF920F931F93CF9396
:102F5000DF93CDB7DEB768970FB6F894DEBF0FBE2C
:102F6000CDBF1B8A38E03C8B3CE33D8B16ED8A3F9E
:102F70003FEF930709F4E5C0422E342E262E7C0144
:102F8000DC011696CD90DC901797CE0143961796EC
:102F90009C938E9316971A962C938E010F5F1F4F5A
:102FA00022E130E040E060E0C7010E940415582EA5
:102FB000F701D782C682182F8111C3C0A984BA84B1
:102FC0008B849C84FD81FF8B3E81388F60E870E0AC
:102FD00083E394E00E94B11F60E870E0C5010E94A5
:102FE000321360E870E080E394E00E94B11F60E873
:102FF00070E08BE294E00E94B11F60E870E0C401D1
:103000000E94321360E870E088E294E00E94B11FF1
:1030100060E870E081E294E00E94B11F60E870E037
:103020008F890E94710860E870E08EE194E00E9450
:10303000B11F60E870E084E194E00E94B11F60E895
:1030400070E0888D0E94710860E870E081E194E092
:103050000E94B11F60E870E08CE094E00E94B11F14
:10306000670186E5C80ED11C36011E8AD3018D91F9
:103070009D913D010097F1F4BE89BF5FBE8BB031D9
:10308000A9F760E870E081EF93E00E94B11FF601BC
:10309000819191916F01009709F07BC05394F0E109
:1030A0005F12F5CF242D432D622DC7010E94F71525
:1030B000182F47C0DC01ED91FC910084F185E02DD3
:1030C00009958111D9CFF301929182918F01DC0191
:1030D000ED91FC910088F189E02D688D0995882398
:1030E00059F2F80180819181DC01ED91FC91048419
:1030F000F585E02DA401B50109958823E1F160E88B
:1031000070E088E094E00E94B11F042D232D422D31
:103110006E89C7010E94CB16182F60E870E089EF16
:1031200093E00E94B11F60E870E0812F0E94710857
:1031300060E870E086EF93E00E94B11F113D09F452
:103140009BCF812F68960FB6F894DEBF0FBECDBF20
:10315000DF91CF911F910F91FF90EF90DF90CF9073
:10316000BF90AF909F908F907F906F905F904F90A7
:103170003F902F900895F80180819181DC01ED91BD
:10318000FC910684F785E02D6F8909958111B7CFF1
:1031900073CFDC01ED91FC910084F185E02D099560
:1031A00081117CCFF601929182918F01DC01ED912A
:1031B000FC910088F189E02D688D0995811125C069
:1031C00060E870E08DEE93E00E94B11F042D232D86
:1031D000422D652DC7010E94CB16182F60E870E0C4
:1031E0008DED93E00E94B11F60E870E0812F0E9496
:1031F000710860E870E08AED93E00E94B11F812FB2
:10320000877F813D09F09DCF49CFF8018081918171
:10321000DC01ED91FC910484F585E02DA401B5015C
:10322000099581113BCFF80180819181DC01ED91FD
:10323000FC910684F785E02D6F890995882309F4B0
:10324000BFCF2CCFAF92BF92CF92DF92EF92FF927F
:103250000F931F93CF937C010E94B50780918A0141
:10326000813041F058F0823009F463C0833069F056
:10327000C0E022C083E180932603FACF8091260329
:10328000807F8031A9F381E1F6CFC1E080912603F0
:10329000807F803189F40E94490E68537F4F8F4FA1
:1032A0009F4F609322037093230380932403909392
:1032B000250380E280932603670186E5C80ED11CB2
:1032C0005701A6E7AA0EB11C8601F80181919191E0
:1032D0008F01009739F0DC01ED91FC910680F781B8
:1032E000E02D09950A151B0581F78091260380348E
:1032F00009F45FC000F5803209F445C0803309F459
:1033000052C08131B1F5F8011082D6018D919D91A5
:103310006D01009739F0DC01ED91FC910480F5819D
:10332000E02D09950C151D0581F782E18093260398
:1033300020C0C0E0ABCF813509F44EC0803809F41D
:103340005EC08035B1F488EC0E947F1086FF11C00A
:1033500081E5809326030E94490E6C507E4F8F4F6B
:103360009F4F6093220370932303809324039093D1
:103370002503CF911F910F91FF90EF90DF90CF9099
:10338000BF90AF9008950E94490E009122031091C2
:1033900023032091240330912503601B710B820BC2
:1033A000930B97FDE6CF61E088EE0E94901080E4D9
:1033B000BDCF88EE0E947F1080FDDBCF60E488ECFB
:1033C0000E94901088ED0E947F10682F686088ED41
:1033D0000E94901080E5AACF0E94490E009122031E
:1033E000109123032091240330912503601B710B5E
:1033F000820B930B97FDBDCF80E8809326032C2F83
:1034000040E060E0C7010E949717C82F60E870E0B5
:1034100087E594E00E94B11F60E870E08C2F0E9465
:10342000710860E870E084E594E00E94B11FCC234D
:1034300029F080EAC23D09F079CF9BCF80E976CFB1
:103440008F929F92AF92BF92CF92EF920F93CF93B2
:10345000DF93CDB7DEB7C054D1090FB6F894DEBF05
:103460000FBECDBF5F934F939E012F5F3F4F3F93A2
:103470002F931F9220E42F9320E8822E912C5B0142
:1034800032E2C32EE12C06E021E840E0FC01668137
:10349000848195810E945A130F900F900F900F9086
:1034A0000F900F90C05CDF4F0FB6F894DEBF0FBED9
:1034B000CDBFDF91CF910F91EF90CF90BF90AF90A4
:1034C0009F908F9008958F929F92AF92BF92CF92CC
:1034D000DF92EF92FF920F93A42EB12C1F921F92B6
:1034E000DF92CF92FF92EF924701C22EE02E09E0C9
:1034F00021E2462FFC016681848195810E945A1346
:103500000F900F900F900F900F900F900F91FF90D2
:10351000EF90DF90CF90BF90AF909F908F900895E5
:103520008F929F92AF92BF92CF92EF920F93A62E5F
:10353000B12C1F921F921F921F921F921F92912CCB
:10354000812CC22EE42E0AE021E240E0FC016681DB
:10355000848195810E945A130F900F900F900F90C5
:103560000F900F900F91EF90CF90BF90AF909F90E2
:103570008F9008958F929F92AF92BF92CF92EF92C9
:103580000F93A62EB12C1F921F921F921F921F9273
:103590001F92912C812CC12CE42E0BE021E240E003
:1035A000FC016681848195810E945A130F900F90CF
:1035B0000F900F900F900F900F91EF90CF90BF90C2
:1035C000AF909F908F90089581E00895FC018285CF
:1035D000089581E0693009F080E00895CF93DF938A
:1035E000EC018A819B81DC01ED91FC910480F581E5
:1035F000E02D6A8509958A85813439F4EA81FB8159
:10360000EA58FF4F80818B7F80831A861B861C8639
:103610001D861E861F86188A80E0DF91CF9108954F
:103620008F929F92AF92BF92CF92EF920F93B22E52
:10363000A42E1F921F921F921F921F921F92912CD5
:10364000812CC12CE62E01E023E240E0FC016285E2
:10365000828193810E945A130F900F900F900F90C8
:103660000F900F900F91EF90CF90BF90AF909F90E1
:103670008F9008958F929F92AF92BF92CF92EF92C8
:103680000F93A62EB12C1F921F923F932F935F93FF
:103690004F934A01C12CE12C00E023EA40E0FC01F9
:1036A0006285828193810E945A130F900F900F9030
:1036B0000F900F900F900F91EF90CF90BF90AF9021
:1036C0009F908F9008958F929F92AF92BF92CF92CA
:1036D000EF920F93B22EA42E1F921F921F921F9251
:1036E0001F921F92912C812CC12CE62E03E023E225
:1036F00040E0FC016285828193810E945A130F9001
:103700000F900F900F900F900F900F91EF90CF9020
:10371000BF90AF909F908F900895CF92DF92FF92CD
:103720000F931F93CF93DF9300D000D0CDB7DEB7B8
:103730008C01F62E19821A821B821C8220E0462FF1
:1037400061E10E94101B20E04F2D60E1C8010E9442
:10375000101B20E04F2D64E0C8010E94631B83E032
:10376000C82ED12C9E012F5F3F4F44E050E06F2DBB
:10377000C8010E943A1B811114C089819A81AB81D2
:10378000BC819D7F83309140A041B10551F064E63A
:1037900070E080E090E00E944B0E81E0C81AD108F2
:1037A00009F720E04F2D64E1C8010E94101B20E0C2
:1037B0004F2D60E1C8010E94101B64E170E080E0C1
:1037C00090E00E944B0E0F900F900F900F90DF91A2
:1037D000CF911F910F91FF90DF90CF900895FC0142
:1037E00085E791E09183808373836283108A1482DA
:1037F00088E085839CE3968391E09783808784E0CB
:10380000818712861386148615861686178661159B
:103810007105B1F0DB01AA5ABF4F90E080E02D9115
:103820003D91232B49F4DC019B96AA0FBB1FA60FE9
:10383000B71FED93FC93089501968031910579F7B8
:103840000895EF92FF921F93CF93DF93EC01162F11
:103850007A01FA0180819181A281B3818130F3E004
:103860009F07F1E0AF07B105D9F170F48115E1E0F0
:103870009E07AE07B10509F453C081309140A140C5
:10388000B10571F180E046C0833021E0920720E16C
:10389000A207B10529F083309340A041B10591F70B
:1038A00020E0412F64E1CE010E94101B20E0412F57
:1038B00060E1CE010E94101B64E170E080E090E0C6
:1038C0000E944B0E6A85F701218126952170677051
:1038D000412F8A819B810E94971710922703D2CF94
:1038E000809127038111CECF20E0412F61E1CE01ED
:1038F0000E94101B20E0412F60E1CE010E94101BAE
:1039000020E0412F64E0CE010E94631B81E08093A0
:10391000270381EBDF91CF911F91FF90EF900895E6
:1039200020E0462F61E1CE010E94101B20E0412FD4
:1039300060E1CE010E94101B109227036A85677018
:103940001770660F660F660F612B8A819B810E943C
:103950003B1098CFCF92DF92EF92FF920F931F937D
:10396000CF93DF93CDB7DEB72E970FB6F894DEBFB7
:103970000FBECDBF6C0181E090E09E878D87E12C6A
:103980008E010F5F1F4F9E01235F3F4F41E0F60105
:103990006285828193810E945416082F811123C071
:1039A00082E0F82E11E089818F2169F119861A864B
:1039B0001B861C869E01275F3F4F44E050E0612F2D
:1039C000C6010E943A1BE82E81111DC0AE01475F5F
:1039D0005F4F612FC6010E94211C813B19F0882393
:1039E00091F0E82E0E2D802F2E960FB6F894DEBFA4
:1039F0000FBECDBFDF91CF911F910F91FF90EF9040
:103A0000DF90CF900895FF0C1F5F183061F611E032
:103A1000F6018385811738F319861A861B861C8662
:103A20009E01275F3F4F44E050E0612FC6010E9496
:103A30003A1BF82E811117C089859A85877091707D
:103A40008130914081F48B859C8581609C878B8738
:103A5000AE01475F5F4F612FC6010E94211C813B71
:103A600029F0811102C01F5FD3CFF82E0F2DBBCFDD
:103A70000F931F93CF93DF93FC012089211107C07F
:103A800010E0812FDF91CF911F910F910895EC01EC
:103A90000E94490E0C851D852E853F85601B710B8C
:103AA000820B930B97FDECCFCE010E94AA1C182F1E
:103AB0000E94490E6C597F4F8F4F9F4F6C877D87B7
:103AC0008E879F87DECF2F923F924F925F926F92A9
:103AD0007F928F929F92AF92BF92CF92DF92EF929E
:103AE000FF920F931F93CF93DF93CDB7DEB7E89785
:103AF0000FB6F894DEBF0FBECDBF3C01262E342E8C
:103B0000122F60E870E089E396E00E94B11F60E840
:103B100070E0832D0E94710860E870E086E396E013
:103B20000E94B11FD3011A968C911A978111C0C1BE
:103B30001296CD90DC90D601ED91FC910190F08130
:103B4000E02D60E0C60109957C01009709F4B2C13F
:103B5000FC01A080B180A114B10409F4ADC14301FE
:103B6000F4E08F0E911CDC0111969C928E921496BB
:103B70001C93FE0131962F018F0128E030E040E0D8
:103B800060E0D30112968D919C910E940415182F2C
:103B900060E870E084E296E00E94B11F60E870E0A7
:103BA000812F0E94710860E870E081E296E00E9437
:103BB000B11FF7011482111183C18D8111ED89307C
:103BC00009F03FC01981D601ED91FC910280F3818B
:103BD000E02D232D41E0622DC6010995F301828776
:103BE000882309F46BC198859583282F40E060E015
:103BF000828193810E94C815082F60E870E083E1FC
:103C000096E00E94B11F60E870E0802F0E9471086A
:103C100060E870E080E196E00E94B11FD701AD92AC
:103C2000BC92002341F1D601ED91FC910480F58115
:103C3000E02DD3011A966C91C6010995F301128605
:103C4000102F812FE8960FB6F894DEBF0FBECDBFC0
:103C5000DF91CF911F910F91FF90EF90DF90CF9068
:103C6000BF90AF909F908F907F906F905F904F909C
:103C70003F902F900895112371F0113208F010E257
:103C8000212F30E0820140E0F3016285828193813F
:103C90000E940415182F60E870E08EEF95E00E94F6
:103CA000B11F60E870E0812F0E94710860E870E049
:103CB0008BEF95E00E94B11F1111F5C0940142E015
:103CC000D3011A966C911A9712968D919C910E942D
:103CD0001F10182F60E870E086EE95E00E94B11F7B
:103CE00060E870E0812F0E94710860E870E083EE68
:103CF00095E00E94B11F1111D6C01F921F925F92D2
:103D00004F921F9288E08F9388E0882E912CB12CDF
:103D1000A12C99E2C92EE12C06E020EA40E0F30153
:103D20006285828193810E945A13182F60E870E0A7
:103D30008CEC95E00E94B11F60E870E0812F0E943A
:103D4000710860E870E089EC95E00E94B11F0F9067
:103D50000F900F900F900F900F901111A4C08B81B6
:103D6000D3011B968C931B97720100E028E030E092
:103D700040E01A966C911A9712968D919C910E9430
:103D80002B15182F60E870E086EB95E00E94B11FBC
:103D900060E870E0812F0E94710860E870E083EBBA
:103DA00095E00E94B11F11117EC02B813C8140E043
:103DB000F3016285828193810E942B15182F60E8A0
:103DC00070E080EA95E00E94B11F60E870E0812F0A
:103DD0000E94710860E870E08DE995E00E94B11FD3
:103DE000111161C0298130E0CE0181967C0140E053
:103DF000D3011A966C911A9712968D919C910E94FC
:103E00002B15182F60E870E08AE895E00E94B11F3A
:103E100060E870E0812F0E94710860E870E087E838
:103E200095E00E94B11F11113EC02E8140E0F301C8
:103E30006285828193810E942F16182F60E870E0BE
:103E400089E795E00E94B11F60E870E0812F0E9431
:103E5000710860E870E086E795E00E94B11F1111DB
:103E600022C001E0D3011B968C911B97801740F074
:103E700020E0402F68E0C3010E94631B0F5FF2CF78
:103E80001296ED91FC911397EA58FF4F8081846060
:103E9000808381E050968C9360E870E08AE695E03C
:103EA0000E94B11FCECE60E870E080E695E0F8CFCA
:103EB00019EDC7CE16EDC5CE17EDC3CE14EDC1CEAC
:103EC000B182A082BECE0F931F93CF93DF93FC01EC
:103ED0008B01EA0180819181892B61F460E870E0B7
:103EE00084E496E00E94B11F80E0DF91CF911F91A2
:103EF0000F9108959281992319F128813981232BFB
:103F000099F3D8012D913C91D9014C918381682F6F
:103F1000691B770B80819181860F971FDC014C9381
:103F200082818150828388819981019799838883D6
:103F3000D8018D919C91119701968D939C93DACF26
:103F40008381828381E0D1CF2091010130910201F0
:103F5000261737072CF0682F8EEC92E00C94FF1F89
:103F600008950F931F93CF93DF9320910101309118
:103F70000201261737076CF0009759F08B01EC010E
:103F8000FE0184912196882321F0B8010E94A41F8C
:103F9000F7CFDF91CF911F910F91089560E870E006
:103FA0008CE696E00C94B11F60E870E081E696E044
:103FB0000C94B11FCF93C82F282F30E084E03595A3
:103FC00027958A95E1F780E3820F8A3310F087E323
:103FD000820F60E870E00E94A41FCF7080E38C0F16
:103FE0008A3310F087E38C0F60E870E00E94A41F12
:103FF00060E870E08EE596E0CF910C94B11FDC0193
:10400000ED91FC910190F081E02D099480913404B0
:10401000089508950895CF93DF932091AE0524303D
:1040200011F521E02093E90021E8215021F03091A1
:10403000E80035FF1BC02091E80025FF14C0EC010B
:1040400050E040E068E070E00E94D4238091E800F6
:104050008E778093E80088E0FE01ACE2B4E0019046
:104060000D928A95E1F7DF91CF910895EFE3F1E0AA
:104070003197F1F700C00000D8CFCF93C0912A0349
:10408000C1110BC00E94AF0E643C794081059105BF
:1040900020F081E080932A03C1E08C2FCF91089516
:1040A000FF920F931F93CF93DF93D82F0FB607FE86
:1040B00046C08091AE05843079F08091060190E091
:1040C00001962091080130E082239323209107017B
:1040D0002817190609F0D0C00E943D2081110FC099
:1040E0008091060190E001962091080130E0822342
:1040F0009323209107012817190609F0BDC00E94DB
:10410000A30E8C01C091E900CF708091EC0080FD7E
:1041100037C080E0C82B82E08093E90085E0F82E6C
:104120008091EB0085FD08C08091EB0080FF04C00A
:104130008091EE0087FD44C0CF70C093E900E0910C
:1041400006018E2F90E001962091080130E0822335
:104150009323209107012817190609F486C080913E
:10416000040190910501E80FF92FF11DD083809192
:1041700006018F5F9091080189238093060175C025
:1041800080E8C8CFE0910401F0910501E80FF11D2E
:1041900090818F5F20910801822380930701909383
:1041A000F1008091E80085FD0BC08091E80080FF60
:1041B00007C08091E8008E778093E800F0920301B9
:1041C0008091070190910601981759F19091E800AC
:1041D00095FDD8CF80E02CC01092F10035C08091C1
:1041E000060190E001962091080130E0822393239C
:1041F000209107012817190609F09ECF809103012D
:10420000882309F499CF0E94A30E9C01801791077F
:1042100009F486CF90910301915090930301890195
:104220007FCF8091E80085FFD5CFD093F10081E06A
:104230002091F3009091F200322F292F232B79F057
:104240009091E80090FF0BC09091E80095FDC4CFDD
:104250009091E8009E779093E800F0920301882304
:1042600009F4BDCFCF70C093E90080E0DF91CF911A
:104270001F910F91FF900895E091060170CF08956E
:104280008091AD05811104C00E943F260C949C26AC
:1042900008951092AD050895089542E061EC81E023
:1042A0000E94522342E261EC82E00C9452238091FE
:1042B000B005833009F452C030F4813059F18230B6
:1042C00009F48EC008958A3009F47AC08B3009F45D
:1042D00060C0893009F041C08091AF058132E9F5B5
:1042E0008091B3059091B405892BB9F58091E800D0
:1042F000877F8093E8008091E80082FF2AC0809148
:10430000F100809334048091E8008B778093E8007B
:104310000C9486238091AF05813AF9F48091E800EE
:10432000877F8093E8008091B3059091B405892B35
:1043300061F468E08CE294E070E00E9425248091B2
:10434000E8008B778093E800089560E090E080E0DB
:10435000F3CF8091AE058111CECF08958091AF0546
:10436000813AD9F78091B3059091B405892BA9F7CB
:104370008091E800877F8093E8008091E80080FFCB
:10438000FCCF809113018093F1008091E8008E773B
:10439000BDCF8091AF05813201F78091B305909137
:1043A000B405892BD1F68091E800877F8093E800DF
:1043B0000E9486238091B105809313010C94B22A48
:1043C0008091AF05813249F68091E800877F809324
:1043D000E8000E9486238091B205809335040895F9
:1043E0008091AF05813A09F0B8CF8091E800877FCE
:1043F0008093E8008091E80080FFFCCF8091350435
:10440000C2CF089508958091340480932B031092B5
:1044100034040E9418290C94B22A0C9403220E949E
:104420007F3480912B038093340408950C940F22E1
:104430000895CF9384B7877F84BF0FB6F894A8956B
:1044400080916000886180936000109260000FBED0
:1044500080E890E00FB6F89480936100909361003B
:104460000FBE80E590E20E94253489E091E00E9431
:10447000A5278BE996E00E9465040E9401220E9414
:104480005A280E943F260E949C2678940E945C280D
:104490008091AE05843009F047C089E896E00E941B
:1044A00065040E9402228BE796E00E946504C2E048
:1044B0008091AE058530E9F10E942A340E9460287F
:1044C0002091E4003091E500809128039091290328
:1044D0002817390731F18091E4009091E50090931D
:1044E0002903809328030E943D208823D1F08091E6
:1044F000AE058430B1F49091E9009F708091EC009A
:1045000080FD1AC080E0892BC093E9009091EB00F8
:1045100090FF04C09091EE0097FD2CC08F708093A7
:10452000E9000E948927C4CF0E9489270E9418228F
:10453000AFCF0E945107BCCF80E8E5CFE0910401E6
:10454000F0910501E90FF11D20819F5F3091080175
:104550009323909307012093F1009091E80095FD3B
:1045600009C09091E80090FF05C09091E8009E7707
:104570009093E8009091070120910601291721F0FE
:104580002091E80025FDDACF2091F3009091F20010
:10459000322F292F232B11F29091E80090FFBECFEC
:1045A0009091E80095FD06C09091E8009E77909369
:1045B000E800B4CF1092F100F3CFE92FFF27E330EA
:1045C000F10551F150F4E130F105C1F03297F9F005
:1045D000F0E0E0E090E080E015C0E132F10509F4A0
:1045E00037C0E232F105A1F76115710509F43FC04A
:1045F00086E697E06130710529F0EACFE2E1F0E06C
:1046000084E597E0DA018D939C93CF010895E2E46D
:10461000F0E082E197E0F6CF99278130910589F0AB
:1046200048F00297A9F6E0ECF6E0E491F0E080ECC7
:1046300096E0E8CFEEE0F7E0E491F0E08EE097E07E
:10464000E1CFEEEFF6E0E491F0E08EEF96E0DACF26
:10465000E9E0F0E084E297E06115710599F2E9E0A4
:10466000F0E08DE397E06130710561F2B1CFE0E4F5
:10467000F0E088E897E0C6CF80E189BD82E189BD9E
:1046800009B400FEFDCF8091D8008F7D8093D800C3
:104690008091E00082608093E0008091E00081FDE5
:1046A000FCCF0895982F973028F08F708093E90001
:1046B00081E008959093E900242F762F50E0981719
:1046C00031F07091EC002091ED005091F00021FD4F
:1046D00002C09F5FE8CF3091EB003E7F3093EB004C
:1046E0003091ED003D7F3093ED003091EB00316073
:1046F0003093EB007093EC002093ED005093F000AA
:104700002091EE0027FDE5CF80E008958091AF0570
:1047100087FF13C08091E80082FF06C08091E80007
:104720008B778093E80004C08091AE058111F2CFB1
:1047300008958091AE058823D9F38091E80080FF29
:10474000F8CF8091E8008E77ECCF2091E400309193
:10475000E50085E69091EC0090FF06C09091E8009E
:1047600090FF06C080E008959091E80092FDFACF96
:104770009091AE05992391F0953091F09091EB00D6
:1047800095FD10C04091E4005091E50024173507D5
:1047900009F381509A01F1F684E0089582E00895CA
:1047A00083E0089581E00895AF92BF92CF92DF92A7
:1047B000FF920F931F93CF93DF936C01EB018A015C
:1047C0000E94A523F82E811125C00115110539F08D
:1047D000F80180819181C81BD90BC80ED91EB12C5C
:1047E000A12C2097B9F08091E80085FD24C080912C
:1047F000E8008E778093E8000E9489270115110553
:10480000A1F0F80180819181A80EB91EB182A08229
:1048100085E0F82E8F2DDF91CF911F910F91FF90A2
:10482000DF90CF90BF90AF9008950E94A52388237A
:10483000C1F2F82EEFCFF60181916F018093F10064
:104840002197FFEFAF1ABF0ACCCFFC018091B505CD
:104850009091B60586179707A0F06115710529F4A8
:104860009091E8009E779093E80090E061157105C3
:1048700051F4911108C08091E80082FF35C080E0BA
:104880000895BC01F2CF8091AE058823C9F185302F
:10489000C9F18091E80083FD31C08091E80082FD7C
:1048A000EACF8091E80080FFE1CF2091F300809172
:1048B000F200322F282F6115710519F028303105CB
:1048C00058F091E02830310509F090E02091E8009F
:1048D0002E772093E800CACF81918093F100615038
:1048E00071092F5F3F4FE7CF8091AE05882341F0DC
:1048F000853041F08091E80083FFBDCF81E00895CD
:1049000082E0089583E00895FC018091B5059091BF
:10491000B60586179707A0F06115710529F48091F7
:10492000E8008E778093E80090E06115710551F4FE
:10493000911108C08091E80082FF36C080E00895A0
:10494000BC01F2CF8091AE058823D1F18530D1F141
:104950008091E80083FD32C08091E80082FDEACFBB
:104960008091E80080FFE1CF2091F3008091F20078
:10497000322F282F6115710519F02830310558F0B4
:1049800091E02830310509F090E08091E8008E77C1
:104990008093E800CACF84918093F10031966150F2
:1049A00071092F5F3F4FE6CF8091AE05882341F01C
:1049B000853041F08091E80083FFBCCF81E008950D
:1049C00082E0089583E008951F93CF93DF93CDB7DE
:1049D000DEB7AA970FB6F894DEBF0FBECDBFEFEAE1
:1049E000F5E08091F100819325E0E73BF207C9F7FC
:1049F0000E9457218091E80083FF44C08091AF0559
:104A00009091B0059A3008F03DC0E92FF0E0E55FE5
:104A1000FA4D0C94073715253B2542253B254225A9
:104A20009925BB25422512261F26803889F0823819
:104A300049F58091B3058F70873020F58093E900A8
:104A40008091EB0085FB882780F91092E90006C071
:104A50008091AB059091AC05911182609091E80036
:104A6000977F9093E8008093F1001092F10080917D
:104A7000E8008E772DC0282F2D7F21F48823D1F0D8
:104A8000823059F18091E80083FF0AC08091E800EC
:104A9000877F8093E8008091EB0080628093EB0039
:104AA000AA960FB6F894DEBF0FBECDBFDF91CF91AF
:104AB0001F9108958091B105813021F7933009F05D
:104AC00080E08093AC051092E9008091E800877F38
:104AD0008093E8000E948623D5CF8091B105811193
:104AE000F2CF8091B3058F702FEF280F263050F64C
:104AF0008093E9002091EB0020FFE5CF933031F463
:104B00008091EB0080628093EB00DDCF9091EB0011
:104B100090619093EB0021E030E001C0220F8A9574
:104B2000EAF72093EA001092EA008091EB00886097
:104B3000EACF8111A7CF1091B1051F778091E300D3
:104B40008078812B8093E3008091E800877F8093B9
:104B5000E8000E9486238091E80080FFFCCF8091CE
:104B6000E30080688093E30083E0111101C082E0DC
:104B70008093AE0587CF8058823008F083CF809134
:104B8000B1059091B2058C3D23E09207A1F583E039
:104B90008A838AE289834FB7F894DE01139620E076
:104BA0003EE051E2E32FF0E050935700E49120FF04
:104BB00003C0E295EF703F5FEF708E2F90E0EA3018
:104BC000C0F0C7968D939D932F5F243159F74FBF47
:104BD0008091E800877F8093E8006AE270E0CE0170
:104BE00001960E9425248091E8008B778093E8004D
:104BF00049CFC096E7CF6091B3057091B405AE017F
:104C00004F5F5F4F0E94DD22BC01892B09F43ACF30
:104C10009091E800977F9093E80089819A810E94A3
:104C20008424E1CF803809F02DCF8091E800877F80
:104C30008093E8008091AA058093F10018CF81113C
:104C400021CF9091B105923008F01CCF8091E800FF
:104C5000877F8093E8009093AA050E948623809125
:104C6000AA05882331F084E08093AE050E944D218F
:104C700009CF8091E30087FDF6CF81E0F5CF0E9458
:104C8000AD260E94B526E0EEF0E080818160808351
:104C9000E8EDF0E080818F77808319BCA7EDB0E06C
:104CA0008C918E7F8C9380818F7E80831092AD0556
:104CB00008950F931F93CF93DF930E94AD260E9418
:104CC000B526C8EDD0E088818F7788838881806899
:104CD000888388818F7D888319BC1092AE051092DD
:104CE000AA051092AC051092AB0500EE10E0F80199
:104CF00080818B7F808388818160888342E060E04F
:104D000080E00E945223E1EEF0E080818E7F80837C
:104D1000E2EEF0E080818160808380818860808322
:104D2000F80180818E7F8083888180618883DF9114
:104D3000CF911F910F910895E8EDF0E080818F7E73
:104D40008083E7EDF0E080818160808384E082BF32
:104D500081E08093AD050C945926E8EDF0E0808168
:104D60008E7F80831092E20008951092DA001092F4
:104D7000E10008951F920F920FB60F9211242F9306
:104D80003F934F935F936F937F938F939F93AF93D3
:104D9000BF93EF93FF938091E10082FF0BC080915E
:104DA000E20082FF07C08091E1008B7F8093E100E9
:104DB0000E9488278091DA0080FF19C08091D80076
:104DC00080FF15C08091DA008E7F8093DA00809199
:104DD000D90080FF8FC080E189BD82E189BD09B41F
:104DE00000FEFDCF81E08093AE050E9440218091BE
:104DF000E10080FF19C08091E20080FF15C0809122
:104E0000E2008E7F8093E2008091E20080618093D7
:104E1000E2008091D80080628093D80019BC85E0C0
:104E20008093AE050E940D228091E10084FF29C08D
:104E30008091E20084FF25C080E189BD82E189BDC7
:104E400009B400FEFDCF8091D8008F7D8093D800FB
:104E50008091E1008F7E8093E1008091E2008F7E5F
:104E60008093E2008091E20081608093E200809173
:104E7000AA05882309F444C084E08093AE050E940B
:104E800016228091E10083FF24C08091E20083FF1D
:104E900020C08091E100877F8093E10082E08093D1
:104EA000AE051092AA058091E1008E7F8093E1000B
:104EB0008091E2008E7F8093E2008091E200806129
:104EC0008093E20042E060E080E00E9452230E9472
:104ED0004C21FF91EF91BF91AF919F918F917F9165
:104EE0006F915F914F913F912F910F900FBE0F9057
:104EF0001F90189519BC1092AE050E94492177CFDA
:104F00008091E30087FD02C081E0B7CF83E0B5CF99
:104F10000895CF938091AE05882399F0C091E90060
:104F2000CF708091EC0080FD0EC080E0C82B109205
:104F3000E9008091E80083FD0E94E424CF70C093D3
:104F4000E900CF91089580E8F1CF90933B048093DE
:104F50003A040895E0913A04F0913B04309721F02F
:104F60000190F081E02D099480E00895EF92FF9286
:104F70000F931F93CF93DF93E0913A04F0913B049A
:104F80003097C9F18C010280F381E02D0995809161
:104F9000A80582FF30C080FF04C08EEE97E00E941B
:104FA0006504D0E0C0E088EEE82E87E0F82E80911E
:104FB000A80580FF0EC0F801EC0FFD1F80811F9235
:104FC0008F93FF92EF920E94FE040F900F900F902C
:104FD0000F902196C830D10551F78091A80580FF28
:104FE0000AC086EE97E0DF91CF911F910F91FF905D
:104FF000EF900C946504DF91CF911F910F91FF907A
:10500000EF900895CF93DF932091380430913904C5
:105010002817390701F19093390480933804E091FF
:105020003A04F0913B043097B1F0EC010680F7812F
:10503000E02D09958091A8058570853061F4DF9396
:10504000CF9388ED97E09F938F930E94FE040F907B
:105050000F900F900F90DF91CF910895CF93DF9332
:1050600020913604309137042817390701F19093C5
:10507000370480933604E0913A04F0913B04309772
:10508000B1F0EC010084F185E02D09958091A8052F
:105090008570853061F4DF93CF9388EC97E09F9320
:1050A0008F930E94FE040F900F900F900F90DF914E
:1050B000CF9108950C9419290E949A0E0C944F08D0
:1050C0008F929F92AF92BF92CF92DF92EF92FF9218
:1050D0000F931F93CF93DF9300D000D01F92CDB7D3
:1050E000DEB70E94DE052DE3E22E24E0F22E10E072
:1050F000812F0E94C6064C01F701A080B180A8163E
:10510000B906C9F18091A80581FD0E94F40600E06E
:10511000CC24C394D12CA824B924C5018C219D2171
:10512000892B21F109831A8321E0C4018C219D215F
:10513000892B09F420E02B830E94A30E8160782F35
:105140009D838C8349815A816B818D810E941C29AA
:1051500049815A816B817C818D810E942C34F701B9
:10516000808191818C259D25918380830F5FCC0C5C
:10517000DD1C003191F61F5FF2E0EF0EF11C1031E3
:1051800009F0B6CF8FEF89838A831B820E94A30E1A
:105190008160782F9D838C8349815A816B818D81B9
:1051A0000E941C290E942B340E94AA2790913C0443
:1051B000891751F10E94AA2780933C049091A80579
:1051C0009570953061F41F928F9389EF97E09F93CC
:1051D0008F930E94FE040F900F900F900F9080917C
:1051E0003C040F900F900F900F900F90DF91CF9194
:1051F0001F910F91FF90EF90DF90CF90BF90AF90F5
:105200009F908F900C943D340F900F900F900F90C3
:105210000F90DF91CF911F910F91FF90EF90DF9052
:10522000CF90BF90AF909F908F9008950C94F5060B
:105230000895089508950895CF93DF93CDB7DEB70D
:105240002B970FB6F894DEBF0FBECDBF942F4F83C0
:10525000252F588769877A878B874A855B8581E008
:10526000452B31F02F3F19F481E09F3F09F080E09A
:1052700080FD07C04F81588569857A858B850E949E
:105280002C341E821D8285E0FE013796DE011196C8
:1052900001900D928A95E1F749815A816B817C8159
:1052A0008D819E812B960FB6F894DEBF0FBECDBFC9
:1052B000DF91CF910C948E30CF93DF93882309F444
:1052C000E6C09EE7980F933020F5C2E0D9E382381C
:1052D00031F0C4E0D7E4833811F4C1E0D3E50E9493
:1052E000AA278C2309F0D3C08D2F0E9484330E94FB
:1052F000FF332FEF81EE94E0215080409040E1F7A2
:1053000000C000008D2F0E94A133DF91CF910C943B
:10531000FF339CEF980F913A18F40E948433F5CF35
:1053200090E2980F983050F4877091E001C0990F87
:105330008A95EAF7892F0E94C433E7CF9BE5980F3F
:10534000933080F4853A41F0863A49F083E890E062
:10535000DF91CF910C94022881E890E0F9CF82E8A8
:1053600090E0F6CF98E5980F973108F090C0883A12
:1053700009F448C0893A09F448C08A3A09F448C097
:105380008B3A09F448C08C3A09F448C08D3A09F4C4
:1053900048C08E3A09F448C08F3A09F448C0813BAE
:1053A00009F448C0803B09F448C0823B09F448C076
:1053B000833B09F448C0843B09F448C0853B09F4A9
:1053C00048C0863B09F448C0873B09F448C0883B85
:1053D00009F448C0893B09F448C08A3B09F448C035
:1053E0008B3B09F448C08C3B09F448C08D3B09F461
:1053F00048C08E3B09F448C090E080E0DF91CF9137
:105400000C942E2882EE90E0F9CF89EE90E0F6CF52
:105410008AEE90E0F3CF85EB90E0F0CF86EB90E062
:10542000EDCF83EB90E0EACF84EB90E0E7CF87EB22
:1054300090E0E4CF8CEC90E0E1CF8DEC90E0DECF1B
:1054400083E891E0DBCF8AE891E0D8CF82E991E070
:10545000D5CF84E991E0D2CF81E292E0CFCF83E251
:1054600092E0CCCF84E292E0C9CF85E292E0C6CF51
:1054700086E292E0C3CF87E292E0C0CF8AE292E078
:10548000BDCF8FE690E0BACF80E790E0B7CFDF9155
:10549000CF910895CF93DF93882309F44CC09EE702
:1054A000980F933018F5C2E0D9E3823831F0C4E0A8
:1054B000D7E4833811F4C1E0D3E50E94AA278C23F6
:1054C000D1F18D2F0E9484330E94FF332FEF81EEA4
:1054D00094E0215080409040E1F700C000008D2F03
:1054E0000E94A133DF91CF910C94FF339CEF980F72
:1054F000913AB0F390E2980F983050F4877091E0B1
:1055000001C0990F8A95EAF7892F0E94CA33EACF22
:105510009BE5980F933030F490E080E0DF91CF91DD
:105520000C940228885A873130F490E080E0DF91B3
:10553000CF910C942E28DF91CF910895882321F0EC
:105540000E94C4330C94FF330895882321F00E94F5
:10555000CA330C94FF3308950E94E6330E94B3339C
:105560000C94FF330E94D5330C94AC2AAF92BF92B7
:10557000CF92DF92EF92FF920F931F93CF93DF931F
:1055800000D000D01F92CDB7DEB75C010E943F343F
:105590008111E1C085E0F501DE01119601900D92C7
:1055A0008A95E1F7F501408151812381348181E0C1
:1055B0002115310531F05F3F19F481E04F3F09F0CB
:1055C00080E080FDC8C0F501F280E580E2946FE0E4
:1055D000E62249835A83FB82722F3D832C836F2DF1
:1055E0008D810E94DB328C010E94DA320E94D6311A
:1055F000E12FE295EF70F0E0E050F54D0C940737A5
:10560000102B102B4D2B4D2BAB2BAB2BAB2BAB2BDC
:10561000DE2BAB2BCA2CCA2C882DAB2B9F2DC02D7B
:10562000F12FFF70EF2E107F19F0E29490EFE92236
:10563000FF20C9F0EE2029F08E2D0E94D8330E9461
:10564000FF33802F0F900F900F900F900F90DF91EE
:10565000CF911F910F91FF90EF90DF90CF90BF906F
:10566000AF900C945C29802F0E944A2AEE2009F406
:1056700072C08E2D0E94DE330F900F900F900F900E
:105680000F90DF91CF911F910F91FF90EF90DF90DE
:10569000CF90BF90AF900C94FF33212F2F70D22E5C
:1056A000107F103219F0D29480EFD822002379F0C5
:1056B000013009F460C0FF2009F46CC0EE2059F0FD
:1056C000F501858180FF74C18F70858304C0FF2040
:1056D00049F1E11012C08D2D0F900F900F900F9097
:1056E0000F90DF91CF911F910F91FF90EF90DF907E
:1056F000CF90BF90AF900C949E2A81E0E812EBCF40
:105700008D2D0F900F900F900F900F90DF91CF91F4
:105710001F910F91FF90EF90DF90CF90BF90AF90CF
:105720000C94E933E11014C00E94EC338D2D0F90DE
:105730000F900F900F900F90DF91CF911F910F91CD
:10574000FF90EF90DF90CF90BF90AF900C94A52A80
:1057500091E0E912E9CF0F900F900F900F900F900A
:10576000DF91CF911F910F91FF90EF90DF90CF903D
:10577000BF90AF900895FF2049F0E5E0EE1558F393
:105780000E94C1338D2109F4A6CFD0CFF4E0FE15DD
:1057900010F3CCCFEE2051F2802F0F900F900F908E
:1057A0000F900F90DF91CF911F910F91FF90EF908D
:1057B000DF90CF90BF90AF900C944A2A812F8370D6
:1057C00009F071C0F110C7CF202F229526952770C0
:1057D000220F220F602F6F70C62ED12CF12CE12CDE
:1057E000022E04C0CC0CDD1CEE1CFF1C0A94D2F768
:1057F00060E070E0CB0104FF0FC06FE070E080E07C
:1058000090E004C0660F771F881F991F2A95D2F772
:105810006095709580959095169516951370123039
:10582000C1F060F56C297D298E299F29113051F135
:105830000F900F900F900F900F90DF91CF911F91CD
:105840000F91FF90EF90DF90CF90BF90AF900C94AE
:10585000F1316C297D298E299F290F900F900F908F
:105860000F900F90DF91CF911F910F91FF90EF90CC
:10587000DF90CF90BF90AF900C940B320E94F1312B
:10588000C701B6010F900F900F900F900F90DF910E
:10589000CF911F910F91FF90EF90DF90CF90BF902D
:1058A000AF900C94D7318695FF2011F0812F817035
:1058B000882309F450CF202F229526952770220F98
:1058C000220F602F6F70C62ED12CF12CE12C022EEE
:1058D00004C0CC0CDD1CEE1CFF1C0A94D2F760E067
:1058E00070E0CB0104FF0FC06FE070E080E090E05B
:1058F00004C0660F771F881F991F2A95D2F76095FD
:105900007095809590951695169513701230C1F08C
:1059100060F56C297D298E299F29113051F10F9056
:105920000F900F900F900F90DF91CF911F910F91DB
:10593000FF90EF90DF90CF90BF90AF900C94B63275
:105940006C297D298E299F290F900F900F900F9021
:105950000F90DF91CF911F910F91FF90EF90DF900B
:10596000CF90BF90AF900C94C8320E94B632C7015E
:10597000B6010F900F900F900F900F90DF91CF9185
:105980001F910F91FF90EF90DF90CF90BF90AF905D
:105990000C94A432003F09F453C0D0F480E4800F8B
:1059A000803298F1FF2009F4AEC0EE2009F4A8C0BF
:1059B000802F0E945C29093309F09BC0FFEF21EE84
:1059C00084E0F15020408040E1F700C00000C3CEE9
:1059D000023F09F468C008F451C0033F19F7FF20E3
:1059E00009F476C0812F8F710F900F900F900F9058
:1059F0000F90DF91CF911F910F91FF90EF90DF906B
:105A0000CF90BF90AF900C942A32C02E812F8F710F
:105A1000102F1071FF2051F00E943F328C2D829583
:105A2000807F111159CE802F8F7056CE0E94603228
:105A30008C2D8295807F11117ACE802F8F7077CE3A
:105A4000FF20B9F094E09E1508F485CE812F8F7168
:105A50000F900F900F900F900F90DF91CF911F91AB
:105A60000F91FF90EF90DF90CF90BF90AF900C948C
:105A70008332E5E0EE1508F46ECEE8CF812F8F710A
:105A8000FF20A9F00F900F900F900F900F90DF91D3
:105A9000CF911F910F91FF90EF90DF90CF90BF902B
:105AA000AF900C943F32812F8F71FF2059F30F90EC
:105AB0000F900F900F900F90DF91CF911F910F914A
:105AC000FF90EF90DF90CF90BF90AF900C9460323A
:105AD0000F900F900F900F900F90DF91CF911F912B
