:100000000C941C020C946F020C946F020C946F02FF
:100010000C946F020C946F020C946F020C946F029C
:100020000C946F020C946F020C9429200C946F02B4
:100030000C94D92D0C946F020C946F020C946F02E7
:100040000C946F020C946F020C946F020C946F026C
:100050000C946F020C94C10A0C946F020C946F0202
:100060000C946F020C946F020C946F020C946F024C
:100070000C946F020C946F020C946F020C946F023C
:100080000C946F020C946F020C946F020C946F022C
:100090000C946F020C946F020C946F020C946F021C
:1000A0000C946F020C946F020C946F02808080801D
:1000B0000405060708090A0B0C0D0E0F1011121388
:1000C0001415161718191A1B1C1D1E1F2021222378
:1000D0002425262728292A2B2C2D2E2F3031323368
:1000E0003435363738393A3B3C3D3E3F4041424358
:1000F0004445464748494A4B4C4D4E4F5051525348
:100100005455565758595A5B5C5D5E5F6061626337
:100110006465736768696A6B6C6D6E6F707172731A
:100120008080808080808080808080030201808049
:100130008066807500747677808080807677808096
:1001400080808080808080808080808080808080AF
:10015000808080808080808080808080808080809F
:10016000808080808080808080808080808080808F
:10017000808080808080808080808080808080807F
:1001800080808080808080808080808078797A7B89
:100190007C7D7E7F80808080808080808080808069
:1001A00080808080808080808080808073706565A2
:1001B000643A2025730A007573625F737461746515
:1001C0003A20253032580A00686F73742E546173D8
:1001D0006B3A2025640A00526F6C6C6F7665722052
:1001E0006572726F723A2069676E6F7265640D0A8C
:1001F000000D0A00202530325800696E7075742099
:1002000025643A000A4C6F6F702073746172742E0B
:100210000A000A55534220636F6E666967757265FE
:10022000642E0A000A544D4B3A3165663435632F0B
:100230004C5546413A6436613764662F554853320F
:100240003A6533376564360A003C03550053004273
:1002500000200074006F0020005500530042002071
:10026000006B006500790062006F0061007200643D
:1002700000200063006F006E00760065007200745D
:10028000006500720000000E0374002E006D002E49
:10029000006B002E0000000403090409025B000348
:1002A0000100A0320904000001030101000921112D
:1002B0000100012240000705810308000A0904012A
:1002C000000103010200092111010001227F000742
:1002D000058203080001090402000203000000096E
:1002E00021110100012222000705830320000107DC
:1002F0000503032000011201100100000008EDFEBB
:100300005B001408010200010631FF0974A1010914
:1003100075150026FF0095207508810209761500E5
:1003200026FF00952075089102C005010902A10170
:100330000901A100850105091901290815002501F8
:100340009508750181020501093009311581257F64
:1003500095027508810609381581257F9501750874
:100360008106050C0A38021581257F9501750881E3
:1003700006C0C005010980A10185021601002637CB
:10038000001A81002AB700751095018100C0050C84
:100390000901A1018503160100269C021A01002A09
:1003A0009C02751095018100C005010906A1010597
:1003B0000719E029E71500250195087501810295C7
:1003C0000175088101050819012905950575019137
:1003D000029501750391010507190029FF150026F3
:1003E000FF00950675088100C0290A002575002FB9
:1003F000002575005D28002564002000256400208C
:100400000025640020002564007C0025303258005F
:100410006D6F7573656B6579205B62746E7C782097
:1004200079207620685D287265702F61636C293AA7
:10043000205B00005E092B0A11241FBECFEFDAE01B
:10044000DEBFCDBF04B603FE28C08091D4059091D5
:10045000D505A091D605B091D7058730904BA74020
:10046000B04BD9F41092D4051092D5051092D60550
:100470001092D70514BE0FB6F894A895809160002D
:10048000886180936000109260000FBE1092010896
:1004900010920008E0E0F8E3099511E0A0E0B1E077
:1004A000ECE2F5E602C005900D92AC39B107D9F740
:1004B00025E0ACE9B1E001C01D92A43DB207E1F72F
:1004C00012E0CCE1D2E004C02197FE010E947A3212
:1004D000CA31D107C9F70E94921B0C9494320C9434
:1004E0000000FF93EF93E0919C01F0919D01309704
:1004F00009F00995EF91FF910895FC0185918030F5
:1005000011F0EFDFFBCF0895FF27E0E230E247FF75
:100510000CC0419597FF09C0EDE2609570958095FC
:100520009095611D711D811D911D27FF02C02195B0
:1005300030E350E2AA27660F771F881F991FAA1F72
:10054000A41710F0A41B63955A95A9F7AA3008F0D8
:10055000A95FA05DAF93F3956115710581059105C4
:1005600041F7ED3211F4EF93F395F21718F43F933E
:10057000F395FBCF8F91B5DFFA95E1F70895E991F7
:10058000F9918591803021F0853219F0AADFF9CFF9
:10059000089520E0E89455915532C1F3503311F499
:1005A000689455915A3348F4505390F3220F022E19
:1005B000220F220F200D250FF4CF0EF421958991E3
:1005C0009991533619F3533729F1533559F1BC0139
:1005D00088279927E8945C3621F489919991689449
:1005E0005591543639F446EF7EF077FF0DC08FEF0A
:1005F0009FEF0AC055374AE039F0583540E121F005
:10060000523642E009F00895FF93EF937DDFEF91BA
:10061000FF91B7CFFF93EF93FC0181918030B9F345
:1006200060DFFBCFFF93EF9368DFF1CFDF93CF93D2
:10063000CDB7DEB72596A3DFCF91DF91089580E097
:100640000895089580E00895CF93DF93CDB7DEB786
:1006500028970FB6F894DEBF0FBECDBFE22F2983D7
:100660003A834B835C836D837E838F83988720914D
:10067000DA022E2B2093DA02FE013396AE01475F99
:100680005F4F2191243060F0ACEDB2E090E080E06B
:100690003D91311111C086529D4FDC0112962C9371
:1006A000E417F50771F728960FB6F894DEBF0FBE72
:1006B000CDBFDF91CF91089501968630910541F726
:1006C000EFCF70E0660F771F860F971FFC015687EC
:1006D000458781E00895FC0187890895CF93DF93D2
:1006E000EC018C819D81DC01ED91FC910480F58110
:1006F000E02D6E8109951F86188A81E08A8B1E8203
:100700001B8A1C8A1D8A1E8A1F8A80E0DF91CF9176
:100710000895FC018681089581E0633009F080E04E
:10072000089581E0613009F080E0089570E0660F7F
:10073000771F860F971FFC01858596850895EF9298
:10074000FF92CF93DF93FC01E7018289823021F190
:100750006787408B9B8193709330F1F49A8197FF68
:100760001BC02E81308D321708F4208F282F30E0E7
:10077000D901AA0FBB1FA20FB31FAE0FBF1F9F70DF
:1007800017969C9317979C8118969C93189794E0C2
:1007900019969C938F5F828BDF91CF91FF90EF90A2
:1007A0000895EF92FF920F9302970E949F030F917B
:1007B000FF90EF90089508956F927F928F929F928D
:1007C000AF92BF92CF92DF92EF92FF920F931F935F
:1007D000CF93DF9300D0CDB7DEB76C01ADB6BEB618
:1007E000DC0157968C91811118C0F12C8F2D0FB61A
:1007F000F894BEBE0FBEADBE0F900F90DF91CF91AB
:100800001F910F91FF90EF90DF90CF90BF90AF902E
:100810009F908F907F906F9008950E94400AF601FC
:100820000389148925893689601B710B820B930B10
:1008300097FDDBCF8DB69EB64285838590E08134EF
:10084000910508F046C09A83898389819A812DB7E2
:100850003EB7281B390B0FB6F8943EBF0FBE2DBF15
:100860008DB79EB70196E12C8C019E012F5F3F4F03
:10087000D60116966C91169714968D919C910E94B4
:10088000C712F82E811113C029813A812330310516
:1008900070F0F60185859685009749F0DC01ED91B1
:1008A000FC910190F081E02D40E0B60109950FB672
:1008B000F8949EBE0FBE8DBE0E94400AF601208DA8
:1008C000620F711D811D911D638B748B858B968BBF
:1008D0008DCF80E490E0B7CF3F924F925F926F92BE
:1008E0007F928F929F92AF92BF92CF92DF92EF92C0
:1008F000FF920F931F93CF93DF93CDB7DEB7EB97A4
:100900000FB6F894DEBF0FBECDBFDC0116963C914A
:1009100019ED311115C0422E342E562E7C01FC01EA
:1009200084809580108ED401ED91FC910190F0812E
:10093000E02D60E0C40109956C010097D1F416ED3B
:10094000812FEB960FB6F894DEBF0FBECDBFDF91BF
:10095000CF911F910F91FF90EF90DF90CF90BF90BC
:10096000AF909F908F907F906F905F904F903F904F
:100970000895FC016080718017ED6114710401F32A
:100980005701F7E0AF0EB11CDC011196BC92AE929C
:1009900014964C928E01065D1F4F28E030E040E037
:1009A00060E0F701848195810E948810182F8111E1
:1009B000EEC01AA5D6016D927C92D401ED91FC9106
:1009C0000280F381E02D232D40E0652DC4010995BF
:1009D000F7018683882309F4D8C099A99087282F26
:1009E00040E060E0848195810E943311582ED4014B
:1009F000ED91FC91882379F0D60114961C92048025
:100A0000F581E02DD70116966C91C4010995F70187
:100A10001682152D95CFD70116966C91D601149696
:100A20001C920190F081E02DC4010995009709F412
:100A300086CFFC014482950141E0D70116966C9166
:100A4000169714968D919C910E94160C111136C028
:100A50004BAC88E2882E81E0982E3701B2E06B0E15
:100A6000711C6E01E1E1CE0ED11C451409F445C0A4
:100A70009A8289827C826B821D821A861B861E86E0
:100A8000188A1F8619A21AA21BA219A6DF82CE827B
:100A9000D986C886DD86CC868E010F5F1F4F252D37
:100AA00040E0F7016681848195810E94D610D701CC
:100AB00052968C91823009F15394D7CF133108F0BC
:100AC00012E1212F30E08E01065D1F4F40E0D7017B
:100AD00016966C91169714968D919C910E94881091
:100AE000182F882309F4B4CFD701ED91FC9104802D
:100AF000F581E02DC701099523CFF701828911ED1A
:100B0000823091F7950142E06681848195810E944F
:100B1000160C68EE73E080E090E00E94420AD70174
:100B20001F962C911F9740E016966C91169714967D
:100B30008D919C910E94A212182F8111D5CF68EE41
:100B400073E080E090E00E94420AF701418D60E08E
:100B5000C7010E948614182F8111C6CF20E040E003
:100B600060E0C7010E945C148EE291E09A83898361
:100B7000AE014F5F5F4F70E060E0C7010E94EC1371
:100B800081E0D70157968C93DBCE14EDD9CEF601D8
:100B900071826082A9CFCF93DF936091F801709149
:100BA000F9014091EC015091ED012091E00130916B
:100BB000E1018091D4019091D501E091A601F091DD
:100BC000A7016E177F07B1F4E091A401F091A50190
:100BD000E417F50779F4E091A201F091A301E2177F
:100BE000F30741F4E091A001F091A101E817F907A2
:100BF00009F4B3C07093A7016093A6015093A501B7
:100C00004093A4013093A3012093A2019093A101EA
:100C10008093A00188E0EAEDF2E0DF011D928A9561
:100C2000E9F72091F0013091F1014091F2015091EA
:100C3000F3016091F4017091F5018091F6019091BA
:100C4000F7010E9424032091E4013091E5014091D5
:100C5000E6015091E7016091E8017091E90180910E
:100C6000EA019091EB010E9424032091D801309178
:100C7000D9014091DA015091DB016091DC01709162
:100C8000DD018091DE019091DF010E94240320911B
:100C9000CC013091CD014091CE015091CF016091B6
:100CA000D0017091D1018091D2019091D3010E9425
:100CB000240381E08093D9020E949A0AEC0182E623
:100CC00092E00E940013CE010E94B20A853691057F
:100CD00060F09F938F9388EC91E09F938F930E9495
:100CE00016030F900F900F900F9082E692E00E94F3
:100CF000F70B90919F01891761F182E692E00E94C3
:100D0000F70B80939F011F928F9387EB91E09F9346
:100D10008F930E9416030F900F900F900F90809169
:100D20009F018039B1F480919E018230C9F48BE13A
:100D300091E09F938F938CEA91E09F938F930E9411
:100D400016030E9419210E9412220F900F900F90FB
:100D50000F9081E0DF91CF9108951092D902ACCF2E
:100D600080E291E0E6CF482F80E1489F9001112476
:100D7000205E31092830310508F59091DA02992377
:100D8000E9F0892F90E0ECEDF2E061E070E0219174
:100D9000243078F0322F32953F7034130AC02F7010
:100DA000DB0102C0AA0FBB1F2A95E2F79D018A2B27
:100DB000932BB2E0E23EFB0751F7089590E080E00C
:100DC000E2CF0895CF92DF92EF92FF920F93CF93ED
:100DD000DF931F92CDB7DEB7898380915F028823AE
:100DE00071F0CE0101966C01EE24E394F12C00E049
:100DF00022E040E060E088E492E00E942F148091BD
:100E00004502882371F0CE0101966C01EE24E39433
:100E1000F12C00E022E040E060E08EE292E00E94EF
:100E20002F1480912B02882371F0CE0101966C0162
:100E3000EE24E394F12C00E022E040E060E084E165
:100E400092E00E942F1480911102882371F0CE014C
:100E500001966C01EE24E394F12C00E022E040E0E6
:100E600060E08AEF91E00E942F140F90DF91CF9104
:100E70000F91FF90EF90DF90CF9008950E94972DF3
:100E80008091C905882331F00E94C02D882321F06C
:100E90000C94AB1C0C94CB050895FC017583648302
:100EA00084E391E09183808382E591E09383828360
:100EB000138A148A158A168A178A418F81E0828BD9
:100EC000118A178288E080878CE3818712861386D7
:100ED00084E0848715861686178661157105B1F042
:100EE000DB01AA5ABF4F90E080E02D913D91232B6A
:100EF00049F4DC019B96AA0FBB1FA60FB71FED9309
:100F0000FC93089501968031910579F708952E9A02
:100F100008952E988EBD0DB407FEFDCF1EBC0DB4F6
:100F200007FEFDCF0E9487078EB508952E98826038
:100F30008EBD0DB407FEFDCF6EBD0DB407FEFDCF17
:100F40000C94870788EC0E94890785FF14C060E233
:100F500088EC0E94960788EF0E948907807C909118
:100F600000019817E1F180930001803409F150F4F9
:100F7000882379F1089580919E01811130C064E049
:100F800088EEE7CF803819F0803C09F1089588EDAC
:100F90000E94890790919E0181FD11C09230F9F065
:100FA00061EC88ED0E94960782E080939E0108958F
:100FB00088ED0E94890790919E0181FDEFCF9330CB
:100FC00071F063EC88ED0E94960783E0EECF81E03C
:100FD000ECCF61EC88ED0E94960710929E01089577
:100FE0000F931F93CF93DF938C01269A0E9487075C
:100FF000219A229A2398209A80E58CBD81E08DBDAC
:10100000259868E188E80E94960760E288E70E94D8
:10101000960760E088E70E949607D0E0C0E088E687
:101020000E948907219680FF22C061EC88ED0E9412
:10103000960760E280ED0E94960764E088EE0E94C9
:10104000960788EE0E94890782FFFBCFC8010E94A5
:10105000A20760E288EC0E94960761E080E80E94A7
:10106000960780E0DF91CF911F910F910895CF3FB8
:10107000DC07A9F68FEFF6CF8091BC0581608093E5
:10108000BC0582E692E00E94F0078EEE91E090931C
:1010900056028093550282EE91E090933C02809339
:1010A0003B0286ED91E090932202809321028AEC2C
:1010B00091E090930802809307020895EF92FF92C7
:1010C0000F931F93CF93DF93EC017B018A0188A1DB
:1010D000823009F446C030F4882319F1813059F187
:1010E00081E032C0833009F442C08430C9F78AA15C
:1010F000843009F44CC0853009F46CC0823009F0AA
:101100008BC0A801B701CE0107960E9475188823ED
:10111000D1F08D898CA3CE0140969E838D8318A239
:10112000DFCF82E08C832D813E8138872F838A87B1
:10113000898781E088A3A801B701CE0107960E94A4
:101140007518811108C080E0DF91CF911F910F9138
:10115000FF90EF900895ED81FE81808189A38181C8
:101160008AA3CE0142969E838D8383E088A38AA1C1
:10117000843009F41BA289A182508C832D813E8189
:1011800038872F838A87898784E088A3B0CFA80116
:10119000B701CE0107960E9475188823A1F28D89A8
:1011A000833009F0B8CF8E89813009F0B4CF98A58B
:1011B0008F89992359F0882309F4ADCF91E09BA33F
:1011C0009A899EA39B899FA38DA3A5CF813009F007
:1011D000A2CFF4CFA801B701CE0107960E947518DF
:1011E000882309F4B0CF8BA1882309F494CF8A8196
:1011F0009B81009709F48FCFDC01ED91FC91019068
:10120000F081E02D7E01B0E1EB0EF11C0DA12FA1CC
:101210004EA16CA109957FCF8D85882341F0813047
:1012200069F08E859F85892B09F475CF8CCF89A1B4
:101230008250990B9F878E8781E08D878E859F8551
:101240000097A9F0F80120813181232B51F30197F8
:101250009F878E87D7018D919C91119701968D93D1
:101260009C9380819181019791838083E7CF1D8634
:10127000D8CF0F931F93CF93DF9300D000D0CDB77B
:10128000DEB78C017C836B835A8349838B819C817D
:10129000892B59F0AE014D5F5F4FBE016F5F7F4FED
:1012A000C8010E945E088111F1CF0F900F900F903E
:1012B0000F90DF91CF911F910F91089582E692E0F8
:1012C0000E94C70B40E062E672E088E492E00E9470
:1012D0004D0740E062E672E08EE292E00E944D0728
:1012E00040E062E672E084E192E00E944D0740E057
:1012F00062E672E08AEF91E00E944D0788E591E096
:101300009093EF018093EE019093E3018093E201CB
:101310009093D7018093D6019093CB018093CA011B
:1013200062E672E089EB91E00E94011762E672E0EA
:1013300088EA91E00C940117AF92BF92CF92DF92AE
:10134000EF92FF920F931F93CF93DF936C01CB012A
:10135000E22EDB01ED91FC910084F185E02D0995F1
:101360001F928F938AEF91E09F938F930E941603B1
:10137000E801E00EF12EF11C0F900F900F900F90EE
:1013800084EFA82E81E0B82ECE15DF0561F089919B
:101390001F928F93BF92AF920E9416030F900F90EF
:1013A0000F900F90F1CF81EF91E09F938F930E9468
:1013B00016030F900F90F8018281813099F487ED28
:1013C00091E09F938F930E9416030F900F90DF91EF
:1013D000CF911F910F91FF90EF90DF90CF90BF9032
:1013E000AF900895D601129688E001900D928A95EB
:1013F000E1F70E94400AD6011B967C936E931A97E0
:10140000E6CF089590E080E008958FEF9FEF089574
:1014100081E090E00895862F0E94961981E090E087
:101420000895EF92FF920F931F93CF93DF938A015A
:10143000EB017B01E40EF51ECE15DF0521F089914D
:101440000E949619F9CFC801DF91CF911F910F919A
:10145000FF90EF900895E2EEF2E01382128288EEA0
:1014600093E0A0E0B0E084839583A683B7838EE504
:1014700091E0918380838FEF9FEF95878487089514
:101480000C94A60A8F929F92AF92BF92CF92DF9256
:10149000EF92FF920E9442314B015C0120E030E06C
:1014A0004AE755E40E94F9316B017C0120E030E00D
:1014B00040E85FE30E94073187FD30C020E03FEF46
:1014C0004FE757E4C701B6010E94F4311816F4F44F
:1014D00020E030E040E251E4C501B4010E94F9315E
:1014E0000E94133120E931E06115710549F4FF9044
:1014F000EF90DF90CF90BF90AF909F908F90089526
:10150000C9010197F1F761507109EECFC701B6012A
:101510000E941331CB010197F1F7E9CF61E070E050
:10152000F9CF82E084BD93E095BD9AEF97BD80939B
:101530006E0008952FB7F894809132039091330391
:10154000A0913403B09135032FBF08952FB7F894BD
:10155000609132037091330380913403909135038D
:101560002FBF08959C014FB7F8948091320390915A
:101570003303A0913403B09135034FBF821B930B0B
:10158000089578941F920F920FB60F9211248F93A3
:101590009F93AF93BF938091320390913303A091B7
:1015A0003403B09135030196A11DB11D8093320320
:1015B00090933303A0933403B0933503BF91AF915D
:1015C0009F918F910F900FBE0F901F901895CF9302
:1015D000DF93FC0167FD12C0283080F4442319F02A
:1015E0008581873059F0EF01A1E0B0E08D85882337
:1015F00049F111962596A031B105C1F780E018C0D8
:1016000085E08A9FE0018B9FD00D1124CE0FDF1F54
:10161000442389F081E4888785818F5F858325E075
:101620002A9FC0012B9F900D1124E80FF91F808580
:10163000DF91CF91089581E08887F1CF2770687B93
:10164000622B0FC06623E1F26770660F660F660FAC
:101650004423A1F3606485818F5F85838770687FF1
:10166000682B25E02A9FC0012B9F900D1124E80FC5
:10167000F91F6087862FDCCFDF92EF92FF920F93E6
:101680001F93CF93DF93EC0185E0E62EF12CFE0152
:10169000869FE00DF11D1124908596FF24C0192F1F
:1016A000177001E085E0D82E8FEF800F8F3008F0A3
:1016B00001E0602F70E0062FD69EF001D79EF00D5E
:1016C0001124EC0FFD1F8085869586958695877081
:1016D000181701F16F5F7F4F603168F38D818113BF
:1016E00002C011501D8385E08E9DF0018F9DF00D8D
:1016F0001124EC0FFD1F108681E08187128622964F
:10170000D783C683DF91CF911F910F91FF90EF9008
:10171000DF900895CE010E943C0BC6CFFC0121E072
:10172000611102C0069608953585631739F02F5F61
:1017300035962031C9F790E080E00895069635E0AF
:10174000239F800D911D11240895FC0121E0613437
:1017500099F49C01255B3F4F61E0AC014E5F5F4F08
:101760001586668717865487438735962E173F0759
:10177000B9F7FC01158208953585631729F02F5FAD
:1017800035962031C9F70895622F0C943C0BFC016B
:1017900080E791E091838083108681E081871286C3
:1017A000CF01029697838683128228E023832CE35D
:1017B00024831582DF019F01255B3F4F41E01D9689
:1017C0001C921D971E964C931E971F961C921F9756
:1017D0001C969C938E931B971596A217B30779F7C7
:1017E000EA58FF4F108281E180933A030895809177
:1017F0003A030895CF93C42F0E948E0B009789F06F
:10180000DC01ED91FC911197309769F013969C9152
:1018100080E0981731F020812C1729F033968F5FE4
:10182000F8CFF0E0E0E0CF01CF9108950F931F9340
:10183000CF93DF932115310599F0E901042F162F7D
:101840000E948E0BFC0186ED309729F01283D18324
:10185000C083038380E0DF91CF911F910F910895A2
:1018600088EDF9CFCF92DF92FF920F931F93CF9322
:10187000DF93662381F1F62E8C016C0186E5C80E9C
:10188000D11CD0E0C0E0D6018D919D916D010097F3
:10189000F1F0DC01ED91FC910084F185E02D0995DA
:1018A0008F1115C0AB96CC0FDD1FC00FD11F8881E3
:1018B0009981DC01ED91FC910480F581E02DDF91AF
:1018C000CF911F910F91FF90DF90CF9009942196B7
:1018D000C031D105C1F680E0DF91CF911F910F910A
:1018E000FF90DF90CF9008952E980895CF93C82F42
:1018F0000E94740CCEBD0DB407FEFDCF1EBC0DB40E
:1019000007FEFDCF0E9487078EB5CF910895CF9334
:10191000DF93C82FD62F0E94740CC260CEBD0DB4C9
:1019200007FEFDCFDEBD0DB407FEFDCFDF91CF91E9
:101930000C948707AF92BF92CF92DF92EF92FF9203
:101940000F931F93CF93DF93EC01D62EC42E590132
:101950000E948E0B7C0186EDE114F104E1F1F701A8
:1019600080819181892B09F441C04C2D6D2DCE01D0
:101970000E94FA0BF501918380830097C9F1FC0165
:10198000228126952695203108F02FE081E090E015
:10199000A0E0B0E004C0880F991FAA1FBB1F2A95C2
:1019A000D2F70197F801918380836D2D80EE0E941C
:1019B000870C88ED0E94760CF7019481682F697F6F
:1019C000992329F0CA58DF4F68816260682B88ED3F
:1019D0000E94870C80E0DF91CF911F910F91FF90C3
:1019E000EF90DF90CF90BF90AF90089587EDF3CF49
:1019F0008BEDF1CF8F929F92AF92BF92CF92DF92F9
:101A0000EF92FF920F931F93CF93DF93862E942E26
:101A100059010E94400A6B017C0128E8C20E23E1B3
:101A2000D21EE11CF11CC0E010E000E0D0E09828DC
:101A30000E94400A6C197D098E099F0997FF1EC0FC
:101A4000692D80EF0E94870C0E94400A6C197D0965
:101A50008E099F0997FF09C088EC0E94760C87FFCA
:101A6000F3CF60E888EC0E94870C88EF0E94760C28
:101A7000C82FCF70C43081F0CE30B9F08C2FDF91F9
:101A8000CF911F910F91FF90EF90DF90CF90BF907B
:101A9000AF909F908F9008950F5F1F4FA114B104D6
:101AA00039F20A151B0521F6E9CFDF5FD33009F0C3
:101AB000BFCFE4CF9F92AF92BF92CF92DF92EF92CF
:101AC000FF920F931F93CF93DF936C01C42FD22FFC
:101AD00099249394E62EF12CEE0CFF1CE80EF91ECF
:101AE00086E5E80EF11CA42EB12CABE2AA0EB11CC7
:101AF000AA0CBB1CAC0CBD1CF70180819181DC01E0
:101B0000ED91FC910280F381E02D202F4D2F6C2F61
:101B10000995182F803EC9F5C1112BC061E088EEF0
:101B20000E94870C66E670E080E090E00E94420A26
:101B3000F70180819181DC01ED91FC910190F081B0
:101B4000E02D202F4D2F6C2F0995182F8D30D1F5BA
:101B50008FEF890D8330F8F0C11137C061E088EE56
:101B60000E94870C66E670E080E090E00E94420AE6
:101B70001CC0F50180819181DC01ED91FC91028412
:101B8000F385E02D6D2F0995D3CF8D3061F48FEF64
:101B9000890D833050F464E670E080E090E00E94AC
:101BA000420A9394A9CF882319F2812FDF91CF9114
:101BB0001F910F91FF90EF90DF90CF90BF90AF906B
:101BC0009F900895882389F3C7CF8C2F90E08B9640
:101BD000880F991F8C0D9D1DFC0180819181DC0176
:101BE000ED91FC910284F385E02D6D2F0995DDCFF9
:101BF0000F931F93CF93DF93D82FC62F8A010E9494
:101C0000740CD260DEBDF8018C2F882339F00DB43E
:101C100007FEFDCF91919EBD8150F7CFC00FD12F10
:101C2000D11D0DB407FEFDCF0E948707CE01DF91C5
:101C3000CF911F910F9108952F923F924F925F92F3
:101C40006F927F928F929F92AF92BF92CF92DF92CC
:101C5000EF92FF920F931F93CF93DF9300D000D0AA
:101C60001F92CDB7DEB77D836C835A016901FB01FA
:101C7000F1808FEF8F0D803408F0B5C00E94400ACC
:101C80002B013C01F8E84F0EF3E15F1E611C711C53
:101C9000EC81FD81828160E480FD60E888EE0E9435
:101CA000870C312C8F2D90E09A838983C114D10445
:101CB00009F475C0E980FA80CE14DF0408F47601D7
:101CC000EB82A8016E2D80E10E94F80D6E2D88E355
:101CD0000E94870CEC81FD816081606280EF0E9430
:101CE000870C88EC0E94760C87FFFBCF60E888ECBD
:101CF0000E94870C88EF0E94760C8F70382E912CF2
:101D0000812C212C3320F9F00E94400A64197509B6
:101D10008609970997FF17C0F6E03F16E9F02EE015
:101D20003216B1F084E0381209C09FEF891A990A7F
:101D3000A114B10489F08A149B0471F460E088E373
:101D40000E94870C2EC0CE18DF080E0D1F1DAECFCF
:101D50002394E3E02E1691F360E088E30E94870C61
:101D6000F801608180E10E94870C6B8188E30E940A
:101D7000870CEC81FD816081606280EF0E94870C9E
:101D800088EC0E94760C87FFFBCF60E888EC0E940D
:101D9000870C88EF0E94760C8F70382EB3CF3110ED
:101DA000CDCF88EF0E94760CEC81FD81928185FB7E
:101DB00090F99283832D0F900F900F900F900F90BA
:101DC000DF91CF911F910F91FF90EF90DF90CF9017
:101DD000BF90AF909F908F907F906F905F904F904B
:101DE0003F902F9008958AED382EE4CF2F923F92A6
:101DF0004F925F926F927F928F929F92AF92BF921B
:101E0000CF92DF92EF92FF920F931F93CF93DF93C6
:101E1000CDB7DEB729970FB6F894DEBF0FBECDBFA2
:101E20009C838B836B015E834D835901E982F901A9
:101E300080809180FB01F181FA83F9011182108287
:101E4000FB01828160E181FD60E288EE0E94870CE7
:101E50008F82F9814F2E512C712C612C2D813E8166
:101E6000F601408160E08B819C810E94FA0C382E43
:101E7000F6E08F1799F3811155C088EC0E94760C1B
:101E800082FF73C080E30E94760C282E8815190407
:101E900011F008F02F80F501808191819401281BB9
:101EA000390B3987288737FF02C019861886E22C3C
:101EB000F12C88859985E816F90614F4F986E886E8
:101EC00038840E94740C98E09EBD0DB407FEFDCFCF
:101ED000F801332041F01EBC3A940DB407FEFDCF4B
:101EE0008EB58193F6CFE885F9850E0F1F1F0E94EE
:101EF000870764E088EC0E94870CF501808191815E
:101F0000E80EF91EF182E082FA812F1618F0E8142B
:101F1000F90410F188EF0E94760CF601928184FB9F
:101F200091F99283832D29960FB6F894DEBF0FBEE8
:101F3000CDBFDF91CF911F910F91FF90EF90DF9078
:101F4000CF90BF90AF909F908F907F906F905F9059
:101F50004F903F902F900895F981FF2309F47ECF91
:101F6000C301B2010E94420A79CF80EF382EDACF46
:101F70002F923F924F925F926F927F928F929F9299
:101F8000AF92BF92CF92DF92EF92FF920F931F9387
:101F9000CF93DF93CDB7DEB761970FB6F894DEBF6E
:101FA0000FBECDBF3C01F42E322E202EC98A650112
:101FB0004EA05FA0A8A4B9A4188A1F861E861D86FD
:101FC0008E01035F1F4F9E01215F3F4F0E949A0CBD
:101FD000182F811177C039822A82EB8289898C83FC
:101FE000DE82CD8298868F82AE014F5F5F4F68E0C0
:101FF00080E20E94F80D2D853E854F2D60E1C301E2
:102000000E94FA0C182F81115DC0A114B10409F4CB
:1020100044C0EF85F889828137FE45C082608283A3
:102020006401C114D10409F46EC09C2D8D2D4C1493
:102030005D0410F4942D852D9B878C874D855E85DE
:102040006F857889E12C85019E01255F3F4FC30193
:102050000E94F60E182F863021F3811133C0AAA5F5
:10206000BBA5109799F06B857C85ED91FC9111973C
:102070000190F081E02DC4018C199D099A87898710
:102080009E01275F3F4FA501CD0109958B859C855A
:10209000C81AD90A8415950520F62D853E8537FE88
:1020A0002BC060EA2AC0816082834D855E858501F0
:1020B0009201BF01C3010E941C0E182F2D853E8581
:1020C0008823D1F0812F61960FB6F894DEBF0FBE42
:1020D000CDBFDF91CF911F910F91FF90EF90DF90D7
:1020E000CF90BF90AF909F908F907F906F905F90B8
:1020F0004F903F902F90089560E84F2DC3010E94AC
:10210000FA0C182FDFCF1111DDCF2D853E85C9CFF9
:102110008F929F92AF92BF92CF92EF920F931F93A5
:102120001F921F921F930F933F932F934901B12C3E
:10213000A12CCC24C394E12C06E020E80E94B80F27
:102140000F900F900F900F900F900F901F910F9185
:10215000EF90CF90BF90AF909F908F9008958F9207
:102160009F92AF92BF92CF92EF92FF920F931F92E6
:102170001F92FF92EF923F932F934901B12CA12C14
:1021800022E0C22EE02E06E020E80E94B80F0F9059
:102190000F900F900F900F900F900F91FF90EF9076
:1021A000CF90BF90AF909F908F9008954F925F9285
:1021B0006F927F928F929F92AF92BF92CF92DF9257
:1021C000EF92FF920F931F93CF93DF93CDB7DEB7BC
:1021D000C054D1090FB6F894DEBF0FBECDBF3C018D
:1021E000D62E542E422EC02ECE0101965C017C01CB
:1021F000022F29E030E0C3010E94AF1081111BC003
:102200008B809C801F93CF92BF92AF921F9280E4ED
:102210008F93B12CA12C82E0C82EE42C06E020E89C
:10222000452D6D2DC3010E94B80F0F900F900F9098
:102230000F900F900F90C05CDF4F0FB6F894DEBF89
:102240000FBECDBFDF91CF911F910F91FF90EF9007
:10225000DF90CF90BF90AF909F908F907F906F90C6
:102260005F904F9008958F929F92AF92BF92CF92BE
:10227000EF920F93CF931F921F921F921F921F9264
:102280001F92912C812CB12CA12CC12CE22E05E0A7
:1022900020E00E94B80FC82F6CE271E080E090E06F
:1022A0000E94420A0F900F900F900F900F900F9086
:1022B0008C2FCF910F91EF90CF90BF90AF909F90C8
:1022C0008F9008950F931F93CF93DF938A3F3FEF33
:1022D000930739F416ED812FDF91CF911F910F9164
:1022E0000895DC011696ED91FC9117EDEF2B99F313
:1022F000122F242FEC011A8740E00E94E70A082FD2
:102300008823B1F0682FCE010E948E0B009711F345
:10231000FC011483202F40E060E0CE010E943311C5
:10232000182F8823C1F2602FCE010E94A50BD3CFB6
:1023300014EDD1CF2F923F924F925F926F927F9286
:102340008F929F92AF92BF92CF92DF92EF92FF92C5
:102350000F931F93CF93DF93CDB7DEB768970FB678
:10236000F894DEBF0FBECDBF1B8A38E03C8B3CE348
:102370003D8B8A3F3FEF930709F4E2C0622E342E73
:10238000262E7C01DC011696CD90DC901797CE01AD
:10239000439617969C938E9316971A962C938E01BC
:1023A0000F5F1F4F22E130E040E060E0C7010E9474
:1023B0008810782EF701D782C68281115AC04984CD
:1023C0005A848B849C84FD81FF8B3E81388F67010A
:1023D00086E5C80ED11C56011E8AD5018D919D91AE
:1023E0005D010097B9F4BE89BF5FBE8BB031A9F71C
:1023F000F601819191916F01009709F061C073948A
:10240000F0E17F12F5CF262D432D622DC7010E94EA
:1024100062112FC0DC01ED91FC910084F185E02D6B
:1024200009958111E0CFF501929182918F01DC0134
:10243000ED91FC910088F189E02D688D0995882344
:1024400091F2F80180819181DC01ED91FC9104848D
:10245000F585E02DA401B2010995882319F1062D17
:10246000232D422D6E89C7010E945A0D813D09F42A
:10247000BACF68960FB6F894DEBF0FBECDBFDF911E
:10248000CF911F910F91FF90EF90DF90CF90BF9071
:10249000AF909F908F907F906F905F904F903F9004
:1024A0002F900895F80180819181DC01ED91FC91DC
:1024B0000684F785E02D6F8909958111D0CF93CFE0
:1024C000DC01ED91FC910084F185E02D09958111ED
:1024D00096CFF601929182918F01DC01ED91FC91F2
:1024E0000088F189E02D688D099581110DC0062DB8
:1024F000232D422D672DC7010E945A0D982F977FDB
:10250000913D09F0B6CF7BCFF80180819181DC014C
:10251000ED91FC910484F585E02DA401B2010995AB
:1025200081116DCFF80180819181DC01ED91FC91E9
:102530000684F785E02D6F8909958823C1F25FCF66
:1025400086ED97CF8F929F92AF92BF92CF92EF92EC
:102550000F931F921F921F921F921F921F92912CF6
:10256000812CB12CA12CC12CE22E09E020E00E948C
:10257000B80F0F900F900F900F900F900F900F913A
:10258000EF90CF90BF90AF909F908F9008958F92D3
:102590009F92AF92BF92CF92DF92EF920F931F93D1
:1025A000CF93DF9300D000D0CDB7DEB76C015901D7
:1025B00048011C821B821A8219828E010F5F1F4FF5
:1025C0009E012D5F3F4F0E949A0C811109C04981E5
:1025D0005A816B817C8184019501C6010E94F60EAF
:1025E0000F900F900F900F90DF91CF911F910F914F
:1025F000EF90DF90CF90BF90AF909F908F90089515
:10260000AF92BF92CF92DF92EF92FF920F931F9300
:10261000CF937C010E94A20780919E01813041F0FE
:1026200058F0823009F463C0833069F0C0E022C002
:1026300083E180933A03FACF80913A03807F80311F
:10264000A9F381E1F6CFC1E080913A03807F803128
:1026500089F40E94400A68537F4F8F4F9F4F6093C9
:10266000360370933703809338039093390380E2E5
:1026700080933A03670186E5C80ED11C5701A6E78F
:10268000AA0EB11C8601F801819191918F010097EA
:1026900039F0DC01ED91FC910680F781E02D099580
:1026A0000A151B0581F780913A03803409F45FC055
:1026B00000F5803209F445C0803309F452C08131FD
:1026C000B1F5F8011082D6018D919D916D010097B1
:1026D00039F0DC01ED91FC910480F581E02D099544
:1026E0000C151D0581F782E180933A0320C0C0E0FC
:1026F000ABCF813509F44EC0803809F45EC0803517
:10270000B1F488EC0E94760C86FF11C081E58093BD
:102710003A030E94400A6C507E4F8F4F9F4F609348
:102720003603709337038093380390933903CF9126
:102730001F910F91FF90EF90DF90CF90BF90AF90DF
:1027400008950E94400A00913603109137032091AA
:10275000380330913903601B710B820B930B97FD8B
:10276000E6CF61E088EE0E94870C80E4BDCF88EE62
:102770000E94760C80FDDBCF60E488EC0E94870C21
:1027800088ED0E94760C682F686088ED0E94870CA7
:1027900080E5AACF0E94400A0091360310913703CA
:1027A0002091380330913903601B710B820B930B1E
:1027B00097FDBDCF80E880933A032C2F40E060E086
:1027C000C7010E949A11882329F0823D09F4AFCFF6
:1027D00080EA8ACF80E988CF8F929F92AF92BF9292
:1027E000CF92EF920F93CF93DF93CDB7DEB7C05464
:1027F000D1090FB6F894DEBF0FBECDBF5F934F93E4
:102800009E012F5F3F4F3F932F931F9220E42F9302
:1028100020E8822E912C5B0132E2C32EE12C06E0EF
:1028200021E840E0FC016681848195810E94B80F17
:102830000F900F900F900F900F900F90C05CDF4F94
:102840000FB6F894DEBF0FBECDBFDF91CF910F91D1
:10285000EF90CF90BF90AF909F908F9008958F9200
:102860009F92AF92BF92CF92DF92EF92FF920F931F
:10287000A42EB12C1F921F92DF92CF92FF92EF9263
:102880004701C22EE02E09E021E2462FFC016681BD
:10289000848195810E94B80F0F900F900F900F9038
:1028A0000F900F900F91FF90EF90DF90CF90BF901F
:1028B000AF909F908F9008958F929F92AF92BF920A
:1028C000CF92EF920F93A62EB12C1F921F921F92C0
:1028D0001F921F921F92912C812CC22EE42E0AE08F
:1028E00021E240E0FC016681848195810E94B80F5D
:1028F0000F900F900F900F900F900F900F91EF90FF
:10290000CF90BF90AF909F908F9008958F929F929D
:10291000AF92BF92CF92EF920F93A62EB12C1F923F
:102920001F921F921F921F921F92912C812CC12CDB
:10293000E42E0BE021E240E0FC0166818481958178
:102940000E94B80F0F900F900F900F900F900F9064
:102950000F91EF90CF90BF90AF909F908F90089580
:1029600081E00895FC018285089581E0693009F0D5
:1029700080E00895CF93DF93EC018A819B81DC0195
:10298000ED91FC910480F581E02D6A8509958A8599
:10299000813439F4EA81FB81EA58FF4F80818B7FD3
:1029A00080831A861B861C861D861E861F86188AB3
:1029B00080E0DF91CF9108958F929F92AF92BF9266
:1029C000CF92EF920F93B22EA42E1F921F921F92BE
:1029D0001F921F921F92912C812CC12CE62E01E098
:1029E00023E240E0FC016285828193810E94B80F5E
:1029F0000F900F900F900F900F900F900F91EF90FE
:102A0000CF90BF90AF909F908F9008958F929F929C
:102A1000AF92BF92CF92EF920F93A62EB12C1F923E
:102A20001F923F932F935F934F934A01C12CE12C48
:102A300000E023EA40E0FC016285828193810E94EC
:102A4000B80F0F900F900F900F900F900F900F9165
:102A5000EF90CF90BF90AF909F908F9008958F92FE
:102A60009F92AF92BF92CF92EF920F93B22EA42E6D
:102A70001F921F921F921F921F921F92912C812CC6
:102A8000C12CE62E03E023E240E0FC016285828156
:102A900093810E94B80F0F900F900F900F900F909E
:102AA0000F900F91EF90CF90BF90AF909F908F902D
:102AB00008952F923F924F925F926F927F928F92E2
:102AC0009F92AF92BF92CF92DF92EF92FF920F93BD
:102AD0001F93CF93DF93CDB7DEB7E8970FB6F89487
:102AE000DEBF0FBECDBFDC011A963C9119ED31114E
:102AF00069C0122F242E362E3C01FC01C280D380E7
:102B0000D601ED91FC910190F081E02D60E0C601CD
:102B100009957C01009709F40BC1FC01A080B180EC
:102B2000A114B10409F406C14301F4E08F0E911C15
:102B3000DC0111969C928E9214961C93FE013196A4
:102B40002F018F0128E030E040E060E0D3011296D1
:102B50008D919C910E948810182FF7011482811189
:102B6000EBC08D8111ED893069F50981D601ED91B8
:102B7000FC910280F381E02D222D41E0632DC601FE
:102B80000995F301828714ED8823E1F098859583F8
:102B9000282F40E060E0828193810E943311182F3A
:102BA000D701AD92BC92882339F1D601ED91FC9109
:102BB0000480F581E02DD3011A966C91C601099528
:102BC000F3011286812FE8960FB6F894DEBF0FBE90
:102BD000CDBFDF91CF911F910F91FF90EF90DF90CC
:102BE000CF90BF90AF909F908F907F906F905F90AD
:102BF0004F903F902F900895011179C0940142E0C9
:102C0000F3016285828193810E94160C182F811135
:102C1000D9CF1F921F925F924F921F9288E08F939D
:102C200088E0882E912CB12CA12C99E2C92EE12CA0
:102C300006E020EA40E0F3016285828193810E94F0
:102C4000B80F182F0F900F900F900F900F900F90BC
:102C50008111B8CF8B81D3011B968C931B97720186
:102C600000E028E030E040E01A966C911A97129646
:102C70008D919C910E94AF10182F8111A3CF2B81B1
:102C80003C8140E0F3016285828193810E94AF1014
:102C9000182F811197CF298130E0CE0181967C01D8
:102CA00040E0D3011A966C911A9712968D919C91DF
:102CB0000E94AF10182F811185CF2E8140E0F301C3
:102CC0006285828193810E94A212182F81117ACF8E
:102CD00001E0D3011B968C911B978017E0F020E058
:102CE000402F68E0C3010E942F150F5FF2CF013221
:102CF00008F000E2202F30E0820140E0D3011A9674
:102D00006C911A9712968D919C910E948810182FA1
:102D1000811158CF73CF1296ED91FC911397EA5819
:102D2000FF4F80818460808381E050968C934ACFEE
:102D300016ED48CF17ED46CFB182A08243CFCF9298
:102D4000DF92FF920F931F93CF93DF9300D000D0B9
:102D5000CDB7DEB78C01F62E19821A821B821C8237
:102D600020E0462F61E10E94DC1420E04F2D60E15D
:102D7000C8010E94DC1420E04F2D64E0C8010E94CD
:102D80002F1583E0C82ED12C9E012F5F3F4F44E0CA
:102D900050E06F2DC8010E940615811114C0898171
:102DA0009A81AB81BC819D7F83309140A041B10568
:102DB00051F064E670E080E090E00E94420A81E019
:102DC000C81AD10809F720E04F2D64E1C8010E941C
:102DD000DC1420E04F2D60E1C8010E94DC1464E1A6
:102DE00070E080E090E00E94420A0F900F900F90F8
:102DF0000F90DF91CF911F910F91FF90DF90CF90B7
:102E00000895FC018AE791E0918380837383628354
:102E1000108A148288E085839CE3968391E09783EF
:102E2000808784E08187128613861486158616862D
:102E3000178661157105B1F0DB01AA5ABF4F90E00A
:102E400080E02D913D91232B49F4DC019B96AA0F44
:102E5000BB1FA60FB71FED93FC9308950196803119
:102E6000910579F70895EF92FF921F93CF93DF9327
:102E7000EC01162F7A01FA0180819181A281B38140
:102E80008130F3E09F07F1E0AF07B105D9F170F4AD
:102E90008115E1E09E07AE07B10509F453C081300A
:102EA0009140A140B10571F180E046C0833021E03E
:102EB000920720E1A207B10529F083309340A04199
:102EC000B10591F720E0412F64E1CE010E94DC14AE
:102ED00020E0412F60E1CE010E94DC1464E170E04B
:102EE00080E090E00E94420A6A85F70121812695E0
:102EF00021706770412F8A819B810E949A111092E4
:102F00003B03D2CF80913B038111CECF20E0412FF4
:102F100061E1CE010E94DC1420E0412F60E1CE018E
:102F20000E94DC1420E0412F64E0CE010E942F15A6
:102F300081E080933B0381EBDF91CF911F91FF9064
:102F4000EF90089520E0462F61E1CE010E94DC144D
:102F500020E0412F60E1CE010E94DC1410923B037F
:102F60006A8567701770660F660F660F612B8A811E
:102F70009B810E94320C98CFCF92DF92EF92FF920A
:102F80000F931F93CF93DF93CDB7DEB72E970FB676
:102F9000F894DEBF0FBECDBF6C0181E090E09E874C
:102FA0008D87E12C8E010F5F1F4F9E01235F3F4FE6
:102FB00041E0F6016285828193810E94C712082F49
:102FC000811123C082E0F82E11E089818F2169F1FF
:102FD00019861A861B861C869E01275F3F4F44E098
:102FE00050E0612FC6010E940615E82E81111DC018
:102FF000AE01475F5F4F612FC6010E943317813BCF
:1030000019F0882391F0E82E0E2D802F2E960FB602
:10301000F894DEBF0FBECDBFDF91CF911F910F910E
:10302000FF90EF90DF90CF900895FF0C1F5F183056
:1030300061F611E0F6018385811738F319861A8647
:103040001B861C869E01275F3F4F44E050E0612FA6
:10305000C6010E940615F82E811117C089859A8530
:10306000877091708130914081F48B859C8581605F
:103070009C878B87AE01475F5F4F612FC6010E941F
:103080003317813B29F0811102C01F5FD3CFF82E87
:103090000F2DBBCF0F931F93CF93DF93FC0120899C
:1030A000211107C010E0812FDF91CF911F910F9167
:1030B0000895EC010E94400A0C851D852E853F85F0
:1030C000601B710B820B930B97FDECCFCE010E941E
:1030D000BC17182F0E94400A6C597F4F8F4F9F4F8B
:1030E0006C877D878E879F87DECF0F931F93CF934B
:1030F000DF93FC018B01EA0180819181892B31F101
:103100009281992349F128813981232BF9F0D80143
:103110002D913C91D9014C918381682F691B770BCC
:1031200080819181860F971FDC014C9382818150B1
:10313000828388819981019799838883D8018D91B1
:103140009C91119701968D939C93DACF80E0DF914B
:10315000CF911F910F9108958381828381E0F7CFF2
:10316000809148040895CF93DF9300D01F92CDB78C
:10317000DEB72091CB05243021F523E029839B8302
:103180008A8382E08093E9008FEF9091E80081507C
:1031900095FD06C095ED9A95F1F700008111F5CFE8
:1031A0008091E80085FF0DC050E040E063E070E0F2
:1031B000CE0101960E94431D8091E8008E77809396
:1031C000E8000F900F900F90DF91CF910895CF936B
:1031D000DF9300D01F92CDB7DEB72091CB0524300E
:1031E00061F519821A821B8222E0298381389105B8
:1031F00020F0805891099B838A8382E08093E900C4
:103200008FEF9091E800815095FD06C095ED9A955D
:10321000F1F700008111F5CF8091E80085FF0DC026
:1032200050E040E063E070E0CE0101960E94431D53
:103230008091E8008E778093E8000F900F900F90B8
:10324000DF91CF9108952091CB05243049F522E0FC
:103250002093E9002FEF3091E800215035FD06C0A2
:1032600035ED3A95F1F700002111F5CF2091E800F6
:1032700025FF16C02091110150E040E063E070E0AE
:10328000222339F021E02093F10050E040E065E096
:1032900070E00E94431D8091E8008E778093E800E3
:1032A0000895CF93DF932091CB05243011F521E0D1
:1032B0002093E90021E8215021F03091E80035FF0A
:1032C0001BC02091E80025FF14C0EC0150E040E055
:1032D00068E070E00E94431D8091E8008E77809343
:1032E000E80088E0FE01A0E4B4E001900D928A9528
:1032F000E1F7DF91CF910895EFE3F1E03197F1F736
:1033000000C00000D8CFCF93C0913E03C1110BC0C5
:103310000E94A60A643C79408105910520F081E075
:1033200080933E03C1E08C2FCF910895FF920F93BD
:103330001F93CF93DF93D82F0FB607FE46C080911F
:10334000CB05843079F08091040190E001962091C2
:10335000060130E0822393232091050128171906E6
:1033600009F0D0C00E94831981110FC0809104011F
:1033700090E001962091060130E082239323209172
:1033800005012817190609F0BDC00E949A0A8C0190
:10339000C091E900CF708091EC0080FD37C080E0E3
:1033A000C82B83E08093E90085E0F82E8091EB0044
:1033B00085FD08C08091EB0080FF04C08091EE0085
:1033C00087FD44C0CF70C093E900E09104018E2FC7
:1033D00090E001962091060130E082239323209112
:1033E00005012817190609F486C080910201909101
:1033F0000301E80FF92FF11DD083809104018F5F45
:103400009091060189238093040175C080E8C8CF9C
:10341000E0910201F0910301E80FF11D90818F5FAF
:10342000209106018223809305019093F100809101
:10343000E80085FD0BC08091E80080FF07C0809107
:10344000E8008E778093E800F092010180910501F9
:1034500090910401981759F19091E80095FDD8CF0B
:1034600080E02CC01092F10035C08091040190E002
:1034700001962091060130E08223932320910501DB
:103480002817190609F09ECF80910101882309F4BD
:1034900099CF0E949A0A9C018017910709F486CF60
:1034A0009091010191509093010189017FCF80910A
:1034B000E80085FFD5CFD093F10081E02091F300A3
:1034C0009091F200322F292F232B79F09091E80070
:1034D00090FF0BC09091E80095FDC4CF9091E8005B
:1034E0009E779093E800F0920101882309F4BDCF04
:1034F000CF70C093E90080E0DF91CF911F910F91D1
:10350000FF900895E091040170CF8091CA05811168
:1035100004C00E94AE1F0C940B2008951092CA059F
:103520000895089542E061EC81E00E94C11C42E0F0
:1035300061EC82E00E94C11C42E261EC83E00C94E9
:10354000C11C8091CD05833009F452C030F4813024
:1035500059F1823009F4BDC008958A3009F4A8C039
:103560008B3009F47AC0893009F041C08091CC05D4
:103570008132E9F58091D0059091D105892BB9F57B
:103580008091E800877F8093E8008091E80082FFC7
:103590002AC08091F100809348048091E8008B77E5
:1035A0008093E8000C94F51C8091CC05813AF9F4E5
:1035B0008091E800877F8093E8008091D00590910A
:1035C000D105892B61F468E080E494E070E00E940A
:1035D000941D8091E8008B778093E800089560E067
:1035E00090E080E0F3CF8091CB058111CECF08959C
:1035F0008091CC05813AD9F78091D0059091D10581
:10360000892BA1F48091E800877F8093E800809166
:10361000E80080FFFCCF809112018093F10080913F
:10362000E8008E778093E8000E94F51C8091D00519
:103630009091D1050197D9F68091E800877F80931A
:10364000E8008091E80080FFFCCF80911101809319
:10365000F1008091E8008E77A3CF8091CC05813274
:1036600031F68091D0059091D105892B69F4809134
:10367000E800877F8093E8000E94F51C8091CE05CA
:10368000809312010E94BA238091D0059091D105B8
:10369000019709F0ACCF8091E800877F8093E80024
:1036A0000E94F51C8091CE05809311010C94BA23E1
:1036B0008091CC05813209F09ACF8091E800877F14
:1036C0008093E8000E94F51C8091CF058093490407
:1036D00008958091CC05813A09F089CF8091E80066
:1036E000877F8093E8008091E80080FFFCCF809185
:1036F0004904ADCF089508958091480480933F0315
:10370000109248040E9414220C94BA230C947C1B3F
:103710000E94D52D80913F038093480408950C9416
:10372000881B0895CF9384B7877F84BF0FB6F89422
:10373000A89580916000886180936000109260007D
:103740000FBE80E890E00FB6F894809361009093EC
:1037500061000FBE86E999E10E947B2D87E091E030
:103760000E94142184E292E00E947D020E947A1B52
:103770000E9467210E94AE1F0E940B2078940E9435
:1037800069218091CB05843009F047C082E192E045
:103790000E947D020E947B1B84E092E00E947D02D9
:1037A000C3E08091CB058530E9F10E94802D0E9415
:1037B0006D212091E4003091E50080913C039091CF
:1037C0003D032817390731F18091E4009091E5001D
:1037D00090933D0380933C030E9483198823D1F08A
:1037E0008091CB058430B1F49091E9009F70809175
:1037F000EC0080FD1AC080E0892BC093E900909115
:10380000EB0090FF04C09091EE0097FD2CC08F70EC
:103810008093E9000E94F820C4CF0E94F8200E9403
:10382000911BAFCF0E943E07BCCF80E8E5CFE0916F
:103830000201F0910301E90FF11D20819F5F30919A
:1038400006019323909305012093F1009091E800E5
:1038500095FD09C09091E80090FF05C09091E800A7
:103860009E779093E800909105012091040129171B
:1038700021F02091E80025FDDACF2091F30090910E
:10388000F200322F292F232B11F29091E80090FFA4
:10389000BECF9091E80095FD06C09091E8009E771C
:1038A0009093E800B4CF1092F100F3CF292F332783
:1038B0002330310579F158F421303105F1F022300F
:1038C000310519F190E080E030E020E01AC02132AB
:1038D000310599F122323105A9F76330710590F76E
:1038E000FB01EE0FFF1FE157FE4F2081318164572E
:1038F0007E4FFB01808190E004C082E190E026EFE2
:1039000032E0FA013183208308958BE590E02BE9C2
:1039100032E0F7CF99278130910561F028F00297C6
:1039200089F6E9E4F2E002C0E7E9F2E0849190E090
:103930009F01E7CFE7E8F2E0F9CF6330710508F0C7
:10394000C1CF660F771FFB01EB56FE4F20813181FF
:1039500089E090E0D6CF80E189BD82E189BD09B4DC
:1039600000FEFDCF8091D8008F7D8093D80080919C
:10397000E00082608093E0008091E00081FDFCCF58
:103980000895982F973028F08F708093E90081E098
:1039900008959093E900242F762F50E0981731F086
:1039A0007091EC002091ED005091F00021FD02C0DB
:1039B0009F5FE8CF3091EB003E7F3093EB0030917A
:1039C000ED003D7F3093ED003091EB00316030939E
:1039D000EB007093EC002093ED005093F0002091E9
:1039E000EE0027FDE5CF80E008958091CC0587FFAC
:1039F00013C08091E80082FF06C08091E8008B77B9
:103A00008093E80004C08091CB058111F2CF089526
:103A10008091CB058823D9F38091E80080FFF8CF0F
:103A20008091E8008E77ECCF2091E4003091E500A2
:103A300085E69091EC0090FF06C09091E80090FF21
:103A400006C080E008959091E80092FDFACF909131
:103A5000CB05992391F0953091F09091EB0095FD75
:103A600010C04091E4005091E5002417350709F398
:103A700081509A01F1F684E0089582E0089583E090
:103A8000089581E00895AF92BF92CF92DF92FF92A6
:103A90000F931F93CF93DF936C01EB018A010E9478
:103AA000141DF82E811125C00115110539F0F801FA
:103AB00080819181C81BD90BC80ED91EB12CA12CB5
:103AC0002097B9F08091E80085FD24C08091E8003E
:103AD0008E778093E8000E94F82001151105A1F06F
:103AE000F80180819181A80EB91EB182A08285E083
:103AF000F82E8F2DDF91CF911F910F91FF90DF90C6
:103B0000CF90BF90AF9008950E94141D8823C1F2FA
:103B1000F82EEFCFF60181916F018093F10021978C
:103B2000FFEFAF1ABF0ACCCFFC018091D205909174
:103B3000D30586179707A0F06115710529F49091B8
:103B4000E8009E779093E80090E06115710551F4CC
:103B5000911108C08091E80082FF35C080E008958F
:103B6000BC01F2CF8091CB058823C9F18530C9F122
:103B70008091E80083FD31C08091E80082FDEACFAA
:103B80008091E80080FFE1CF2091F3008091F20066
:103B9000322F282F6115710519F02830310558F0A2
:103BA00091E02830310509F090E02091E8002E776F
:103BB0002093E800CACF81918093F1006150710990
:103BC0002F5F3F4FE7CF8091CB05882341F08530B1
:103BD00041F08091E80083FFBDCF81E0089582E04D
:103BE000089583E00895FC018091D2059091D3055A
:103BF00086179707A0F06115710529F48091E800F8
:103C00008E778093E80090E06115710551F4911171
:103C100008C08091E80082FF36C080E00895BC01B2
:103C2000F2CF8091CB058823D1F18530D1F18091FD
:103C3000E80083FD32C08091E80082FDEACF8091E8
:103C4000E80080FFE1CF2091F3008091F200322F55
:103C5000282F6115710519F02830310558F091E0D1
:103C60002830310509F090E08091E8008E7780934C
:103C7000E800CACF84918093F100319661507109B8
:103C80002F5F3F4FE6CF8091CB05882341F08530F1
:103C900041F08091E80083FFBCCF81E0089582E08D
:103CA000089583E008951F93CF93DF93CDB7DEB7D8
:103CB000AA970FB6F894DEBF0FBECDBFECECF5E0CF
:103CC0008091F100819325E0E43DF207C9F70E945D
:103CD000A11A8091E80083FF44C08091CC059091A7
:103CE000CD059A3008F03DC0E92FF0E0E658F14EDE
:103CF0000C947A32841EAA1EB11EAA1EB11E081F81
:103D00002A1FB11E811F8E1F803889F0823849F525
:103D10008091D0058F70873020F58093E9008091E5
:103D2000EB0085FB882780F91092E90006C080919E
:103D3000C8059091C905911182609091E800977F24
:103D40009093E8008093F1001092F1008091E800D8
:103D50008E772DC0282F2D7F21F48823D1F082303B
:103D600059F18091E80083FF0AC08091E800877FC5
:103D70008093E8008091EB0080628093EB00AA962C
:103D80000FB6F894DEBF0FBECDBFDF91CF911F916C
:103D900008958091CE05813021F7933009F080E0BD
:103DA0008093C9051092E9008091E800877F809395
:103DB000E8000E94F51CD5CF8091CE058111F2CF8D
:103DC0008091D0058F702FEF280F263050F680930A
:103DD000E9002091EB0020FFE5CF933031F4809192
:103DE000EB0080628093EB00DDCF9091EB0090615F
:103DF0009093EB0021E030E001C0220F8A95EAF7B2
:103E00002093EA001092EA008091EB008860EACFEC
:103E10008111A7CF1091CE051F778091E3008078A4
:103E2000812B8093E3008091E800877F8093E800F6
:103E30000E94F51C8091E80080FFFCCF8091E30098
:103E400080688093E30083E0111101C082E08093D9
:103E5000CB0587CF8058823008F083CF8091CE0584
:103E60009091CF058C3D23E09207A1F583E08A83F2
:103E70008AE289834FB7F894DE01139620E03EE092
:103E800051E2E32FF0E050935700E49120FF03C08C
:103E9000E295EF703F5FEF708E2F90E0EA30C0F058
:103EA000C7968D939D932F5F243159F74FBF809113
:103EB000E800877F8093E8006AE270E0CE01019617
:103EC0000E94941D8091E8008B778093E80049CF91
:103ED000C096E7CF6091D0057091D105AE014F5FDC
:103EE0005F4F0E94561CBC01892B09F43ACF909178
:103EF000E800977F9093E80089819A810E94F31DE2
:103F0000E1CF803809F02DCF8091E800877F809342
:103F1000E8008091C7058093F10018CF811121CF6F
:103F20009091CE05923008F01CCF8091E800877FF9
:103F30008093E8009093C7050E94F51C8091C70507
:103F4000882331F084E08093CB050E94921A09CF38
:103F50008091E30087FDF6CF81E0F5CF0E941C2021
:103F60000E942420E0EEF0E0808181608083E8ED13
:103F7000F0E080818F77808319BCA7EDB0E08C9151
:103F80008E7F8C9380818F7E80831092CA050895E6
:103F90000F931F93CF93DF930E941C200E94242035
:103FA000C8EDD0E088818F77888388818068888396
:103FB00088818F7D888319BC1092CB051092C7052C
:103FC0001092C9051092C80500EE10E0F80180813A
:103FD0008B7F808388818160888342E060E080E01D
:103FE0000E94C11CE1EEF0E080818E7F8083E2EED2
:103FF000F0E0808181608083808188608083F80127
:1040000080818E7F8083888180618883DF91CF91DA
:104010001F910F910895E8EDF0E080818F7E8083FD
:10402000E7EDF0E080818160808384E082BF81E001
:104030008093CA050C94C81FE8EDF0E080818E7F64
:1040400080831092E20008951092DA001092E1004D
:1040500008951F920F920FB60F9211242F933F9342
:104060004F935F936F937F938F939F93AF93BF9380
:10407000EF93FF938091E10082FF0BC08091E200FB
:1040800082FF07C08091E1008B7F8093E1000E9456
:10409000F7208091DA0080FF19C08091D80080FF5E
:1040A00015C08091DA008E7F8093DA008091D9006C
:1040B00080FF8FC080E189BD82E189BD09B400FE27
:1040C000FDCF81E08093CB050E94851A8091E100AD
:1040D00080FF19C08091E20080FF15C08091E2004E
:1040E0008E7F8093E2008091E20080618093E20005
:1040F0008091D80080628093D80019BC85E08093BD
:10410000CB050E94861B8091E10084FF29C080912D
:10411000E20084FF25C080E189BD82E189BD09B448
:1041200000FEFDCF8091D8008F7D8093D8008091D4
:10413000E1008F7E8093E1008091E2008F7E80938A
:10414000E2008091E20081608093E2008091C705E7
:10415000882309F444C084E08093CB050E948F1B20
:104160008091E10083FF24C08091E20083FF20C0A2
:104170008091E100877F8093E10082E08093CB050E
:104180001092C7058091E1008E7F8093E1008091BD
:10419000E2008E7F8093E2008091E2008061809354
:1041A000E20042E060E080E00E94C11C0E94911A9F
:1041B000FF91EF91BF91AF919F918F917F916F91FF
:1041C0005F914F913F912F910F900FBE0F901F90D5
:1041D000189519BC1092CB050E948E1A77CF80914A
:1041E000E30087FD02C081E0B7CF83E0B5CF08953B
:1041F000CF938091CB05882399F0C091E900CF70CF
:104200008091EC0080FD0EC080E0C82B1092E90088
:104210008091E80083FD0E94531ECF70C093E90097
:10422000CF91089580E8F1CF90934F0480934E048E
:104230000895E0914E04F0914F04309721F00190E1
:10424000F081E02D099480E00895E0914E04F09112
:104250004F04309721F00280F381E02D09940895F6
:10426000E0914E04F0914F04309721F00480F581E5
:10427000E02D0994089520914C0430914D042817A5
:10428000390771F090934D0480934C04E0914E04F3
:10429000F0914F04309721F00680F781E02D0994CA
:1042A000089520914A0430914B042817390771F082
:1042B00090934B0480934A04E0914E04F0914F0494
:1042C000309721F00084F185E02D099408950C9435
:1042D00015220E94910A0C943C088F929F92AF92F3
:1042E000BF92CF92DF92EF92FF920F931F93CF93E3
:1042F000DF9300D000D01F92CDB7DEB70E94CB0570
:1043000021E5E22E24E0F22E10E0812F0E94B30678
:104310004C01F701A080B180A816B906C9F18091BF
:10432000BC0581FD0E94E10600E0CC24C394D12CA1
:10433000A824B924C5018C219D21892B21F1098351
:104340001A8321E0C4018C219D21892B09F420E0EE
:104350002B830E949A0A8160782F9D838C834981E8
:104360005A816B818D810E94182249815A816B810B
:104370007C818D810E94822DF701808191818C2525
:104380009D25918380830F5FCC0CDD1C003191F65D
:104390001F5FF2E0EF0EF11C103109F0B6CF8FEF86
:1043A00089838A831B820E949A0A8160782F9D8369
:1043B0008C8349815A816B818D810E9418220E94D1
:1043C000812D0E9459300E94192190915004891723
:1043D000B9F00E941921809350040F900F900F9014
:1043E0000F900F90DF91CF911F910F91FF90EF9061
:1043F000DF90CF90BF90AF909F908F900C94932DB3
:104400000F900F900F900F900F90DF91CF911F9111
:104410000F91FF90EF90DF90CF90BF90AF909F9063
:104420008F9008950C94E2060895089508950895D4
:10443000CF93DF93CDB7DEB72B970FB6F894DEBFDF
:104440000FBECDBF942F4F83252F588769877A875A
:104450008B874A855B8581E0452B31F02F3F19F42E
:1044600081E09F3F09F080E080FD07C04F815885C3
:1044700069857A858B850E94822D1E821D8285E04A
:10448000FE013796DE01119601900D928A95E1F7B3
:1044900049815A816B817C818D819E812B960FB6DB
:1044A000F894DEBF0FBECDBFDF91CF910C94E4290D
:1044B000CF93DF93882309F4E6C09EE7980F9330EB
:1044C00020F5C2E0D9E3823831F0C4E0D7E4833884
:1044D00011F4C1E0D3E50E9419218C2309F0D3C067
:1044E0008D2F0E94DA2C0E94552D2FEF81EE94E043
:1044F000215080409040E1F700C000008D2F0E94C5
:10450000F72CDF91CF910C94552D9CEF980F913A99
:1045100018F40E94DA2CF5CF90E2980F983050F4FE
:10452000877091E001C0990F8A95EAF7892F0E9460
:104530001A2DE7CF9BE5980F933080F4853A41F030
:10454000863A49F083E890E0DF91CF910C943B21CB
:1045500081E890E0F9CF82E890E0F6CF98E5980FF7
:10456000973108F090C0883A09F448C0893A09F4B4
:1045700048C08A3A09F448C08B3A09F448C08C3ADA
:1045800009F448C08D3A09F448C08E3A09F448C08D
:104590008F3A09F448C0813B09F448C0803B09F4D4
:1045A00048C0823B09F448C0833B09F448C0843BBF
:1045B00009F448C0853B09F448C0863B09F448C06B
:1045C000873B09F448C0883B09F448C0893B09F49B
:1045D00048C08A3B09F448C08B3B09F448C08C3B77
:1045E00009F448C08D3B09F448C08E3B09F448C02B
:1045F00090E080E0DF91CF910C94512182EE90E029
:10460000F9CF89EE90E0F6CF8AEE90E0F3CF85EB1C
:1046100090E0F0CF86EB90E0EDCF83EB90E0EACF37
:1046200084EB90E0E7CF87EB90E0E4CF8CEC90E078
:10463000E1CF8DEC90E0DECF83E891E0DBCF8AE83C
:1046400091E0D8CF82E991E0D5CF84E991E0D2CF53
:1046500081E292E0CFCF83E292E0CCCF84E292E09D
:10466000C9CF85E292E0C6CF86E292E0C3CF87E26F
:1046700092E0C0CF8AE292E0BDCF8FE690E0BACF61
:1046800080E790E0B7CFDF91CF910895CF93DF938C
:10469000882309F44CC09EE7980F933018F5C2E0C8
:1046A000D9E3823831F0C4E0D7E4833811F4C1E0B3
:1046B000D3E50E9419218C23D1F18D2F0E94DA2C91
:1046C0000E94552D2FEF81EE94E0215080409040C4
:1046D000E1F700C000008D2F0E94F72CDF91CF91F1
:1046E0000C94552D9CEF980F913AB0F390E2980FEF
:1046F000983050F4877091E001C0990F8A95EAF7DD
:10470000892F0E94202DEACF9BE5980F933030F43B
:1047100090E080E0DF91CF910C943B21885A873163
:1047200030F490E080E0DF91CF910C945121DF9143
:10473000CF910895882321F00E941A2D0C94552DB5
:104740000895882321F00E94202D0C94552D089562
:104750000E943C2D0E94092D0E94552D0E94FB3085
:104760000E94CC2F90E080E00E943B2190E080E00E
:104770000C9451210E942B2D0C94A823AF92BF9230
:10478000CF92DF92EF92FF920F931F93CF93DF931D
:1047900000D000D01F92CDB7DEB75C010E94952DEE
:1047A0008111E1C085E0F501DE01119601900D92C5
:1047B0008A95E1F7F501408151812381348181E0BF
:1047C0002115310531F05F3F19F481E04F3F09F0C9
:1047D00080E080FDC8C0F501F280E580E2946FE0E2
:1047E000E62249835A83FB82722F3D832C836F2DEF
:1047F0008D810E94312C8C010E94302C0E942C2B28
:10480000E12FE295EF70F0E0E85FFB4D0C947A3217
:104810001824182455245524E6241B25B324B32436
:104820003425B32420262026DE26B324F526162799
:10483000F12FFF70EF2E107F19F0E29490EFE92234
:10484000FF20C9F0EE2029F08E2D0E942E2D0E940F
:10485000552D802F0F900F900F900F900F90DF919C
:10486000CF911F910F91FF90EF90DF90CF90BF906D
:10487000AF900C945822802F0E944623EE2009F41A
:1048800072C08E2D0E94342D0F900F900F900F90BC
:104890000F90DF91CF911F910F91FF90EF90DF90DC
:1048A000CF90BF90AF900C94552D212F2F70D22E0A
:1048B000107F103219F0D29480EFD822002379F0C3
:1048C000013009F460C0FF2009F46CC0EE2059F0FB
:1048D000F501858180FFC2C18F70858304C0FF20F0
:1048E00049F1E11012C08D2D0F900F900F900F9095
:1048F0000F90DF91CF911F910F91FF90EF90DF907C
:10490000CF90BF90AF900C949A2381E0E812EBCF48
:104910008D2D0F900F900F900F900F90DF91CF91F2
:104920001F910F91FF90EF90DF90CF90BF90AF90CD
:104930000C943F2DE11014C00E94422D8D2D0F903C
:104940000F900F900F900F90DF91CF911F910F91CB
:10495000FF90EF90DF90CF90BF90AF900C94A12389
:1049600091E0E912E9CF0F900F900F900F900F9008
:10497000DF91CF911F910F91FF90EF90DF90CF903B
:10498000BF90AF900895FF2049F0E5E0EE1558F391
:104990000E94172D8D2109F4A6CFD0CFF4E0FE158B
:1049A00010F3CCCFEE2051F2802F0F900F900F908C
:1049B0000F900F90DF91CF911F910F91FF90EF908B
:1049C000DF90CF90BF90AF900C944623812F8695B7
:1049D00086958370C9F0813031F6C8019370F1106B
:1049E00002C090E080E00F900F900F900F900F901A
:1049F000DF91CF911F910F91FF90EF90DF90CF90BB
:104A0000BF90AF900C945121C8019370F11002C077
:104A100090E080E00F900F900F900F900F90DF913B
:104A2000CF911F910F91FF90EF90DF90CF90BF90AB
:104A3000AF900C943B21802FFF2099F00E94E02E34
:104A40000F900F900F900F900F90DF91CF911F91CB
:104A50000F91FF90EF90DF90CF90BF90AF900C94AC
:104A6000CC2F0E94482FECCF812F837009F071C0AA
:104A7000F11079CF202F229526952770220F220F33
:104A8000602F6F70C62ED12CF12CE12C022E04C0A9
:104A9000CC0CDD1CEE1CFF1C0A94D2F760E070E029
:104AA000CB0104FF0FC06FE070E080E090E004C035
:104AB000660F771F881F991F2A95D2F7609570950A
:104AC000809590951695169513701230C1F060F58B
:104AD0006C297D298E299F29113051F10F900F905B
:104AE0000F900F900F90DF91CF911F910F91FF903A
:104AF000EF90DF90CF90BF90AF900C94472B6C2934
:104B00007D298E299F290F900F900F900F900F9065
:104B1000DF91CF911F910F91FF90EF90DF90CF9099
:104B2000BF90AF900C94612B0E94472BC701B60138
:104B30000F900F900F900F900F90DF91CF911F91DA
:104B40000F91FF90EF90DF90CF90BF90AF900C94BB
:104B50002D2B8695FF2011F0812F8170882309F479
:104B600002CF202F229526952770220F220F602F2B
:104B70006F70C62ED12CF12CE12C022E04C0CC0C6F
:104B8000DD1CEE1CFF1C0A94D2F760E070E0CB0144
:104B900004FF0FC06FE070E080E090E004C0660F9B
:104BA000771F881F991F2A95D2F760957095809579
:104BB00090951695169513701230C1F060F56C291A
:104BC0007D298E299F29113051F10F900F900F9060
:104BD0000F900F90DF91CF911F910F91FF90EF9069
:104BE000DF90CF90BF90AF900C940C2C6C297D2956
:104BF0008E299F290F900F900F900F900F90DF91AB
:104C0000CF911F910F91FF90EF90DF90CF90BF90C9
:104C1000AF900C941E2C0E940C2CC701B6010F9073
:104C20000F900F900F900F90DF91CF911F910F91E8
:104C3000FF90EF90DF90CF90BF90AF900C94FA2B45
:104C4000003F09F453C0D0F480E4800F803298F123
:104C5000FF2009F4AEC0EE2009F4A8C0802F0E9406
:104C60005822093309F09BC0FFEF21EE84E0F15098
:104C700020408040E1F700C0000075CE023F09F4FB
:104C800068C008F451C0033F19F7FF2009F476C04B
:104C9000812F8F710F900F900F900F900F90DF91D9
:104CA000CF911F910F91FF90EF90DF90CF90BF9029
:104CB000AF900C94802BC02E812F8F71102F10710C
:104CC000FF2051F00E94952B8C2D8295807F111131
:104CD0000BCE802F8F7008CE0E94B62B8C2D829524
:104CE000807F11112CCE802F8F7029CEFF20B9F03C
:104CF00094E09E1508F437CE812F8F710F900F909E
:104D00000F900F900F90DF91CF911F910F91FF9017
:104D1000EF90DF90CF90BF90AF900C94D92BE5E04F
:104D2000EE1508F420CEE8CF812F8F71FF20A9F077
:104D30000F900F900F900F900F90DF91CF911F91D8
:104D40000F91FF90EF90DF90CF90BF90AF900C94B9
:104D5000952B812F8F71FF2059F30F900F900F909B
:104D60000F900F90DF91CF911F910F91FF90EF90D7
:104D7000DF90CF90BF90AF900C94B62B0F900F9018
:104D80000F900F900F90DF91CF911F910F91FF9097
:104D9000EF90DF90CF90BF90AF900C947B2B0335BA
:104DA00009F462CF073409F0DECD5ECF812F8F7119
:104DB000BFCFE110F9CD812F8F71CFCF412F4F7031
:104DC000602FC5010E94592E0F900F900F900F90E9
:104DD0000F90DF91CF911F910F91FF90EF90DF9097
:104DE000CF90BF90AF900C948D2A0111BCCDFF20C5
:104DF00009F4B9CD0E94BA23FFEF20E782E0F15019
:104E000020408040E1F700C000000F900F900F900D
:104E10000F900F90DF91CF911F910F91FF90EF9026
:104E2000DF90CF90BF90AF900C94022E412F4F7027
:104E3000602FC5010F900F900F900F900F90DF9192
:104E4000CF911F910F91FF90EF90DF90CF90BF9087
:104E5000AF900C945C2E1F93CF93DF9300D000D0C3
:104E60001F92CDB7DEB7942F4983252F5A836B83CA
:104E70007C838D834C815D8181E0452B31F02F3F18
:104E800019F481E09F3F09F080E0182F117080FD38
:104E90002CC049815A816B817C818D810E94312C8B
:104EA000292F22952F702C3078F42A30A8F4225024
:104EB0002230C8F0812F0F900F900F900F900F901D
:104EC000DF91CF911F9108952C3011F02F3091F781
:104ED00093FB112710F9EECF803C28F0803E50F371
:104EE000815F833038F311E0E5CF10E0E3CFCF935B
:104EF000DF9300D000D01F92CDB7DEB70F900F9098
:104F00000F900F900F90DF91CF910895CF93DF9383
:104F100000D000D000D0CDB7DEB726960FB6F894FB
:104F2000DEBF0FBECDBFDF91CF9108951F93CF930A
:104F3000DF93C091710416E0809172048C1304C059
:104F4000DF91CF911F910895D0E01C9FF0011D9F2C
:104F5000F00D1124ED58FB4F408151816281738126
:104F6000848195810E9486272196C770E5CF409164
:104F7000A3045091A4046091A5047091A6048091AB
:104F8000A7049091A8040C9486270F931F93CF93A6
:104F9000DF938091A804807FB9F48091A5048823D1
:104FA00099F080917104109172046091A304709142
:104FB000A404C091A604D091A70421E06F3F09F09A
:104FC00020E006E0181305C0DF91CF911F910F91EB
:104FD000089531E0209721F0322F7F3F09F030E033
:104FE00090E030FD33C0089FF001099FF00D1124BF
:104FF000DF01AD58BB4F11963C911197371326C076
:105000003C91361323C012963C91129731111EC069
:1050100013964D915C914C1B5D0B483C5105B0F4CF
:105020008091A8048F7080618093A804E858FB4F9A
:1050300080818F708061808383EA94E00E94BE2328
:10504000DF91CF911F910F910C9496270196877055
:10505000B9CF9F92AF92BF92CF92DF92EF92FF9221
:105060000F931F93CF93DF93CDB7DEB761970FB642
:10507000F894DEBF0FBECDBF8C0185E0F801DE01E4
:105080001D9601900D928A95E1F7F80140815181BA
:10509000F280C380D4809091A3046091A4042091F5
:1050A000A6043091A70481E02115310531F06F3F4E
:1050B00019F481E09F3F09F080E0F82FF1709F2EF6
:1050C00080FD70C183EAA82E84E0B82EE090A5048C
:1050D000F601E21BF30BEE2009F40EC18091A80447
:1050E000782F707FE83CF10508F0BEC0711183C0D5
:1050F000EF2C651324C0941322C0F11020C08F70D0
:1051000080618093A8040E94B727C5010E94BE2336
:105110008091A804F80185838E2D61960FB6F894CE
:10512000DEBF0FBECDBFDF91CF911F910F91FF90DA
:10513000EF90DF90CF90BF90AF909F90089581E067
:10514000C114D10431F05F3F19F481E04F3F09F001
:1051500080E080FD24C081E08F25F82FF170BF2E04
:1051600080FF3FC0809171042091720436E0821369
:1051700018C07C2DD98AC88A6F2D89890E94312C4C
:10518000292F22952F70223000F1243028F59F70AE
:1051900001F1F8019581907FE1F4E92CBDCF80E029
:1051A000DCCF90E0389FF001399FF00D1124ED58CD
:1051B000FB4F6181561306C06081461303C06281B4
:1051C0006F110FC001968770D2CF9F7011F08823A6
:1051D00021F3805E883008F3C8010E94BE239B2C17
:1051E000DCCFFF2009F498CF8091A80481608093E0
:1051F000A804E12C91CF651306C0941304C0F801F4
:10520000FF2009F495C04D875E87FF867C2DD98AE3
:10521000C88A6F2D89890E942B27882309F4D0C062
:10522000FF2009F4CDC08091A804803270F0209155
:10523000A3043091A40438872F831986DB86CA869D
:105240008C87CE0107960E94BE2386E0F801A3EA70
:10525000B4E001900D928A95E1F70E94C5270E9463
:10526000B727EE24E39458CF711113C07C2DD98A4F
:10527000C88A6F2D89890E94772783EA94E00E946B
:10528000BE2386E0F50111928A95E9F70E94B727BF
:10529000B0CF65130FC094130DC0F1100BC0F8010F
:1052A0008583C8010E94BE2386E0F50111928A958C
:1052B000E9F732CF4D875E87FF867C2DD98AC88A71
:1052C0006F2D89890E942B27882309F479C0FF203C
:1052D00009F476C08091A804803208F4B6CF2091FA
:1052E000A3043091A4043A8329831B82DD82CC82FB
:1052F0008E83CE010196A7CFE83CF10508F045C0AA
:10530000EF2CFF2009F45CC065132AC0941328C059
:105310008091A80480FD1BC0982F907FC1F0F801F8
:105320008583903F31F0982F907F905F8F70892B0D
:105330008583C8010E94BE2386E0F801A3EAB4E099
:1053400001900D928A95E1F70E94B727E5CE86E09D
:10535000F801A3EAB4E001900D928A95E1F7DCCE62
:105360004D875E87FF867C2DD98AC88A6F2D8989F3
:105370000E942B27811169CF8091A80481608093BE
:10538000A804C8010E94BE23C7CE7C2DD98AC88A32
:105390006F2D89890E94772786E0F50111928A9501
:1053A000E9F7D2CFFF2061F04D875E87FF867C2D25
:1053B000D98AC88A6F2D89890E942B27811145CFF0
:1053C000C8010E94BE234DCF1F93CF93DF93CDB76B
:1053D000DEB72C970FB6F894DEBF0FBECDBF4F835C
:1053E000588769877A878B879C87CE0107960E94AA
:1053F0002928882309F442C09F8188852A853B8516
:10540000232B39F08F3F19F481E09F3F19F080E0A2
:1054100001C081E080FD08C04F81588569857A858B
:105420008B859C850E94862716E08091710490915F
:105430007204891709F467C0819FC00111248D5837
:105440009B4F0E942928882309F45DC0E0917104D4
:105450001E9FF0011124ED58FB4F40815181628164
:105460007381848195810E9486278091710490E0E8
:1054700001968770992780937104D7CF86E0FE014B
:105480003796DE01119601900D928A95E1F79F8182
:1054900088852A853B85232B39F08F3F19F481E0DD
:1054A0009F3F19F080E001C081E080FDBDCF2091D9
:1054B000720430E0C9010196877099274091710408
:1054C0004817190699F096E0929FD001939FB00D6E
:1054D0001124AD58BB4FFE01319601900D929A9563
:1054E000E1F7809372040E9496279ECF0E94BA2310
:1054F000109272041092710486E0E3EAF4E0DF0196
:105500001D928A95E9F72C960FB6F894DEBF0FBE70
:10551000CDBFDF91CF911F910895DF92EF92FF925F
:105520000F931F93CF93DF938C01892BB9F0E12C5C
:10553000F12CDD24D394E8012196F801849185377C
:1055400009F46AC098F4843708F059C0843008F030
:105550006FC0813011F1823009F43CC0DF91CF91EE
:105560001F910F91FF90EF90DF900895883709F415
:105570005CC058F4863709F454C0873779F78E2D0C
:105580000E94282D0E94552D1FC09CE7980F903730
:1055900028F78F770E94462317C00E5F1F4FFE012A
:1055A000849190E2980F983060F48770FD2D01C0CF
:1055B000FF0F8A95EAF78F2F0E942E2D0E94552DFE
:1055C00002C00E945822E8018F2D815008F033C09C
:1055D0008E01B1CF0E5F1F4FFE01849190E2980FB4
:1055E000983050F48770FD2D01C0FF0F8A95EAF7BF
:1055F0008F2F0E94342DE2CF0E944623E4CF0E5F0E
:105600001F4FFE01C491C150F0F28FE99FE0019756
:10561000F1F700C00000F7CF0E5F1F4FFE01F490BE
:10562000D2CF0E94172DE82ECFCF0E942B2DAACFCC
:105630000E945822C9CFEFE9FFE03197F1F700C08F
:105640000000C3CF6093A9057093AA058093AB05B2
:105650009093AC050C94922D08950F931F93009195
:10566000AD051091AE052091AF053091B005602BCE
:10567000712B822B932B6093AD057093AE058093B5
:10568000AF059093B0051F910F910C94912D0F933E
:105690001F930091AD051091AE052091AF0530919B
:1056A000B00560237123822393236093AD0570932B
:1056B000AE058093AF059093B0051F910F910C94A8
:1056C000912D0F931F930091AD051091AE05209180
:1056D000AF053091B005602771278227932760932B
:1056E000AD057093AE058093AF059093B0051F9103
:1056F0000F910C94912D60E070E0CB010C94222B63
:105700000F931F9341E050E060E070E08A019B013D
:1057100004C0000F111F221F331F8A95D2F7C90141
:10572000B8011F910F910C94222B0F931F9341E00E
:1057300050E060E070E004C0440F551F661F771F03
:105740008A95D2F78091A9059091AA05A091AB0501
:10575000B091AC058A019B01082B192B2A2B3B2BFE
:10576000C901B8011F910F910C94222B0F931F9325
:1057700041E050E060E070E004C0440F551F661F38
:10578000771F8A95D2F7CB01BA0160957095809505
:1057900090950091A9051091AA052091AB05309133
:1057A000AC0560237123822393231F910F910C94E6
:1057B000222B0F931F9341E050E060E070E004C0A3
:1057C000440F551F661F771F8A95D2F78091A90550
:1057D0009091AA05A091AB05B091AC058A019B01FF
:1057E000082719272A273B27C901B8011F910F91C4
:1057F0000C94222B0F931F930091A9051091AA05D9
:105800002091AB053091AC05602B712B822B932B33
:105810001F910F910C94222B0F931F930091A905B8
:105820001091AA052091AB053091AC05602371233E
:10583000822393231F910F910C94222B0F931F937C
:105840000091A9051091AA052091AB053091AC05F6
:1058500060277127822793271F910F910C94222B89
:1058600008954F925F926F927F929F92AF92BF92F4
:10587000CF92DF92EF92FF920F931F93CF93DF931C
:1058800000D000D01F92CDB7DEB76B837C838D83B1
:105890007A018C819D81892B49F08FEFF81204C029
:1058A00081E09FEF491719F080E001C081E080FDA1
:1058B0006AC00F2D10E0CE2CD12C8B81882309F4E7
:1058C00056C04090A9055090AA056090AB05709015
:1058D000AC058091AD059091AE05A091AF05B0915A
:1058E000B005482A592A6A2A7B2A2FE1A22EB12C18
:1058F0009A2CD301C2010A2C04C0B695A79597959E
:1059000087950A94D2F780FD2BC081E0A81AB108D0
:1059100078F7912CF80194E0EE0FFF1F9A95E1F7CC
:10592000E755FB4FEC0DFD1D9082E982FA826981FB
:105930007A81892D0F900F900F900F900F90DF912B
:10594000CF911F910F91FF90EF90DF90CF90BF907C
:10595000AF909F907F906F905F904F900C94302EFF
:10596000B7018A2D0E94302E019779F2D3CFF8012A
:1059700084E0EE0FFF1F8A95E1F7E755FB4FEC0D32
:10598000FD1D9080D2CF90E080E00F900F900F909F
:105990000F900F90DF91CF911F910F91FF90EF909B
:1059A000DF90CF90BF90AF909F907F906F905F906F
:1059B0004F9008952091130130911401F90132960E
:1059C0009FEF40E05191851751F09F3F19F451111D
:1059D00001C0942F4F5F4630A9F79F3F09F4089507
:1059E000290F311D97FD3A95F90182830895209181
:1059F000130130911401F9013296285F3F4F9191C4
:105A0000891303C0DF0111971C92E217F307B9F75E
:105A1000089581E090E0E0911301F0911401E80F06
:105A2000F91F1082019688309105A9F70895809199
:105A3000BB0508959091BB05892B8093BB05089504
:105A4000982F90958091BB0589238093BB0508957D
:105A50008093BB0508951092BB0508959091BA05F7
:105A6000892B8093BA050895982F90958091BA0557
:105A700089238093BA0508951092BA0508958093FA
:105A8000B10508951092B105089520911301309148
:105A90001401F9013196285F3F4F80E091919111F7
:105AA0008F5FE217F307D1F70895E0911301F091AA
:105AB00014018091BB058083E0911301F0911401E2
:105AC00080819091BA05892B80839091B1059923AB
:105AD00061F0E0911301F09114018081892B8083A2
