:100000000C943F020C9492020C9492020C94920273
:100010000C9492020C9492020C9492020C94920210
:100020000C9492020C9492020C94EA200C94BC2141
:100030000C94FC2D0C9492020C9492020C9492025B
:100040000C9492020C9492020C9492020C949202E0
:100050000C9492020C94160B0C9492020C94920243
:100060000C9492020C9492020C9492020C949202C0
:100070000C9492020C9492020C9492020C949202B0
:100080000C9492020C9492020C9492020C949202A0
:100090000C9492020C9492020C9492020C94920290
:1000A0000C9492020C9492020C949202381F5F1FDF
:1000B00057205F1F5720AB1FCE1F5720252034200D
:1000C0004724472471247124CC2400250E270E27B1
:1000D00017250E2702260226C8260E27DD26FB2618
:1000E000808080800405060708090A0B0C0D0E0F9E
:1000F000101112131415161718191A1B1C1D1E1F88
:10010000202122232425262728292A2B2C2D2E2F77
:10011000303132333435363738393A3B3C3D3E3F67
:10012000404142434445464748494A4B4C4D4E4F57
:10013000505152535455565758595A5B5C5D5E5F47
:10014000606162636465736768696A6B6C6D6E6F2A
:100150007071727380808080808080808080800356
:100160000201808080668075007476778080808050
:100170007677808080808080808080808080808092
:10018000808080808080808080808080808080806F
:10019000808080808080808080808080808080805F
:1001A000808080808080808080808080808080804F
:1001B000808080808080808080808080808080803F
:1001C00078797A7B7C7D7E7F808080808080808053
:1001D000808080808080808080808080808080801F
:1001E00073706565643A2025730A007573625F73E6
:1001F000746174653A20253032580A00686F737450
:100200002E5461736B3A2025640A00526F6C6C6F38
:10021000766572206572726F723A2069676E6F72CE
:1002200065640D0A000D0A00202530325800696E01
:100230007075742025643A000A4B6579626F6172AB
:10024000642073746172742E0A000A55534220634D
:100250006F6E666967757265642E0A000A0A544DEE
:100260004B3A31343966313464632F4C5546410A78
:100270000A003C03550053004200200074006F0048
:10028000200055005300420020006B0065007900FB
:1002900062006F00610072006400200063006F0064
:1002A0006E00760065007200740065007200000048
:1002B0000E0374002E006D002E006B002E00000057
:1002C0000403090409027400040100A032090400B7
:1002D0000001030101000921110100012240000772
:1002E00005810308000A0904010001030102000955
:1002F0002111010001224D000705820308000A09AF
:10030000040200010300000009211101000122364E
:10031000000705830308000A090403000203000024
:100320000009211101000122220007058403200099
:10033000010705040320000112011001000000085C
:10034000EDFE5B001408010200010631FF0974A1F3
:10035000010975150026FF009520750881020976B0
:10036000150026FF00952075089102C0050109803F
:10037000A10185021601002637001A81002AB70064
:10038000751095018100C0050C0901A101850316B6
:100390000100269C021A01002A9C02751095018119
:1003A00000C005010902A1010901A1000509190107
:1003B0002905150025019505750181029501750333
:1003C00081010501093009311581257F95027508E4
:1003D000810609381581257F950175088106050C70
:1003E0000A38021581257F950175088106C0C00570
:1003F000010906A101050719E029E7150025019566
:100400000875018102950175088101050819012906
:10041000059505750191029501750391010507196F
:100420000029FF150026FF00950675088100C029E8
:100430000A002575002F002575005D280025640041
:100440002000256400200025640020002564007C35
:100450000025303258006D6F7573656B6579205BD0
:1004600062746E7C782079207620685D28726570D1
:100470002F61636C293A205B0000A4096A0A1124E9
:100480001FBECFEFDAE0DEBFCDBF04B603FE28C04B
:100490008091940590919505A0919605B09197054E
:1004A0008730904BA740B04BD9F41092940510922E
:1004B0009505109296051092970514BE0FB6F89404
:1004C000A895809160008861809360001092600020
:1004D0000FBE1092010810920008E0E0F8E30995C1
:1004E00011E0A0E0B1E0E8E7F5E602C005900D926A
:1004F000AE39B107D9F725E0AEE9B1E001C01D92F0
:10050000A439B207E1F712E0CFE3D2E004C02197AB
:10051000FE010E94A032CD33D107C9F70E94561CBC
:100520000C94BA320C940000FF93EF93E0919E017B
:10053000F0919F01309709F00995EF91FF9108958F
:10054000FC018591803011F0EFDFFBCF0895FF278C
:10055000E0E230E247FF0CC0419597FF09C0EDE2B1
:100560006095709580959095611D711D811D911DFF
:1005700027FF02C0219530E350E2AA27660F771FBC
:10058000881F991FAA1FA41710F0A41B63955A95E2
:10059000A9F7AA3008F0A95FA05DAF93F3956115A4
:1005A00071058105910541F7ED3211F4EF93F39553
:1005B000F21718F43F93F395FBCF8F91B5DFFA95BF
:1005C000E1F70895E991F9918591803021F0853224
:1005D00019F0AADFF9CF089520E0E894559155323B
:1005E000C1F3503311F4689455915A3348F4505381
:1005F00090F3220F022E220F220F200D250FF4CF91
:100600000EF4219589919991533619F3533729F1B5
:10061000533559F1BC0188279927E8945C3621F4B9
:100620008991999168945591543639F446EF7EF04A
:1006300077FF0DC08FEF9FEF0AC055374AE039F0C2
:10064000583540E121F0523642E009F00895FF9319
:10065000EF937DDFEF91FF91B7CFFF93EF93FC0115
:1006600081918030B9F360DFFBCFFF93EF9368DFB8
:10067000F1CFDF93CF93CDB7DEB72596A3DFCF9130
:10068000DF91089580E00895089580E0089581E065
:100690000895CF93DF93CDB7DEB728970FB6F894C0
:1006A000DEBF0FBECDBFF22F2983E32F3A834B83EA
:1006B0005C836D837E838F8398878091DC02F82B27
:1006C000F093DC028091DD02E82BE093DD02FE0175
:1006D0003396AE01475F5F4F2191243088F0AEED35
:1006E000B2E080E090E03D91311106C0DC01A452FF
:1006F000BD4F12962C9304C001968630910599F750
:10070000E417F50749F728960FB6F894DEBF0FBE39
:10071000CDBFDF91CF910895860F911D860F911D5A
:10072000FC015687458781E00895FC01878908957B
:10073000CF93DF93EC018C819D81DC01ED91FC91E5
:100740000480F581E02D6E8109951F86188A81E06D
:100750008A8B1E821B8A1C8A1D8A1E8A1F8A80E041
:10076000DF91CF910895FC018681089581E0633087
:1007700009F080E0089581E0613009F080E008959B
:10078000860F911D860F911DFC0185859685089524
:10079000EF92FF92CF93DF93DC01E70152968C91A9
:1007A0005297823049F11F966C931F9750964C9345
:1007B00050979B8193709330F9F49A8197FF1CC0F6
:1007C0009E8158962C915897291718F458969C9307
:1007D0005897E82FF0E09F01220F331FE20FF31F1D
:1007E000EA0FFB1F9A819F7097839C81908794E00A
:1007F00091878F5F52968C93DF91CF91FF90EF900E
:100800000895EF92FF920F9302970E94C8030F91F1
:10081000FF90EF9008950895CF92DF92EF92FF92AC
:100820000F931F93CF93DF93CDB7DEB762970FB6C9
:10083000F894DEBF0FBECDBFDC0157962C9122236A
:1008400081F06C010E947B0AF601038914892589D5
:100850003689DC01CB01801B910BA20BB30BB7FFD8
:1008600002C0F12C3AC0838590E09A8B898BE12CF1
:100870008E010F5F1F4F9E012F5E3F4F42856681A5
:10088000848195810E946E13F82E811118C02989E8
:100890003A892330310598F0D6011D968D919C91AF
:1008A0001E97009761F0DC01ED91FC910190F081C1
:1008B000E02D8E010F5F1F4F40E0B60109950E94A9
:1008C0007B0AF601208DDC01CB01820F911DA11D59
:1008D000B11D838B948BA58BB68B8F2D62960FB633
:1008E000F894DEBF0FBECDBFDF91CF911F910F9166
:1008F000FF90EF90DF90CF9008952F923F924F920C
:100900005F926F927F928F929F92AF92BF92CF929F
:10091000DF92EF92FF920F931F93CF93DF93CDB7A8
:10092000DEB7EB970FB6F894DEBF0FBECDBFDC018C
:1009300016965C90511019C1422E242E362E7C0141
:10094000FC01A480B580108ED501ED91FC91019041
:10095000F081E02D60E0C50109956C01009719F464
:1009600046ED542E0FC1FC018080918081149104CA
:1009700009F4FEC03701F7E06F0E711CDC0111961F
:100980007C926E9214964C928E01065D1F4F28E069
:1009900030E040E060E0F701848195810E943011F1
:1009A000182F8111EBC01AA5D6018D929C92D5010A
:1009B000ED91FC910280F381E02D222D40E0632D2A
:1009C000C5010995F7018683882309F4D4C099A944
:1009D0009087282F40E060E0848195810E94DB11A0
:1009E000982ED501ED91FC91D60114961C92882386
:1009F00061F00480F581E02DD70116966C91C50158
:100A00000995F7011682592CBDC00190F081E02DA7
:100A1000D70116966C91C5010995009709F4A0CFEE
:100A2000212F133108F022E1FC01448221110FC073
:100A30003BAC412C36E2832E31E0932E5701F2E09D
:100A4000AF0EB11C6E0181E1C80ED11C38C030E080
:100A50008E01065D1F4F40E0D70116966C911697E8
:100A600014968D919C9115970E943011182F811129
:100A700072C0DECF9A828982BC82AB821E86188ABF
:100A80001F8619A21AA21BA219A6DF82CE82D986BE
:100A9000C8868D818B878A87DD86CC868E010F5F25
:100AA0001F4F242D40E0F7016681848195810E94CB
:100AB0007E11D70152968C91823019F043944310E5
:100AC000D9CFF7018289823009F044C0930142E016
:100AD0006681848195810E94660C68EE73E080E0F7
:100AE00090E00E947D0AD7011F962C911F9740E04D
:100AF00016966C91169714968D919C9115970E945D
:100B00004913182F811127C068EE73E080E090E050
:100B10000E947D0AF701418D60E0C7010E945215D5
:100B2000182F811118C020E040E060E0C7010E944A
:100B300028158CE291E09A838983AE014F5F5F4F65
:100B400060E070E0C7010E94B81481E0D7015796B9
:100B50008C9318C011EDD701ED91FC910480F581C3
:100B6000E02DC7010995512E0DC029ED522E0AC066
:100B700097ED592E07C084ED582E04C0F6019182DE
:100B80008082E9CF852DEB960FB6F894DEBF0FBEBD
:100B9000CDBFDF91CF911F910F91FF90EF90DF902C
:100BA000CF90BF90AF909F908F907F906F905F900D
:100BB0004F903F902F9008953F924F925F926F9287
:100BC0007F928F929F92AF92BF92CF92DF92EF92DD
:100BD000FF920F931F93CF93DF9300D000D0CDB738
:100BE000DEB76C017C836B835A8349834C0180E1BF
:100BF000880E911C5601A7E0AA0EB11C11E084E0FA
:100C0000482E3601B2E16B0E711C93E0392E22E0C2
:100C1000522E8B819C81892B09F4FBC0F60180A1A7
:100C2000823059F128F4882341F0813071F0F1CFFE
:100C3000833039F18430C1F1ECCF548285819681C3
:100C4000908787835286518610A3AE014D5F5F4F18
:100C5000BE016F5F7F4FC5010E944619882309F4CA
:100C6000D8C0D6011596ED91FC911697808191968A
:100C70008C939197818192968C93F601768265820E
:100C800030A2D60192968C919297843011F493966B
:100C90001C92F60181A182508483258136813087A0
:100CA00027838287818740A2D60192968C918430D7
:100CB000B1F0853009F442C0823009F06EC0AE0157
:100CC0004D5F5F4FBE016F5F7F4FC5010E944619A8
:100CD000882309F49EC0F601858984A392C0AE01E1
:100CE0004D5F5F4FBE016F5F7F4FC5010E94461988
:100CF000882309F48EC0D60155968C915597833080
:100D000009F07FC056968C915697813009F079C0D2
:100D100098969C91989757968C91992321F08823C7
:100D200009F46FC003C0813009F06BC0F60113A352
:100D3000928996A3938997A385A363C0AE014D5F63
:100D40005F4FBE016F5F7F4FC5010E944619882328
:100D500009F45FC0D60193968C919397882309F488
:100D600050C012968D919C911397009709F449C039
:100D7000DC01ED91FC910190F081E02D7401D60130
:100D800095960C91959797962C91979796964C914E
:100D9000969794966C91099534C0F60185858823C1
:100DA00019F0813039F028C081A190E0029797872F
:100DB000868715872B813C8189819A81782F692FBD
:100DC000F601468557854115510581F0019621159B
:100DD000310529F41C821B8279836A830DC041503E
:100DE00051095787468721503109E8CF3C832B832F
:100DF0009A838983F6011586F60186859785892B66
:100E000041F4D60116969C928E92159790961C925C
:100E100000CF0F900F900F900F90DF91CF911F9107
:100E20000F91FF90EF90DF90CF90BF90AF909F9089
:100E30008F907F906F905F904F903F900895CF93E9
:100E4000DF936091FA017091FB01E091A701F091AD
:100E5000A8014091EE015091EF012091E201309103
:100E6000E3018091D6019091D7016E177F07B1F40D
:100E7000E091A501F091A6014E175F0779F4E0918A
:100E8000A301F091A4012E173F0741F4E091A101C5
:100E9000F091A2018E179F0709F463C07093A80117
:100EA0006093A7015093A6014093A5013093A4013C
:100EB0002093A3019093A2018093A101ECEDF2E0B5
:100EC00088E0DF011D928A95E9F72091F2013091C7
:100ED000F3014091F4015091F5016091F601709198
:100EE000F7018091F8019091F9010E944903209146
:100EF000E6013091E7014091E8015091E9016091EC
:100F0000EA017091EB018091EC019091ED010E945A
:100F100049032091DA013091DB014091DC015091CD
:100F2000DD016091DE017091DF018091E00190911F
:100F3000E1010E9449032091CE013091CF014091FF
:100F4000D0015091D1016091D2017091D301809173
:100F5000D4019091D5010E94490381E08093DB0286
:100F600002C01092DB020E94D40AEC0184E692E0F7
:100F70000E94A713CE010E94EC0A8536910560F00D
:100F80009F938F938CEF91E09F938F930E943903EF
:100F90000F900F900F900F9084E692E00E94460C05
:100FA0009091A001891779F184E692E00E94460CA5
:100FB0008093A0011F928F938BEE91E09F938F936C
:100FC0000E9439030F900F900F900F908091A00115
:100FD0008039C9F48091A901823019F08EE191E045
:100FE00002C089E191E09F938F9380EE91E09F93FF
:100FF0008F930E9439030E9406220E94FF220F90C5
:101000000F900F900F9081E0DF91CF910895482FBE
:1010100080E1489F90011124205E3109283031057C
:1010200038F49091DC02992319F0892F90E002C0E6
:1010300080E090E0EEEDF2E061E070E0219124309C
:1010400070F0322F32953F70431309C02F70DB01CF
:1010500002C0AA0FBB1F2A95E2F78A2B9B2BB2E096
:10106000E43EFB0759F708950895CF92DF92EF927F
:10107000FF920F93CF93DF931F92CDB7DEB7898393
:1010800080916102882371F0CE0101966C01EE24FB
:10109000E394F12C00E022E040E060E08AE492E09A
:1010A0000E94FB1480914702882371F0CE010196C3
:1010B0006C01EE24E394F12C00E022E040E060E0DB
:1010C00080E392E00E94FB1480912D02882371F04E
:1010D000CE0101966C01EE24E394F12C00E022E0B5
:1010E00040E060E086E192E00E94FB1480911302F0
:1010F000882371F0CE0101966C01EE24E394F12C6B
:1011000000E022E040E060E08CEF91E00E94FB1400
:101110000F90DF91CF910F91FF90EF90DF90CF90E4
:1011200008950C941F070E94BA2D80918905882389
:1011300031F00E94E32D882321F00C94681D0C945B
:101140001F070895FC017583648382E391E0918316
:10115000808380E591E093838283138A148A158AC1
:10116000168A178A418F178288E080878CE38187EF
:101170001286138684E0848781E0828B118A178629
:101180001686158661157105B1F0DB01AA5ABF4FAD
:1011900080E090E02D913D91232B49F48B96880FB0
:1011A000991FDB01A80FB91FED93FC9308950196D9
:1011B0008031910579F708952E9A08952E988EBD65
:1011C0000DB407FEFDCF1EBC0DB407FEFDCF0E947F
:1011D000DC088EB508952E9882608EBD0DB407FE92
:1011E000FDCF6EBD0DB407FEFDCF0C94DC0888EF7B
:1011F0000E94DE08807C803411F118F4882371F19C
:101200000895803819F0803C39F1089588ED0E94E6
:10121000DE089091A90181FD08C0923029F161ECAE
:1012200088ED0E94EB0882E007C09330E9F063ECA0
:1012300088ED0E94EB0883E08093A901089588ED72
:101240000E94DE089091A90181FD03C0933079F7D7
:101250000895923021F7089581E0EECF61ED88ED99
:101260000E94EB081092A90108950F931F93CF934A
:10127000DF938C01269A0E94DC08219A229A2398F7
:10128000209A80E58CBD81E08DBD259868E188E8D5
:101290000E94EB0860E288E70E94EB0860E088E7C4
:1012A0000E94EB08C0E0D0E088E60E94DE082196AC
:1012B00080FD06C0CF3F8FEFD807B1F78FEF1DC07D
:1012C00061EC88ED0E94EB0860E280ED0E94EB0883
:1012D00064E088EE0E94EB0888EE0E94DE0882FF40
:1012E000FBCFC8010E94F70860E288EC0E94EB087F
:1012F00061E080E80E94EB0880E0DF91CF911F91D0
:101300000F91089580917C05816080937C0584E62F
:1013100092E00E94350980EF91E09093580280930B
:10132000570284EE91E090933E0280933D0288ED57
:1013300091E090932402809323028CEC91E09093AF
:101340000A0280930902089584E692E00E94160C36
:1013500040E064E672E08AE492E00E94A20840E085
:1013600064E672E080E392E00E94A20840E064E656
:1013700072E086E192E00E94A20840E064E672E03A
:101380008CEF91E00E94A20886E591E09093F10134
:101390008093F0019093E5018093E4019093D9014B
:1013A0008093D8019093CD018093CC0164E672E0E4
:1013B0008BEB91E00E94D61764E672E08AEA91E036
:1013C0000C94D6178F929F92AF92BF92DF92EF92BA
:1013D000FF920F931F93CF93DF937C01CB01D22E0B
:1013E000E801DB01ED91FC910084F185E02D099588
:1013F0001F928F938EE292E09F938F930E94390306
:1014000048018D0C911C0F900F900F900F9088E267
:10141000A82E82E0B82E0815190571F0F801819107
:101420008F011F928F93BF92AF920E9439030F904A
:101430000F900F900F90EFCF85E292E09F938F93E4
:101440000E9439030F900F908881813079F4FAE07F
:10145000DF120CC0898188838985898380FF02C05F
:1014600092E79E8381FF02C083E78F838A81813068
:1014700049F48BE092E09F938F930E9439030F9081
:101480000F900FC0D701129688E0FE0101900D92D7
:101490008A95E1F70E947B0AD7011B967C936E9395
:1014A0001A97DF91CF911F910F91FF90EF90DF90EE
:1014B000BF90AF909F908F90089580E090E0089546
:1014C0008FEF9FEF08950895862F0E94771A81E08D
:1014D00090E00895E4EEF2E01382128288EE93E049
:1014E000A0E0B0E084839583A683B7838CE591E088
:1014F0009183808308950C94E00A8F929F92AF921B
:10150000BF92CF92DF92EF92FF920E9468314B011F
:101510005C0120E030E04AE755E40E941F326B0195
:101520007C0120E030E040E85FE30E942D3187FD40
:1015300024C020E03FEF4FE757E4C701B6010E9407
:101540001A321816ACF420E030E040E251E4C50154
:10155000B4010E941F320E94393120E931E0611547
:10156000710581F0C9010197F1F761507109F7CF59
:10157000C701B6010E94393102C061E070E0CB01C1
:101580000197F1F7FF90EF90DF90CF90BF90AF9071
:101590009F908F90089582E084BD93E095BD9AEF6F
:1015A00097BD80936E0008952FB7F8948091F20252
:1015B0009091F302A091F402B091F5022FBF08952B
:1015C0002FB7F8946091F2027091F3028091F402C7
:1015D0009091F5022FBF0895CF92DF92EF92FF9284
:1015E0000F931F932FB7F8944091F2025091F3029A
:1015F0006091F4027091F5022FBF6A017B01EE2425
:10160000FF248C0120E030E0C016D106E206F3068C
:1016100010F4415051099A01281B390BC9011F913F
:101620000F91FF90EF90DF90CF9008951F920F924F
:101630000FB60F9211248F939F93AF93BF93809116
:10164000F2029091F302A091F402B091F50201969A
:10165000A11DB11D8093F2029093F302A093F402B6
:10166000B093F502BF91AF919F918F910F900FBEF4
:101670000F901F901895CF93DF93FC01862F8078F1
:10168000A9F4283008F04DC0442321F0958197300B
:1016900009F447C0EF01A1E0B0E09D85992341F036
:1016A00011962596A031B105C1F73BC080E039C045
:1016B00061111CC085E08A9FE0018B9FD00D112431
:1016C000CE0FDF1F442331F081E4888785818F5F4F
:1016D000858302C081E0888725E02A9FC0012B9F77
:1016E000900D1124E80FF91F80851BC06770660FED
:1016F000660F660F442341F0606485818F5F8583A8
:101700008770687F682B03C02770687B622B25E099
:101710002A9FC0012B9F900D1124E80FF91F6087AD
:10172000862FDF91CF910895611102C0069608952A
:10173000FC0121E03585631739F02F5F35962031A4
:10174000C9F780E090E00895069635E0239F800D6C
:10175000911D11240895DF92EF92FF920F931F9332
:10176000CF93DF93EC01E62EF12C85E0689FB0016A
:101770001124FE01E60FF71F8085182F177086FFD2
:1017800017C001E085E0D82EFE01D09EE00DF11DCE
:101790001124808586958695869587701817F9F0AF
:1017A0000F5F003189F78D81811302C011501D83B5
:1017B00085E08E9DF0018F9DF00D1124EC0FFD1F33
:1017C000108681E0818712862296D783C683DF91B7
:1017D000CF911F910F91FF90EF90DF900895602FB0
:1017E000CE010E94AB0BD0CFFC01613499F49C0177
:1017F000255B3F4F61E0AC014E5F5F4F158666870A
:101800001786548743873596E217F307B9F7FC012B
:101810001582089521E03585631729F02F5F3596ED
:101820002031C9F70895622F0C94AB0BFC018EE6B2
:1018300091E0918380831582108681E081871286F2
:10184000CF01029697838683128228E023832CE3BC
:101850002483DF019F01255B3F4F41E01D961C92D1
:101860001D971E964C931E971F961C921F971C96B1
:101870009C938E931B971596A217B30779F7EA5896
:10188000FF4F108281E18093FA0208958091FA025D
:101890000895CF93C42F0E94940B009789F0DC0128
:1018A000ED91FC911197309759F013969C9180E03F
:1018B000891731F020812C1731F033968F5FF8CFE4
:1018C00080E090E001C0CF01CF9108950F931F9366
:1018D000CF93DF932115310571F0E901042F162F05
:1018E0000E94940BFC01892B41F01283D183C083A9
:1018F000038380E003C088ED01C086EDDF91CF91C6
:101900001F910F910895CF92DF92FF920F931F9333
:10191000CF93DF93662381F1F62E8C016C0186E56F
:10192000C80ED11CC0E0D0E0D6018D919D916D0113
:101930000097F1F0DC01ED91FC910084F185E02D40
:101940000995F81215C0AB96CC0FDD1FC00FD11F43
:1019500088819981DC01ED91FC910480F581E02D75
:10196000DF91CF911F910F91FF90DF90CF9009945D
:101970002196C031D105C1F680E0DF91CF911F9152
:101980000F91FF90DF90CF9008952E980895CF93F8
:10199000C82F0E94C50CCEBD0DB407FEFDCF1EBCE6
:1019A0000DB407FEFDCF0E94DC088EB5CF910895DF
:1019B000CF93DF93C82FD62F0E94C50CC260CEBD37
:1019C0000DB407FEFDCFDEBD0DB407FEFDCFDF91E8
:1019D000CF910C94DC088F929F92AF92BF92CF92DE
:1019E000DF92EF92FF920F931F93CF93DF93EC015F
:1019F000D62EC42E59010E94940B7C01009709F445
:101A000045C0FC0180819181892B09F441C04C2D96
:101A10006D2DCE010E94490CF501918380830097C2
:101A2000C9F1FC0182818695869590E0803191050F
:101A300014F08FE090E041E050E060E070E04A0197
:101A40005B0104C0880C991CAA1CBB1C8A95D2F7A8
:101A5000D501C4010197F801918380836D2D80EE3B
:101A60000E94D80C88ED0E94C70CF701948199233D
:101A700031F0CA58DF4F68816260682B02C0682F5E
:101A8000697F88ED0E94D80C80E005C086ED03C018
:101A900087ED01C08BEDDF91CF911F910F91FF90EA
:101AA000EF90DF90CF90BF90AF909F908F90089570
:101AB0008F929F92AF92BF92CF92DF92EF92FF925E
:101AC0000F931F93CF93DF93862E942E59010E947C
:101AD0007B0A6B017C0128E8C20E23E1D21EE11CC7
:101AE000F11C00E010E0D0E0C0E098280E947B0AE2
:101AF000DC01CB018C199D09AE09BF09B7FF2DC0D0
:101B0000692D80EF0E94D80C0E947B0ADC01CB017A
:101B10008C199D09AE09BF09B7FF09C088EC0E9466
:101B2000C70C87FFF1CF60E888EC0E94D80C88EFE3
:101B30000E94C70CC82FCF70C43019F0CE3051F0BE
:101B40000CC00F5F1F4FA114B10481F20A151B05D1
:101B500069F603C0DF5FD33049F68C2FDF91CF9158
:101B60001F910F91FF90EF90DF90CF90BF90AF90BB
:101B70009F908F9008959F92AF92BF92CF92DF92E5
:101B8000EF92FF920F931F93CF93DF937C01D42F9B
:101B9000122F902E00E06C01C60ED11CC60ED11C77
:101BA00086E5C80ED11CA42EB12CABE2AA0EB11C46
:101BB000AA0CBB1CAE0CBF1CF60180819181DC011C
:101BC000ED91FC910280F381E02D292D412F6D2FA5
:101BD0000995803EC9F4D1110BC061E088EE0E94E6
:101BE000D80C66E670E080E090E00E947D0A14C0A8
:101BF000F50180819181DC01ED91FC910284F385F6
:101C0000E02D612F099508C08D3021F4033008F0D4
:101C10003FC014C081113FC0F60180819181DC0179
:101C2000ED91FC910190F081E02D292D412F6D2F38
:101C30000995C82F8D3051F4033050F464E670E0FC
:101C400080E090E00E947D0A0F5FB6CF882311F1FB
:101C5000D1110BC061E088EE0E94D80C66E670E0FE
:101C600080E090E00E947D0A11C0ED2FF0E0BB966D
:101C7000EE0FFF1FEE0DFF1D80819181DC01ED91C4
:101C8000FC910284F385E02D612F09958C2F03C010
:101C90008DE001C080E0DF91CF911F910F91FF9007
:101CA000EF90DF90CF90BF90AF909F9008950F93EB
:101CB0001F93CF93DF93182F062FEA010E94C50CC4
:101CC00012601EBDFE01802F882339F00DB407FE7F
:101CD000FDCF91919EBD8150F7CFC00FD11D0DB4A6
:101CE00007FEFDCF0E94DC08CE01DF91CF911F914E
:101CF0000F9108952F923F924F925F926F927F9231
:101D00008F929F92AF92BF92CF92DF92EF92FF920B
:101D10000F931F93CF93DF9300D000D01F92CDB7C6
:101D2000DEB77D836C834A016901FB01F1808FEF8F
:101D30008F0D803408F074C00E947B0A2B013C0197
:101D4000F8E84F0EF3E15F1E611C711CEC81FD8110
:101D5000828180FD02C060E401C060E888EE0E94DC
:101D6000D80C312C8F2D90E09A838983C114D10433
:101D700009F448C0E980FA80CE14DF0408F4760143
:101D8000EB82A8016E2D80E10E94570E6E2D88E334
:101D90000E94D80CEC81FD816081606280EF0E941E
:101DA000D80C88EC0E94C70C87FFFBCF60E888EC5A
:101DB0000E94D80C88EF0E94C70C8F70382EA12C7F
:101DC000B12C212C332009F46BC00E947B0ADC016A
:101DD000CB0184199509A609B709B7FF61C0F6E0E0
:101DE0003F1601F12EE0321609F455C084E0381296
:101DF00009C0FFEFAF1ABF0A8114910449F1A8147A
:101E0000B90431F588EF0E94C70C85FB882780F95B
:101E1000EC81FD81928180FB90F99283832D45C0F6
:101E20008AED43C088EF0E94C70C85FB882780F9A4
:101E300091E08927EC81FD81928180FB90F992836A
:101E400090FD02C060E401C060E888EE0E94D80CFA
:101E500060E088E30E94D80CF801608180E10E9474
:101E6000D80C6B8188E30E94D80CEC81FD816081E5
:101E7000606280EF0E94D80C88EC0E94C70C87FF3C
:101E8000FBCF60E888EC0E94D80C88EF0E94C70C5A
:101E90008F70382E97CF239423E02212D9CFB2CF60
:101EA000CE18DF080E0D1F1D61CF0F900F900F9001
:101EB0000F900F90DF91CF911F910F91FF90EF90B6
:101EC000DF90CF90BF90AF909F908F907F906F905A
:101ED0005F904F903F902F9008952F923F924F9296
:101EE0005F926F927F928F929F92AF92BF92CF92AA
:101EF000DF92EF92FF920F931F93CF93DF93CDB7B3
:101F0000DEB72A970FB6F894DEBF0FBECDBF1C0117
:101F10006B015B834A835901D9016D907C901197C5
:101F2000FB01F181F9831D921C92DB0112968C91C9
:101F300081FD02C060E101C060E288EE0E94D80C21
:101F40008E2D90E0A0E0B0E08C839D83AE83BF83B4
:101F500068862A813B81D6014C9160E0C1010E94D4
:101F6000580DF82EB6E08B1318C088EF0E94C70CEE
:101F700082958170E1E08E27D60112969C9112978E
:101F800080FB91F912969C9391FD02C060E101C023
:101F900060E288EE0E94D80CDCCF811167C088EC2B
:101FA0000E94C70C82FF60C080E30E94C70C582EBD
:101FB00090E06816790608F45884F50180819181D3
:101FC0009301281B390B3A87298737FF02C01A86ED
:101FD0001986852C912C89859A858816990614F482
:101FE0009A86898649840E94C50C98E09EBD0DB4EE
:101FF00007FEFDCFF801442041F01EBC4A940DB409
:1020000007FEFDCF8EB58193F6CFA985BA850A0F5D
:102010001B1F0E94DC0864E088EC0E94D80CF501CC
:1020200080819181880E991E91828082F9815F164C
:1020300018F08614970470F088EF0E94C70C829500
:102040008170D60112969C91129780FB91F912969D
:102050009C930CC0EE2009F47CCF6C817D818E8135
:102060009F810E947D0A75CF80EFF82E8F2D2A96D2
:102070000FB6F894DEBF0FBECDBFDF91CF911F9199
:102080000F91FF90EF90DF90CF90BF90AF909F9017
:102090008F907F906F905F904F903F902F9008951A
:1020A0002F923F924F925F926F927F928F929F9268
:1020B000AF92BF92CF92DF92EF92FF920F931F9356
:1020C000CF93DF93CDB7DEB761970FB6F894DEBF3D
:1020D0000FBECDBF3C01F42E322E202EC98A4EA059
:1020E0005FA0C8A4D9A4188A1F861E861D868E01EB
:1020F000035F1F4F9E01215F3F4F0E94EB0C811138
:1021000096C039822A82EB8289898C83BE82AD8215
:1021100098868F82AE014F5F5F4F68E080E20E9439
:10212000570E2D853E854F2D60E1C3010E94580D4D
:10213000E82E811178C0932D9078392EC114D104E6
:1021400009F462C0EF85F8898281992309F44DC0B2
:1021500082608283540122242394A114B10409F4DF
:1021600058C05C864B864D855E856F857889E12CED
:1021700086019E01255F3F4FC3010E946D0FE82E2F
:10218000A6E08A130FC00F85188988EF0E94C70C3C
:1021900085FB882780F98225F801928180FB91F9DF
:1021A0009283DBCF81113FC08AA59BA50097A1F048
:1021B000DC01ED91FC9111970190F081E02DC401BB
:1021C0008A199B099A8789876B857C859E01275F81
:1021D0003F4FA601CD0109958B859C85A81AB90AA8
:1021E0008415950508F0B9CF0FC0816082834D85B5
:1021F0005E8586019201BF01C3010E947A0E8111A2
:1022000016C02D853E8511C02D853E85311005C037
:102210000CC0E11008C02D853E8560EA4F2DC3013A
:102220000E94580D04C08E2D02C060E8F7CF619661
:102230000FB6F894DEBF0FBECDBFDF91CF911F91D7
:102240000F91FF90EF90DF90CF90BF90AF909F9055
:102250008F907F906F905F904F903F902F90089558
:102260008F929F92AF92BF92CF92EF920F931F9354
:102270001F921F921F930F933F932F934901A12CFD
:10228000B12CCC24C394E12C06E020E80E9450102D
:102290000F900F900F900F900F900F901F910F9134
:1022A000EF90CF90BF90AF909F908F9008958F92B6
:1022B0009F92AF92BF92CF92EF92FF920F931F9295
:1022C0001F92FF92EF923F932F934901A12CB12CC3
:1022D00022E0C22EE02E06E020E80E9450100F906F
:1022E0000F900F900F900F900F900F91FF90EF9025
:1022F000CF90BF90AF909F908F9008954F925F9234
:102300006F927F928F929F92AF92BF92CF92DF9205
:10231000EF92FF920F931F93CF93DF93CDB7DEB76A
:10232000C054D1090FB6F894DEBF0FBECDBF3C013B
:10233000D62E542E422EC02ECE0101965C017C0179
:10234000022F29E030E0C3010E94571181111BC008
:102350008B809C801F93CF92BF92AF921F9280E49C
:102360008F93A12CB12C82E0C82EE42C06E020E84B
:10237000452D6D2DC3010E9450100F900F900F90AE
:102380000F900F900F90C05CDF4F0FB6F894DEBF38
:102390000FBECDBFDF91CF911F910F91FF90EF90B6
:1023A000DF90CF90BF90AF909F908F907F906F9075
:1023B0005F904F9008958F929F92AF92BF92CF926D
:1023C000EF920F93CF931F921F921F921F921F9213
:1023D0001F92812C912CA12CB12CC12CE22E05E056
:1023E00020E00E945010C82F6CE271E080E090E085
:1023F0000E947D0A0F900F900F900F900F900F90FA
:102400008C2FCF910F91EF90CF90BF90AF909F9076
:102410008F9008950F931F93CF93DF938A3F3FEFE1
:10242000930711F486ED2DC0DC011696ED91FC9119
:102430001797EF2B09F1122F242FEC011A8740E098
:102440000E943B0B082F8823C9F0682FCE010E9401
:10245000940B009739F3FC011483202F40E060E0D7
:10246000CE010E94DB11182F882351F0602FCE017E
:102470000E94F40B812F05C087ED03C084ED01C0DD
:1024800080E0DF91CF911F910F9108952F923F929D
:102490004F925F926F927F928F929F92AF92BF9274
:1024A000CF92DF92EF92FF920F931F93CF93DF9320
:1024B000CDB7DEB766970FB6F894DEBF0FBECDBFBF
:1024C0001B8A38E03C8B3CE33D8B8A3F3FEF930710
:1024D00009F464C0522E342E462E7C01DC0116967F
:1024E000CD90DC901797CE01439617969C938E93D0
:1024F00016971A962C938E010F5F1F4F22E130E042
:1025000040E060E0C7010E943011F701D782C68227
:102510008111A6C089849A846B847C84FD81FE8BA2
:102520002E80670136E5C30ED11C560110E0D5019F
:102530008D919C910097F1F1DC01ED91FC9100846B
:10254000F185E02D0995811135C0F50180819181DA
:10255000DC01ED91FC910088F189E02D622D099557
:10256000882341F1F50180819181DC01ED91FC919D
:102570000484F585E02DA301B4010995811110C0F3
:10258000F50180819181DC01ED91FC910684F78554
:10259000E02D6E890995811103C00CC086ED60C0E5
:1025A000052D232D442D612FC7010E94BB0D813DB8
:1025B00009F056C01F5FB2E0AB0EB11C103109F03C
:1025C000B6CF10E0F601808191810097E1F1DC0146
:1025D000ED91FC910084F185E02D0995811133C0C6
:1025E000F60180819181DC01ED91FC910088F189F7
:1025F000E02D622D09958823D9F0F6018081918123
:10260000DC01ED91FC910484F585E02DA301B4017A
:102610000995811118C0F60180819181DC01ED914D
:10262000FC910684F785E02D6E89099581110BC018
:10263000052D232D442D612FC7010E94BB0D982F1E
:10264000977F913D69F41F5FE2E0CE0ED11C1031FF
:1026500009F0B8CF252D432D642DC7010E940A1221
:1026600066960FB6F894DEBF0FBECDBFDF91CF9157
:102670001F910F91FF90EF90DF90CF90BF90AF90A0
:102680009F908F907F906F905F904F903F902F9092
:1026900008958F929F92AF92BF92CF92EF920F9335
:1026A0001F921F921F921F921F921F92812C912C9A
:1026B000A12CB12CC12CE22E09E020E00E94501088
:1026C0000F900F900F900F900F900F900F91EF9031
:1026D000CF90BF90AF909F908F9008958F929F92D0
:1026E000AF92BF92CF92DF92EF920F931F93CF934F
:1026F000DF9300D000D0CDB7DEB76C01590148019F
:102700001C821B821A8219828E010F5F1F4F9E014D
:102710002D5F3F4F0E94EB0C811109C049815A8106
:102720006B817C8184019501C6010E946D0F0F9021
:102730000F900F900F90DF91CF911F910F91EF901D
:10274000DF90CF90BF90AF909F908F900895AF9201
:10275000BF92CF92DF92EF92FF920F931F93CF938E
:102760008C011D990EC088EC0E94C70C85FF05C026
:10277000C8010E94F70860E201C060E088EC0E9496
:10278000D80C8091A901813039F040F0823079F085
:10279000833079F5C1E00CC083E106C08091FA0274
:1027A000807F803131F181E18093FA0222C0C0E064
:1027B0008091FA02807F8031E9F40E947B0ADC017B
:1027C000CB0188539F4FAF4FBF4F8093F60290933A
:1027D000F702A093F802B093F90280E28093FA0224
:1027E00080ED0E94C70C682F6F7D80ED0E94D80C91
:1027F00001C0C0E0780186E5E80EF11C6801A6E79B
:10280000CA0ED11C5701F501819191915F0100978A
:1028100039F0DC01ED91FC910680F781E02D0995FE
:10282000AC14BD0481F78091FA02803409F447C0EA
:1028300050F4803221F18033A1F1813109F08EC052
:10284000F60110820AC0813509F464C0803809F4A9
:1028500076C0803509F082C045C0D7018D919D9129
:102860007D01009739F0DC01ED91FC910480F58148
:10287000E02D0995EC14FD0481F782E16DC00E9402
:102880007B0A0091F6021091F7022091F802309134
:10289000F902DC01CB01801B910BA20BB30BB7FD3E
:1028A0005DC080ED0E94C70C682F606280ED0E94C1
:1028B000D80C61E088EE0E94D80C80E44DC088EE10
:1028C0000E94C70C80FD4AC060E488EC0E94D80CCE
:1028D00088ED0E94C70C682F686088ED0E94D80CB4
:1028E00080E53AC088EC0E94C70C86FF37C081E5BE
:1028F0008093FA020E947B0ADC01CB014496A11D61
:10290000B11D8093F6029093F702A093F802B09362
:10291000F90224C00E947B0AC090F602D090F70210
:10292000E090F802F090F902DC01CB018C199D09CE
:10293000AE09BF09B7FD12C080E88093FA022C2FC0
:1029400040E060E0C8010E944612882321F0823DE9
:1029500029F080EA01C080E98093FA02CF911F91AB
:102960000F91FF90EF90DF90CF90BF90AF900895C0
:102970008F929F92AF92BF92CF92EF920F93CF938D
:10298000DF93CDB7DEB7C054D1090FB6F894DEBFE0
:102990000FBECDBF5F934F939E012F5F3F4F3F937D
:1029A0002F931F9220E42F9320E8822E912C5B011D
:1029B00032E2C32EE12C06E021E840E0FC01668112
:1029C000848195810E9450100F900F900F900F906E
:1029D0000F900F90C05CDF4F0FB6F894DEBF0FBEB4
:1029E000CDBFDF91CF910F91EF90CF90BF90AF907F
:1029F0009F908F9008958F929F92AF92BF92CF92A7
:102A0000DF92EF92FF920F93A42EB12C1F921F9290
:102A1000DF92CF92FF92EF924701C22EE02E09E0A3
:102A200021E2462FFC016681848195810E9450102D
:102A30000F900F900F900F900F900F900F91FF90AD
:102A4000EF90DF90CF90BF90AF909F908F900895C0
:102A50008F929F92AF92BF92CF92EF920F93A62E3A
:102A6000B12C1F921F921F921F921F921F92812CB6
:102A7000912CC22EE42E0AE021E240E0FC016681A6
:102A8000848195810E9450100F900F900F900F90AD
:102A90000F900F900F91EF90CF90BF90AF909F90BD
:102AA0008F9008958F929F92AF92BF92CF92EF92A4
:102AB0000F93A62EB12C1F921F921F921F921F924E
:102AC0001F92812C912CC12CE42E0BE021E240E0DE
:102AD000FC016681848195810E9450100F900F90B7
:102AE0000F900F900F900F900F91EF90CF90BF909D
:102AF000AF909F908F900895FC018285089581E0AA
:102B0000693009F080E00895CF93DF93EC018A816A
:102B10009B81DC01ED91FC910480F581E02D6A85BB
:102B200009958A85813439F4EA81FB81EA58FF4F9F
:102B30008081846080831A861B861C861D861E8683
:102B40001F86188A80E0DF91CF9108958F929F921F
:102B5000AF92BF92CF92EF920F93A42EB12CB22AD4
:102B60001F921F921F921F921F921F92812C912CD5
:102B7000C12CE62E01E023E240E0FC016285828167
:102B800093810E9450100F900F900F900F900F9014
:102B90000F900F91EF90CF90BF90AF909F908F903C
:102BA00008958F929F92AF92BF92CF92EF920F9320
:102BB000A62EB12C1F921F923F932F935F934F939A
:102BC0004A01C12CE12C00E023EA40E0FC016285CF
:102BD000828193810E9450100F900F900F900F9060
:102BE0000F900F900F91EF90CF90BF90AF909F906C
:102BF0008F9008958F929F92AF92BF92CF92EF9253
:102C00000F93A42EB12CB22A1F921F921F921F92D3
:102C10001F921F92812C912CC12CE62E03E023E2FF
:102C200040E0FC016285828193810E9450100F90E8
:102C30000F900F900F900F900F900F91EF90CF90FB
:102C4000BF90AF909F908F9008952F923F924F9298
:102C50005F926F927F928F929F92AF92BF92CF922C
:102C6000DF92EF92FF920F931F93CF93DF93CDB735
:102C7000DEB7E8970FB6F894DEBF0FBECDBFDC011C
:102C80001A963C91311107C1122F242E362E3C0189
:102C9000FC01C280D380D601ED91FC910190F081BE
:102CA000E02D60E0C60109957C01009709F4F5C0AC
:102CB000FC01A080B180A114B10409F4F0C043016B
:102CC000F4E08F0E911CDC0111969C928E9214966A
:102CD0001C93FE0131962F018F0128E030E040E087
:102CE00060E0D30112968D919C9113970E94301150
:102CF000F70114828111D9C08D81893009F0D1C0CA
:102D00000981D601ED91FC910280F381E02D222D05
:102D100041E0632DC6010995F3018287882309F4F8
:102D2000C2C098859583282F40E060E0828193811E
:102D30000E94DB11182F882389F0D701AD92BC9235
:102D4000D601ED91FC910480F581E02DD3011A9616
:102D50006C91C6010995F3011286ABC0202F013298
:102D600008F020E2D701AD92BC9221110BC0940172
:102D700042E0F3016285828193810E94660C811199
:102D800097C010C030E0820140E0D3011A966C91E8
:102D90001A9712968D919C9113970E943011811170
:102DA00087C0E5CF1F921F925F924F921F9288E0DB
:102DB0008F9388E0882E912CA12CB12C99E2C92EFA
:102DC000E12C06E020EA40E0F301628582819381F4
:102DD0000E945010182F0F900F900F900F900F908F
:102DE0000F90811166C08B81D3011B968C931B972A
:102DF000720100E028E030E040E01A966C911A97EA
:102E000012968D919C9113970E945711811150C079
:102E10002B813C8140E0F3016285828193810E9495
:102E20005711811145C0298130E0CE0181967C0186
:102E300040E0D3011A966C911A9712968D919C914D
:102E400013970E945711811133C02E8140E0F30186
:102E50006285828193810E944913811129C001E01A
:102E6000D3011B968C91801740F020E0402F68E042
:102E7000C3010E94FA150F5FF3CFD3011296ED91B3
:102E8000FC911397EA58FF4F80818460808381E032
:102E900050968C930EC019ED0CC016ED0AC017EDBC
:102EA00008C011ED06C014ED04C0F701B182A08284
:102EB000182F812FE8960FB6F894DEBF0FBECDBF56
:102EC000DF91CF911F910F91FF90EF90DF90CF9006
:102ED000BF90AF909F908F907F906F905F904F903A
:102EE0003F902F900895CF92DF92FF920F931F9300
:102EF000CF93DF9300D000D0CDB7DEB78C01F62E94
:102F000019821A821B821C8220E0462F61E10E94F6
:102F1000A61520E04F2D60E1C8010E94A61520E013
:102F20004F2D64E0C8010E94FA1583E0C82ED12C11
:102F30009E012F5F3F4F44E050E06F2DC8010E947B
:102F4000D1158823F1F020E04F2D64E1C8010E94E3
:102F5000A61520E04F2D60E1C8010E94A61564E18E
:102F600070E080E090E00E947D0A0F900F900F903B
:102F70000F90DF91CF911F910F91FF90DF90CF9035
:102F8000089589819A81AB81BC819D7F8330914076
:102F9000A041B105C1F264E670E080E090E00E94DB
:102FA0007D0A81E0C81AD10819F6CDCFFC0188E767
:102FB00091E09183808373836283128613861486E3
:102FC000158616861786108A148288E085839CE30E
:102FD000968391E09783808784E0818761157105EE
:102FE000B1F0DB01AA5ABF4F80E090E02D913D91F6
:102FF000232B49F48B96880F991FDB01A80FB91F6B
:10300000ED93FC93089501968031910579F7089529
:10301000EF92FF920F931F93CF938C01C62F7A01EB
:10302000FA0180819181A281B3818130F3E09F0711
:10303000F1E0AF07B105D1F060F48115E1E09E0742
:10304000AE07B10571F181309140A140B10571F039
:1030500064C0833021E0920720E1A207B105E1F1CD
:1030600083309340A041B105B9F157C08091FB0274
:10307000811153C020E04C2F61E1C8010E94A615C8
:1030800020E04C2F60E1C8010E94A61520E04C2FE3
:1030900064E0C8010E94FA1581E08093FB0281EB95
:1030A0003DC020E0462F61E1C8010E94A61520E046
:1030B0004C2F60E1C8010E94A6151092FB02F80196
:1030C00062856770C770660F660F660F6C2B828112
:1030D00093810E94830C21C020E04C2F64E1C80141
:1030E0000E94A61520E04C2F60E1C8010E94A615A1
:1030F00064E170E080E090E00E947D0AF801628562
:10310000F70121812695217067704C2FF80182818B
:1031100093810E9446121092FB0280E0CF911F9192
:103120000F91FF90EF900895CF92DF92EF920F935F
:103130001F93CF93DF93CDB7DEB72E970FB6F894DA
:10314000DEBF0FBECDBF6C0181E090E09E878D8712
:10315000E12C8E010F5F1F4F9E01235F3F4F41E027
:10316000F6016285828193810E946E13811151C0A4
:1031700002E011E089818023D1F019861A861B862E
:103180001C869E01275F3F4F44E050E0612FC6013F
:103190000E94D11581110BC0AE01475F5F4F612FB7
:1031A000C6010E940818813B99F1811132C0000FBD
:1031B0001F5F1830F9F611E0F6018385811740F1A1
:1031C00019861A861B861C869E01275F3F4F44E0A6
:1031D00050E0612FC6010E94D115811117C0898569
:1031E0009A85877091708130914081F48B859C85A0
:1031F00081609C878B87AE01475F5F4F612FC6015F
:103200000E940818813B21F0811103C01F5FD4CFB9
:1032100080E02E960FB6F894DEBF0FBECDBFDF91D3
:10322000CF911F910F91EF90DF90CF9008950F9362
:103230001F93CF93DF93FC012089211102C080E00E
:1032400020C0EC010E947B0A0C851D852E853F85E0
:10325000DC01CB01801B910BA20BB30BB7FDEFCFB1
:10326000CE010E949418182F0E947B0ADC01CB012A
:103270008C599F4FAF4FBF4F8C879D87AE87BF87BD
:10328000812FDF91CF911F910F910895CF93DF93FD
:10329000FC01EB0180819181892B21F182818823BE
:1032A00019F1DA012D913C91232BE1F0A881B9812C
:1032B0009C91A381B0E0A81BB10920813181A20FAC
:1032C000B31F9C93828181508283DA018D919C91FE
:1032D000119701978D939C93888199810196998389
:1032E0008883DCCF80E003C08381828381E0DF912B
:1032F000CF910895CF92DF92EF92FF920F931F9399
:10330000CF93DF936C01EB017B01E40EF51E00E02F
:1033100010E0CE15DF0561F06991D601ED91FC91C9
:103320000190F081E02DC6010995080F191FF1CF1A
:10333000C801DF91CF911F910F91FF90EF90DF9027
:10334000CF900895809108040895CF93DF9300D023
:103350001F92CDB7DEB79C0180918B05843019F5A3
:1033600093E099833B832A839093E9008FEF9091B8
:10337000E800815095FD06C095ED9A95F1F70000A3
:103380008111F5CF8091E80085FF0DC040E050E04D
:1033900063E070E0CE0101960E94051E8091E80076
:1033A0008E778093E8000F900F900F90DF91CF9170
:1033B0000895CF93DF9300D01F92CDB7DEB7209151
:1033C0008B05243031F522E02983805891099B83B5
:1033D0008A8383E08093E9008FEF9091E800815029
:1033E00095FD06C095ED9A95F1F700008111F5CF96
:1033F0008091E80085FF0DC040E050E063E070E0A0
:10340000CE0101960E94051E8091E8008E77809380
:10341000E8000F900F900F90DF91CF9108952091C9
:103420008B052430F1F422E02093E9002FEF309156
:10343000E800215035FD06C035ED3A95F1F7000062
:103440002111F5CF2091E80025FF0BC040E050E0AE
:1034500065E070E00E94051E8091E8008E77809301
:10346000E8000895CF93DF9320918B05243049F530
:1034700021E02093E90021E8215059F03091E80043
:1034800035FD07C0EFE3F1E03197F1F700C0000030
:10349000F3CF2091E80025FF14C0EC0140E050E09C
:1034A00068E070E00E94051E8091E8008E778093AE
:1034B000E80088E0FE01A0E0B4E001900D928A955A
:1034C000E1F7DF91CF910895CF93C091FE02C11132
:1034D0000BC00E94E00A643C79408105910520F010
:1034E00081E08093FE02C1E08C2FCF910895FF927E
:1034F0000F931F93CF93DF93D82F0FB607FE83C090
:1035000080918B05843081F08091030190E00196D9
:103510002091050130E0822393232091040130E0C3
:103520008217930709F0CDC00E94641A811110C060
:103530008091030190E001962091050130E0822303
:1035400093232091040130E08217930709F0B9C05A
:103550000E94D40A8C01C091E900CF709091EC00D8
:10356000892F817090FD80E8C82B84E08093E9006A
:1035700085E0F82E8091EB0085FD42C08091EB0044
:1035800080FF3EC08091EE0087FF3AC08091040129
:1035900090910301981709F457C09091E80095FFA6
:1035A0008EC0E0910101F0910201E80FF11D208130
:1035B0008F5F909105018923809304012093F1008E
:1035C0008091E80085FDE2CF8091E80080FFDECFAA
:1035D0008091E8008E778093E800F0920001D6CFCA
:1035E0008091030190E001962091050130E0822353
:1035F00093232091040130E08217930709F44CC013
:10360000CF70C093E90040910301842F90E00196B0
:103610002091050130E0822393232091040130E0C2
:103620008217930709F450C0E0910101F091020163
:10363000E40FF11DD083809103018F5F909105010C
:1036400089238093030140C08091E80085FF37C043
:10365000D093F10021E03091F3008091F20090E0EE
:10366000932B892B91F08091E80080FF0EC0809110
:10367000E80085FF03C01092F100F9CF8091E800C7
:103680008E778093E800F0920001222309F4A8CFFE
:10369000CF70C093E90018C080910001882309F41D
:1036A000AFCF0E94D40A9C018017910711F48901C1
:1036B00061CF90910001915090930001F8CF20E0EC
:1036C000CACF40910301B0CF80E0DF91CF911F912D
:1036D0000F91FF90089580918A05811104C00E9486
:1036E0006F200C94CC20089510928A0508950895B7
:1036F00042E061EC81E00E947E1D42E061EC82E0EC
:103700000E947E1D42E061EC83E00E947E1D42E249
:1037100061EC84E00C947E1D80918D05833009F46A
:1037200053C030F4813071F0823009F48CC00895B8
:103730008A3009F478C08B3009F45EC0893009F012
:103740009AC020C080918C05813A09F094C0809184
:10375000E800877F8093E800809190059091910523
:10376000892B21F468E080E094E003C060E080E011
:1037700090E070E00E94501E8091E8008B7780936B
:10378000E800089580918C05813209F074C0809121
:10379000900590919105892B09F06DC08091E8000A
:1037A000877F8093E8008091E80082FD05C08091CA
:1037B0008B058111F8CF5FC08091F10080930804E0
:1037C0008091E8008B7753C080918C05813A09F095
:1037D00052C08091900590919105892B09F04BC0C2
:1037E0008091E800877F8093E8008091E80080FF67
:1037F000FCCF8091100136C080918C058132D9F5C3
:103800008091900590919105892BA9F58091E80010
:10381000877F8093E8000E94B31D80918E0580937E
:1038200010010C94F72380918C05813221F5809151
:10383000E800877F8093E8000E94B31D80918F0588
:1038400080930904089580918C05813AA1F48091B8
:10385000E800877F8093E8008091E80080FFFCCF3C
:10386000809109048093F1008091E8008E77809325
:10387000E8000C94B31D0895809108048093FF0222
:10388000109208040E9401230C94F7230C943C1C12
:103890000E94F82D8091FF028093080408950C94F3
:1038A000481C08950C94511C0C94511CCF9384B760
:1038B000877F84BF0FB6F894A895809160008861D7
:1038C00080936000109260000FBE90E080E80FB619
:1038D000F89480936100909361000FBE87E79AE1AE
:1038E0000E949F2D86E091E00E9401228CE592E0EB
:1038F0000E94A0020E94541C0E9454220E946F2029
:103900000E94CC2078940E94562280918B058430AE
:1039100019F00E949108F9CF8AE492E00E94A00277
:103920000E94521C88E392E00E94A002C4E08091B1
:103930008B05853019F40E949308F9CF0E945A2212
:103940002091E4003091E5008091FC029091FD020D
:103950002817390761F38091E4009091E500909376
:10396000FD028093FC020E94641A882301F3809177
:103970008B058430E1F68091E9008F702091EC0096
:10398000922F917020FD90E8892BC093E9009091CF
:10399000EB0090FF43C09091EE0097FF3FC09091E5
:1039A000040120910301291709F12091E80025FF66
:1039B0001DC0E0910101F0910201E90FF11D30817C
:1039C0009F5F209105019223909304013093F100B1
:1039D0009091E80095FDE3CF9091E80090FFDFCF54
:1039E0009091E8009E779093E800D9CF9091F300F2
:1039F0002091F20030E0392B232B81F09091E800E8
:103A000090FF0CC09091E80095FF03C01092F10068
:103A1000F9CF9091E8009E779093E8008F708093A3
:103A2000E90085CF292F332723303105C9F060F411
:103A30002130310581F02230310509F041C084E7A1
:103A400090E024EC32E040C021323105E1F0223236
:103A5000310531F135C082E190E028E333E034C034
:103A600099278130910549F028F0029749F5E2E75E
:103A7000F2E005C0E0ECF2E002C0E0EBF2E084919D
:103A800090E09F0121C064307105D0F4660F771F6C
:103A9000FB01EA56FE4F2081318189E090E014C09D
:103AA0006430710568F4FB01EE0FFF1FE257FE4F13
:103AB00020813181FB01E657FE4F808190E004C0F8
:103AC00080E090E020E030E0FA0131832083089527
:103AD00080E189BD82E189BD09B400FEFDCF8091FE
:103AE000D8008F7D8093D8008091E0008260809321
:103AF000E0008091E00081FDFCCF0895982F973081
:103B000068F59093E900981739F07091EC002091D6
:103B1000ED005091F00003C0242F762F50E021FDDE
:103B200002C09F5FECCF3091EB003E7F3093EB0003
:103B30003091ED003D7F3093ED003091EB0031602E
:103B40003093EB007093EC002093ED005093F00065
:103B50002091EE0027FDE5CF80E008958F708093DF
:103B6000E90081E0089580918C0587FF11C0809164
:103B7000E80082FD05C080918B058111F8CF11C04E
:103B80008091E8008B770BC080918B05882349F0EA
:103B90008091E80080FFF8CF8091E8008E778093D5
:103BA000E80008952091E4003091E50095E6409109
:103BB000EC00842F817040FF23C08091E80080FDDD
:103BC0001DC080918B05882399F0853099F08091F4
:103BD000EB0085FD11C04091E4005091E5002417F1
:103BE000350729F3915011F09A01E1CF84E008954F
:103BF00082E0089583E0089581E0089580E00895CB
:103C00004091E80042FFDDCF0895CF92DF92EF921E
:103C1000FF920F931F93CF93DF93EC018B017A01F7
:103C20000E94D21D811133C0E114F10439F0F70173
:103C300080819181081B190BC80FD91FC12CD12C71
:103C40000115110519F18091E80085FD16C08091DC
:103C5000E8008E778093E800E114F10449F0F70161
:103C600080819181C80ED91ED182C08285E00FC0AB
:103C70000E94D21D882321F30AC089918093F1000C
:103C800001501109FFEFCF1ADF0ADACF80E0DF9190
:103C9000CF911F910F91FF90EF90DF90CF900895FB
:103CA00020919205309193052617370748F061154A
:103CB000710539F42091E8002E772093E80001C0C7
:103CC000B901FC0120E06115710579F180918B0546
:103CD0008823F1F18530F1F18091E80083FD3CC04B
:103CE0008091E80082FD2EC08091E80080FFEBCF3C
:103CF0002091F3008091F20090E0922B6115710504
:103D000051F08830910538F421912093F1006150F1
:103D100071090196F3CF21E0089709F020E0809126
:103D2000E8008E778093E800CECF2111CFCF0AC074
:103D300080918B05882361F0853061F08091E800E7
:103D400083FD0AC08091E80082FFF2CF80E00895F1
:103D500082E0089583E0089581E00895209192051E
:103D6000309193052617370748F06115710539F42E
:103D70002091E8002E772093E80001C0B901FC01F2
:103D800020E06115710591F180918B05882309F47C
:103D900040C0853009F43FC08091E80083FD3DC0FC
:103DA0008091E80082FD2FC08091E80080FFE9CF7C
:103DB0002091F3008091F20090E0922B6115710543
:103DC00059F08830910540F424912093F100319608
:103DD000615071090196F2CF21E0089709F020E0C7
:103DE0008091E8008E778093E800CBCF2111CCCF73
:103DF0000AC080918B05882361F0853061F0809145
:103E0000E80083FD0AC08091E80082FFF2CF80E0E5
:103E1000089582E0089583E0089581E008951F9356
:103E2000CF93DF93CDB7DEB7AA970FB6F894DEBF76
:103E30000FBECDBFECE8F5E08091F100819325E065
:103E4000E439F207C9F70E948C1B8091E80083FFD8
:103E50002EC180918C0590918D05492F50E04A30FC
:103E6000510508F024C1FA01EA5AFF4F0C94A03220
:103E7000803821F0823809F01AC108C08091880585
:103E800090918905992389F082600FC080919005F7
:103E90008F70873008F00BC18093E9008091EB00B0
:103EA00085FB882780F91092E9009091E800977FC0
:103EB0009093E8008093F1001092F100D1C0282F78
:103EC0002D7F09F0F4C0882319F0823061F0EFC033
:103ED00080918E05813009F0EAC0933009F080E0CE
:103EE000809389052EC080918E0581112AC0809112
:103EF00090058F702FEF280F263008F0D8C08093E0
:103F0000E9002091EB0020FF1CC0933021F4809148
:103F1000EB00806214C09091EB0090619093EB00F5
:103F200021E030E0A90102C0440F551F8A95E2F755
:103F30004093EA001092EA008091EB008860809341
:103F4000EB001092E9008091E800877F8093E80001
:103F50000E94B31DACC08111AAC010918E051F77BD
:103F60008091E3008078812B8093E3008091E800CA
:103F7000877F8093E8000E94B31D8091E80080FF56
:103F8000FCCF8091E30080688093E300111102C0B0
:103F900082E001C083E080938B0589C08058823025
:103FA00008F085C080918E0590918F058C3D53E07F
:103FB000950779F583E08A838AE289834FB7F8947D
:103FC000DE01139620E03EE051E2E32FF0E0509353
:103FD0005700E49120FF03C0E295EF703F5FEF7060
:103FE0008E2F90E0EA3010F0C79601C0C0968D93F6
:103FF0009D932F5F243149F74FBF8091E800877F61
:104000008093E8006AE270E0CE0101960E94501EA3
:1040100016C06091900570919105AE014F5F5F4FA2
:104020000E94121DBC01892B09F441C09091E80047
:10403000977F9093E80089819A810E94AE1E8091BB
:10404000E8008B778093E80032C0803881F580915A
:10405000E800877F8093E800809187058093F100D6
:104060008091E8008E7772CF811121C080918E05FA
:1040700090918F0599270297D4F48091E800877F6B
:104080008093E80080918E05809387050E94B31D80
:1040900080918705811106C08091E30087FD02C0F1
:1040A00081E001C084E080938B050E94781B8091A1
:1040B000E80083FF0AC08091E800877F8093E800D2
:1040C0008091EB0080628093EB00AA960FB6F89483
:1040D000DEBF0FBECDBFDF91CF911F9108950E942B
:1040E000DD200E94E520E0EEF0E0808181608083A9
:1040F000E8EDF0E080818F77808319BCA7EDB0E018
:104100008C918E7F8C9380818F7E808310928A0524
:1041100008950F931F93CF93DF930E94DD200E9499
:10412000E520C8EDD0E088818F778883888180681A
:10413000888388818F7D888319BC10928B051092AB
:104140008705109289051092880500EE10E0F801AD
:1041500080818B7F808388818160888342E060E0FA
:1041600080E00E947E1DE1EEF0E080818E7F808302
:10417000E2EEF0E0808181608083808188608083CE
:10418000F80180818E7F8083888180618883DF91C0
:10419000CF911F910F910895E8EDF0E080818F7E1F
:1041A0008083E7EDF0E080818160808384E082BFDE
:1041B00081E080938A050C948920E8EDF0E080810D
:1041C0008E7F80831092E20008951092DA001092A0
:1041D000E10008951F920F920FB60F9211242F93B2
:1041E0003F934F935F936F937F938F939F93AF937F
:1041F000BF93EF93FF938091E10082FF0BC080910A
:10420000E20082FF07C08091E1008B7F8093E10094
:104210000E9400228091DA0080FF1FC08091D800A8
:1042200080FF1BC08091DA008E7F8093DA0080913E
:10423000D90080FF0DC080E189BD82E189BD09B44C
:1042400000FEFDCF81E080938B050E946B1B05C0B3
:1042500019BC10928B050E94741B8091E10080FFB5
:1042600019C08091E20080FF15C08091E2008E7F2E
:104270008093E2008091E20080618093E20080916F
:10428000D80080628093D80019BC85E080938B05AC
:104290000E94461C8091E10084FF30C08091E200C2
:1042A00084FF2CC080E189BD82E189BD09B400FE94
:1042B000FDCF8091D8008F7D8093D8008091E10060
:1042C0008F7E8093E1008091E2008F7E8093E200F8
:1042D0008091E20081608093E200809187058823CD
:1042E00011F084E007C08091E30087FD02C081E007
:1042F00001C083E080938B050E944F1C8091E100F8
:1043000083FF29C08091E20083FF25C08091E100F6
:10431000877F8093E10082E080938B051092870570
:104320008091E1008E7F8093E1008091E2008E7F9A
:104330008093E2008091E20080618093E20042E09D
:1043400060E080E00E947E1D8091F0008860809394
:10435000F0000E94771BFF91EF91BF91AF919F9169
:104360008F917F916F915F914F913F912F910F901E
:104370000FBE0F901F9018951F920F920FB60F92BD
:1043800011242F933F934F935F936F937F938F935A
:104390009F93AF93BF93CF93DF93EF93FF93C0911E
:1043A000E900CF708091EC00D82FD17080FDD0E86B
:1043B0001092E9008091F000877F8093F00078945C
:1043C0000E940F1F1092E9008091F0008860809396
:1043D000F000CD2BCF70C093E900FF91EF91DF91FA
:1043E000CF91BF91AF919F918F917F916F915F918D
:1043F0004F913F912F910F900FBE0F901F901895E6
:10440000089590930F0480930E040895E0910E0494
:10441000F0910F04309721F00190F081E02D099484
:1044200080E00895E0910E04F0910F04309721F0A0
:104430000280F381E02D09940895E0910E04F0913B
:104440000F04309721F00480F581E02D0994089540
:1044500020910C0430910D042817390771F09093C6
:104460000D0480930C04E0910E04F0910F0430973A
:1044700021F00680F781E02D0994089520910A0427
:1044800030910B042817390771F090930B04809337
:104490000A04E0910E04F0910F04309721F000849B
:1044A000F185E02D099408950C9402230E94CB0A13
:1044B0000C9482098F929F92AF92BF92CF92DF921B
:1044C000EF92FF920F931F93CF93DF9300D000D012
:1044D0001F92CDB7DEB70E941F0701E114E0F12C57
:1044E0008F2D0E9407084C01F801A080B180A826FA
:1044F000B926A114B10439F4F3940E5F1F4FF0E113
:10450000FF12EECF39C080917C0581FD0E943408F6
:10451000E12CCC24C394D12CC5018C219D21892B65
:1045200021F1E982FA8221E0C4018C219D21892BAD
:1045300009F420E02B830E94D40A8160782F9D83A8
:104540008C8349815A816B818D810E940523498129
:104550005A816B817C818D810E94A52DF80180811B
:1045600091818C259D2591838083E394CC0CDD1C67
:10457000F0E1EF12D1CFC0CF8FEF89838A831B8206
:104580000E94D40A8160782F9D838C8349815A814F
:104590006B818D810E9405230E94A42D0E947C3096
:1045A0000E940622909110048917B9F00E940622F9
:1045B000809310040F900F900F900F900F90DF9149
:1045C000CF911F910F91FF90EF90DF90CF90BF9010
:1045D000AF909F908F900C94B62D0F900F900F90EE
:1045E0000F900F90DF91CF911F910F91FF90EF905F
:1045F000DF90CF90BF90AF909F908F9008950C94D4
:1046000035080895089508950895CF93DF93CDB7A1
:10461000DEB72B970FB6F894DEBF0FBECDBF942F39
:104620004F83252F588769877A878B874A855B85D3
:10463000452B31F02F3F31F481E09F3F19F403C047
:1046400081E001C080E080FD07C04F815885698509
:104650007A858B850E94A52DDE01119686E0FD01ED
:1046600011928A95E9F785E0FE01379601900D9247
:104670008A95E1F749815A816B817C818D819E8188
:104680000E94232A2B960FB6F894DEBF0FBECDBF33
:10469000DF91CF910895882309F45CC09CEF980FB7
:1046A000913A20F090E5980F9E3218F40E94012D67
:1046B0000DC090E2980F983058F4877091E001C0D7
:1046C000990F8A95EAF7892F0E943F2D0C94792D36
:1046D0009BE5980F933070F4853A29F0863A31F0D3
:1046E00083E890E005C081E890E002C082E890E0B5
:1046F0000C94282298E5980F953160F5883A89F056
:10470000893A91F08A3A99F08B3AA1F08C3AA9F063
:104710008D3AB1F08E3AB9F08F3AC1F080E090E076
:1047200017C082EE90E014C089EE90E011C08AEECE
:1047300090E00EC085EB90E00BC086EB90E008C0E7
:1047400083EB90E005C084EB90E002C087EB90E043
:104750000C943E220895882349F19CEF980F913ADA
:1047600020F090E5980F9E3218F40E941E2D0DC087
:1047700090E2980F983058F4877091E001C0990F3B
:104780008A95EAF7892F0E94452D0C94792D9BE597
:10479000980F933020F480E090E00C942822885AFF
:1047A000853120F480E090E00C943E220895882327
:1047B00021F00E943F2D0C94792D0895882321F03B
:1047C0000E94452D0C94792D08950E945F2D0E9422
:1047D0002E2D0E94792D0E9421310E94EF2F80E022
:1047E00090E00E94282280E090E00C943E220E94FB
:1047F0004F2D0C94E523CF92DF92EF92FF920F930F
:104800001F93CF93DF9300D000D01F92CDB7DEB7B8
:104810006C010E94B82D811101C385E0F601DE0113
:10482000119601900D928A95E1F7F6014081518130
:10483000238134812115310531F05F3F31F481E06E
:104840004F3F19F403C081E001C080E080FDE6C263
:10485000F601F280E580E2948FE0E82249835A83F2
:10486000FB82722F3D832C836F2D8D810E947D2CC6
:104870008C010E947C2C0E94762BE12FE295EF7038
:104880008E2F90E0FC01E05AFF4F0C94A032812F54
:10489000807F1F70882311F01295107FFF2049F050
:1048A000112309F452C2812F0E94522D0E94792DAA
:1048B0004CC2802F0E94AB23112309F4AFC2812F79
:1048C0000E94582D0F900F900F900F900F90DF9136
:1048D000CF911F910F91FF90EF90DF90CF900C94AC
:1048E000792D812F807F1F70803211F01295107FFB
:1048F000002319F0013009F12BC0FF20A9F0EE20B0
:1049000059F1F1E0812FEF1228C00F900F900F9016
:104910000F900F90DF91CF911F910F91FF90EF902B
:10492000DF90CF900C94622DEE2021F021E0E21672
:1049300009F474C20E94652D2DC0FF20E9F085E0C6
:104940008E1508F46BC20E943C2D812329F022C0F1
:10495000FF20F1F0E11015C0812F0F900F900F9004
:104960000F900F90DF91CF911F910F91FF90EF90DB
:10497000DF90CF900C94D72394E09E1508F44EC29C
:1049800009C0F601858180FFE0C18F708583E4CF87
:10499000E110EEC1812F61C1812F869586958370CC
:1049A00019F08130B9F03AC2FF2019F0C8019370B4
:1049B00002C080E090E00F900F900F900F900F904A
:1049C000DF91CF911F910F91FF90EF90DF90CF90EB
:1049D0000C942822FF2019F0C801937002C080E0D7
:1049E00090E00F900F900F900F900F90DF91CF916C
:1049F0001F910F91FF90EF90DF90CF900C943E228B
:104A0000802FFF2019F00E94022F02C00E946A2FFF
:104A10000F900F900F900F900F90DF91CF911F91FB
:104A20000F91FF90EF90DF90CF900C94EF2F812F9C
:104A3000837009F070C0F110F1C1202F22952695E6
:104A40002770220F220F602F6F70862F90E0A0E05A
:104A5000B0E06C017D01022E04C0CC0CDD1CEE1C0C
:104A6000FF1C0A94D2F704FF12C08FE090E0A0E090
:104A7000B0E004C0880F991FAA1FBB1F2A95D2F768
:104A8000BC01CD01609570958095909503C060E064
:104A900070E0CB011695169513701230B1F040F509
:104AA0006C297D298E299F29113031F10F900F90AB
:104AB0000F900F900F90DF91CF911F910F91FF906A
:104AC000EF90DF90CF900C94912B6C297D298E294B
:104AD0009F290F900F900F900F900F90DF91CF9123
:104AE0001F910F91FF90EF90DF90CF900C94AB2B24
:104AF0000E94912BC701B6010F900F900F900F905D
:104B00000F90DF91CF911F910F91FF90EF90DF9069
:104B1000CF900C94772BFF2019F0812F817001C06A
:104B20008695882309F47AC1202F2295269527702F
:104B3000220F220F602F6F70862F90E0A0E0B0E070
:104B40006C017D01022E04C0CC0CDD1CEE1CFF1C90
:104B50000A94D2F704FF12C08FE090E0A0E0B0E02A
:104B600004C0880F991FAA1FBB1F2A95D2F7BC014A
:104B7000CD01609570958095909503C060E070E0E0
:104B8000CB011695169513701230B1F040F56C29D3
:104B90007D298E299F29113031F10F900F900F90B0
:104BA0000F900F90DF91CF911F910F91FF90EF9099
:104BB000DF90CF900C94582C6C297D298E299F2949
:104BC0000F900F900F900F900F90DF91CF911F914A
:104BD0000F91FF90EF90DF90CF900C946A2C0E9481
:104BE000582CC701B6010F900F900F900F900F90A7
:104BF000DF91CF911F910F91FF90EF90DF90CF90B9
:104C00000C94462C003FC1F128F480E4800F8032E0
:104C100050F096C0023F09F45EC008F449C0033F5B
:104C200009F46CC08DC0F02FF071EF2E812F8F71C1
:104C3000FF2051F00E94DF2B802FEE2019F082958B
:104C4000807F8BCE8F7089CE0E94002C802FEE202B
:104C500019F08295807F01C08F700F900F900F9098
:104C60000F900F90DF91CF911F910F91FF90EF90D8
:104C7000DF90CF900C94DE23FF20A9F024E02E15C6
:104C800008F4CCC0812F8F710F900F900F900F9070
:104C90000F90DF91CF911F910F91FF90EF90DF90D8
:104CA000CF900C94252C85E08E1508F4B7C0EACF80
:104CB000FF2099F0812F8F710F900F900F900F9020
:104CC0000F90DF91CF911F910F91FF90EF90DF90A8
:104CD000CF900C94DF2BFF2069F3812F8F710F9001
:104CE0000F900F900F900F90DF91CF911F910F9128
:104CF000FF90EF90DF90CF900C94002CFF2089F074
:104D0000812F8F710F900F900F900F900F90DF9168
:104D1000CF911F910F91FF90EF90DF90CF900C9467
:104D2000CA2B0F900F900F900F900F90DF91CF91A3
:104D30001F910F91FF90EF90DF90CF900C94C52BB7
:104D4000FF2099F0EE2009F4B5CF802F0F900F903F
:104D50000F900F900F90DF91CF911F910F91FF90C7
:104D6000EF90DF90CF900C944B23EE2009F4B5CF59
:104D7000802F0F900F900F900F900F90DF91CF9199
:104D80001F910F91FF90EF90DF90CF900C94AB2389
:104D9000412F4F70602FC6010E947C2E0F900F9004
:104DA0000F900F900F90DF91CF911F910F91FF9077
:104DB000EF90DF90CF900C94D12A01112FC0FF20EB
:104DC00069F10E94F7239FEFE0E7F2E09150E040A5
:104DD000F040E1F700C000000F900F900F900F908F
:104DE0000F90DF91CF911F910F91FF90EF90DF9087
:104DF000CF900C94252E412F4F70602FC6010F903D
:104E00000F900F900F900F90DF91CF911F910F9106
:104E1000FF90EF90DF90CF900C947F2E0F900F902B
:104E20000F900F900F90DF91CF911F910F91FF90F6
:104E3000EF90DF90CF9008951F93CF93DF9300D032
:104E400000D01F92CDB7DEB7942F4983252F5A8308
:104E50006B837C838D834C815D81452B31F02F3FAB
:104E600031F481E09F3F19F403C081E001C080E08C
:104E7000182F117080FD31C049815A816B817C816E
:104E80008D810E947D2C292F22952F702C3030F49B
:104E90002A30A0F42250223030F022C02C30C9F049
:104EA0002F30B9F01DC0853A28F48430C0F4823028
:104EB00028F415C090E2980F983088F0883E30F4BE
:104EC000803E68F48450813A58F409C0803F41F430
:104ED00006C093FB112710F903C010E001C011E0D8
:104EE000812F0F900F900F900F900F90DF91CF9127
:104EF0001F910895CF93DF9300D000D01F92CDB7BC
:104F0000DEB70F900F900F900F900F90DF91CF9121
:104F10000895CF93DF9300D000D000D0CDB7DEB797
:104F200026960FB6F894DEBF0FBECDBFDF91CF91AE
:104F300008951F93CF93DF93C091310416E08091C1
:104F40003204C81799F0D0E01C9FF0011D9FF00DAE
:104F50001124ED5CFB4F408151816281738184811A
:104F600095810E9489272196C770E9CFDF91CF9163
:104F70001F91089540916304509164046091650409
:104F80007091660480916704909168040C9489275D
:104F9000CF938091680482958F7009F05FC08091F3
:104FA0006504882309F45AC080913104B091320419
:104FB00070916304A0916404409166045091670469
:104FC00091E07F3F09F090E0692FC6E08B1709F46C
:104FD00045C04115510521F0AF3F21F020E003C04D
:104FE00021E001C0262F90E020FD35C0C89FF001D0
:104FF000C99FF00D1124ED5CFB4F21812A132BC0BA
:105000002081271328C02281211125C023813481CA
:105010002417350710F421503109241B350B283C87
:105020003105C8F4209168042F7020612093680432
:1050300026E0289FF001299FF00D1124E85CFB4F2A
:1050400080818F708061808383E694E00E94FB23DF
:10505000CF910C94992701968770B8CFCF9108957E
:10506000AF92BF92CF92DF92EF92FF920F931F9376
:10507000CF93DF93CDB7DEB761970FB6F894DEBF5D
:105080000FBECDBF7C0185E0F701DE011D960190CA
:105090000D928A95E1F7D7014C9111965C91119789
:1050A0001296DC90129713960D911C9114973091E3
:1050B0006304609164048091660490916704009792
:1050C00031F06F3F31F421E03F3F19F403C021E09C
:1050D00001C020E0B22FB170BB2E20FD6EC1A090A8
:1050E0006504AA2009F4CCC02091680408171907A8
:1050F00028F0F801E81BF90BCF0104C080959095CA
:10510000800F911FCC24C394883C910580F0C12C62
:10511000207F09F0A1C0702F198B088B6D2D898914
:105120000E947A2783E694E00E94FB23BDC0822F71
:10513000807F09F056C0561315C0431313C0CD2C01
:10514000D11010C02F702061209368040E94BA27EC
:1051500083E694E00E94FB2380916804D7011596B2
:105160008C935FC10115110531F05F3F31F481E08F
:105170004F3F19F403C081E001C080E080FD03C00F
:1051800081E08D2502C080E090E0B82FB170CB2E79
:1051900080FF1CC0809131042091320436E08217D8
:1051A00009F41CC190E0389FF001399FF00D1124E3
:1051B000ED5CFB4F6181561306C06081461303C04E
:1051C0006281D61203C001968770E9CFCD2CDD2015
:1051D00009F427C180916804816080936804C12C20
:1051E00020C1561308C0431306C0D11004C08091DB
:1051F0006804D701B6C04D875E87DF86702F198B94
:10520000088B6D2D89890E941C27882399F1DD2048
:1052100089F120916804822F82958F7090E0029727
:1052200074F0809163049091640498878F83198649
:105230001B870A872C87CE0107960E94FB2386E0F6
:10524000F701A3E6B4E001900D928A95E1F70E9480
:10525000C8270E94BA2711C0561781F14D875E8773
:10526000DF86702F198B088B6D2D89890E941C2772
:10527000811138C0C7010E94FB23CC24C394D1C044
:105280000817190708F446C0F801E81BF90BCF010D
:10529000883C910508F443C0C12C702F198B088BF2
:1052A0006D2D89890E947A27E3E6F4E086E0DF012C
:1052B0001D928A95E9F70E94BA27B3C04313CECF57
:1052C000D110CCCF80916804F7018583C7010E947B
:1052D000FB2386E0E3E6F4E0DF011D928A95E9F71F
:1052E000CA2C9FC0DD2031F220916804822F829564
:1052F0008F7090E002970CF4A2CF8091630490919C
:1053000064049A8389831B821D830C832E83CE01C0
:10531000019693CF80959095800F911FB9CFCD2C9A
:10532000DD2009F4A7CF561333C0431331C02091B9
:10533000680420FD24C0822F82958F70482F50E092
:1053400041155105E1F0D70115962C9315974F3073
:10535000510549F08F5F982F9295907F822F8F7023
:10536000892B15968C93C7010E94FB2386E0F701D9
:10537000A3E6B4E001900D928A95E1F79CCF86E018
:10538000F701A3E6B4E001900D928A95E1F749C0D8
:105390004D875E87DF86702F198B088B6D2D89896D
:1053A0000E941C2781114BCF8091680481608093FB
:1053B0006804C7010E94FB2334C0DD2009F45ACFE2
:1053C0004D875E87DF86702F198B088B6D2D89893D
:1053D0000E941C27882309F44DCF31CF702F198BE1
:1053E000088B6D2D89890E947D2C292F22952F7085
:1053F000223028F49F7039F0811105C00BC0243091
:1054000028F49F7049F4805E883020F0C7010E9424
:10541000FB23BC2CCB2C05C0F7019581907F99F71D
:10542000F9CF8C2D61960FB6F894DEBF0FBECDBFBD
:10543000DF91CF911F910F91FF90EF90DF90CF9070
:10544000BF90AF9008951F93CF93DF93CDB7DEB792
:105450002C970FB6F894DEBF0FBECDBF4F83588791
:1054600069877A878B879C87CE0107960E943028B0
:105470008823D1F09F8188852A853B85232B31F0B5
:105480008F3F31F481E09F3F19F403C081E001C0F8
:1054900080E080FD47C04F81588569857A858B857E
:1054A0009C850E9489273EC086E0FE013796DE017A
:1054B000119601900D928A95E1F7FF81E8856A8542
:1054C0007B856115710531F0EF3F31F481E0FF3FDD
:1054D00019F403C081E001C080E080FD23C0209169
:1054E000320430E0C9010196877099274091310458
:1054F00050E084179507F1F1F983EA837D836C838B
:1055000096E0929FD001939FB00D1124AD5CBB4FEC
:10551000FE01319601900D929A95E1F78093320445
:105520000E94992716E080913104909132048917E6
:1055300071F1189FC00111248D5C9B4F0E9430288F
:10554000882329F1E09131041E9FF0011124ED5CC4
:10555000FB4F4081518162817381848195810E94DA
:1055600089278091310490E0019687709927809374
:105570003104D9CF0E94F7231092320410923104E3
:10558000E3E6F4E086E0DF011D928A95E9F72C96C8
:105590000FB6F894DEBF0FBECDBFDF91CF911F9144
:1055A0000895DF92EF92FF920F931F93CF93DF93B3
:1055B000FC01892B09F488C0E12CF12CDD24D39463
:1055C000EF0121968491853709F460C058F484373F
:1055D00008F04EC0843008F068C08130D1F08230CD
:1055E00071F172C0883709F45BC050F4863709F452
:1055F00053C0873709F068C08E2D0E944C2D52C0D1
:105600009CE7980F903708F05FC08F770E94AB231C
:105610004EC08F010E5F1F4FFE01849190E2980FE4
:10562000983050F48770FD2D01C0FF0F8A95EAF77E
:105630008F2F0E94522D15C00E944B2314C08F0142
:105640000E5F1F4FFE01849190E2980F983068F42E
:105650008770FD2D01C0FF0F8A95EAF78F2F0E94FA
:10566000582D0E94792DE80122C00E94AB23FBCF68
:10567000CF010296FE01C491CC2361F0EFE9FFE077
:105680003197F1F700C00000C150F6CFCF0102966C
:10569000FE01F490EC010BC00E943C2DE82E07C0E7
:1056A0000E944F2D0E94792D02C00E944B238F2D06
:1056B000882341F0EFE9FFE03197F1F700C00000E7
:1056C0008150F6CFFE017CCFDF91CF911F910F91DA
:1056D000FF90EF90DF9008956093690570936A05DD
:1056E00080936B0590936C050C94B52D08950F93E2
:1056F0001F9300916D0510916E0520916F053091FB
:105700007005602B712B822B932B60936D0570932A
:105710006E0580936F05909370051F910F910C9407
:10572000B42D0F931F9300916D0510916E0520917C
:105730006F0530917005602371238223932360935A
:105740006D0570936E0580936F05909370051F91A2
:105750000F910C94B42D0F931F9300916D05109130
:105760006E0520916F0530917005602771278227A3
:10577000932760936D0570936E0580936F059093EA
:1057800070051F910F910C94B42D60E070E0CB0177
:105790000C946C2B0F931F9341E050E060E070E09D
:1057A0008A019B0104C0000F111F221F331F8A951D
:1057B000D2F7C901B8011F910F910C946C2B0F9374
:1057C0001F9341E050E060E070E004C0440F551FBB
:1057D000661F771F8A95D2F78091690590916A05B7
:1057E000A0916B05B0916C058A019B01082B192BC8
:1057F0002A2B3B2BC901B8011F910F910C946C2BE4
:105800000F931F9341E050E060E070E004C0440F4C
:10581000551F661F771F8A95D2F740955095609562
:1058200070958091690590916A05A0916B05B09182
:105830006C058A019B01082319232A233B23C901F4
:10584000B8011F910F910C946C2B0F931F9341E0A3
:1058500050E060E070E004C0440F551F661F771FE2
:105860008A95D2F78091690590916A05A0916B05A0
:10587000B0916C058A019B01082719272A273B272D
:10588000C901B8011F910F910C946C2B0F931F93BA
:105890000091690510916A0520916B0530916C05A6
:1058A000602B712B822B932B1F910F910C946C2BDF
:1058B0000F931F930091690510916A0520916B0564
:1058C00030916C0560237123822393231F910F91E4
:1058D0000C946C2B0F931F930091690510916A052E
:1058E00020916B0530916C056027712782279327E3
:1058F0001F910F910C946C2B08958F929F92AF92F1
:10590000BF92DF92EF92FF920F931F93CF93DF939B
:1059100000D000D01F92CDB7DEB76B837C838D8320
:105920008A018C819D81892B31F01F3F31F481E008
:105930004F3F19F403C081E001C080E080FF03C045
:1059400080E090E04DC08B818823D1F18090690583
:1059500090906A05A0906B05B0906C0580916D05E4
:1059600090916E05A0916F05B0917005882A992AD3
:10597000AA2ABB2A8FE1E82EF12CD501C4010E2CF6
:1059800004C0B695A795979587950A94D2F780FDA0
:1059900006C081E0E81AF10880F7D12C07C0DE2CA0
:1059A000B8018E2D0E94542E019799F380E1189F23
:1059B000F0011124E759FB4FE00FF11DD08209C01F
:1059C00080E1189FF0011124E759FB4FE00FF11D12
:1059D000D08009831A8369817A818D2D0E94542E8B
:1059E0000F900F900F900F900F90DF91CF911F911C
:1059F0000F91FF90EF90DF90BF90AF909F908F90AE
:105A000008952091110130911201F90132969FEF12
:105A100040E05191851789F09F3F19F4511101C061
:105A2000942F4F5F4630A9F79F3F39F0F901E90FF6
:105A3000F11D97FDFA95828308950895E091110173
:105A4000F09112019F012A5F3F4F9281891301C09B
:105A500012823196E217F307C1F7089581E090E0D2
:105A6000E0911101F0911201E80FF91F10820196E7
:105A700088309105A9F7089580917B05089590914C
:105A80007B05892B80937B050895809590917B05FC
:105A9000892380937B05089580937B050895109258
:105AA0007B05089590917A05892B80937A05089556
:105AB000809590917A05892380937A0508951092B4
:105AC0007A050895809371050895109271050895DF
:105AD0008091110190911201FC0131969C01285F87
