:100000000C9405070C9470070C948E0A0C947007DE
:100010000C9470070C9470070C9470070C94700784
:100020000C9470070C9470070C94F2190C947007E0
:100030000C945B280C9470070C9470070C94700758
:100040000C9470070C9470070C9470070C94700754
:100050000C9470070C94B0280C9470070C947007E3
:100060000C9470070C9470070C9470070C94700734
:100070000C9470070C9470070C9470070C94700724
:100080000C9470070C9470070C9470070C94700714
:100090000C9470070C947007990C9B0CA70CA70C80
:1000A000A70CA70CA70CA70C9D0C9F0CA10CA70CD0
:1000B000A70C9B0CA90CA70CA70C630C990CA70C04
:1000C000A70C9F0CA70CA70CA70CA70CA70CA70CA0
:1000D000A10C990C850CA70C890CA70CA70CA70CDC
:1000E000650C9D0CA70CA70C930CA70CA70CA70CD8
:1000F000670CA50CA70C870CA70C9B0CA70CA70CD6
:10010000970C8B0CA70C8D0C9F0CA70CA70CA70CA5
:10011000950C8F0CA70CA70CA70CA70CA70CA70C71
:10012000A70C910CA70C690CA70CA70C9D0CA70C95
:10013000A70CA50CA70CA70CA70CA70CA70CA70C29
:10014000A70CA70CA70C6B0CA70CA70CA70C930C67
:10015000A70CA70CA70CA70CA70CA70CA70CA70C07
:10016000A70CA70C6D0CA70C6F0C710CA70CA70C9F
:10017000A70C730C750C770CA70C790C7B0CA70CD7
:10018000A70CA70CA30C7D0CA70C810C7F0C830C77
:10019000A70CA70CA70CA70CA50C060D140D200D81
:1001A000200DF80C200D200D200D200D200D200D10
:1001B000200D200D200D200D200D200D200DFA0CFE
:1001C000200DFC0C200D200D200D200D180D200DF4
:1001D0002F0D160D200D200D200D200D200D200DB2
:1001E000200D200D200D200D200D200D200DF00CD8
:1001F0000C0DFE0C100D200D000D200D040D200D1A
:100200000E0D020D120D080D0A0D200D200D200DF2
:10021000200D200D200D200DF20CF40CF60C1A0D03
:100220001C0D200D200D200D1E0D2D0E4D0E5D0EF2
:10023000750E830E8F0EAF0EC60EE90E060F0C1054
:1002400038102D12B3100011DB101D1144114C1188
:10025000521156115C11DD11DF11E111E311E511AD
:10026000ED11ED11ED11E711E911EB113D186418D5
:100270005C1964185C19B018D3185C192A1939195B
:100280003E1E3E1E761E761EF11E251F1C211C21C1
:100290003C1F1C21CD1ECD1ED6201C21EB20092188
:1002A00072253032582000522000643A2575200013
:1002B000633A257520006973723A2530345820005E
:1002C00077253032582000214353335F4630210ACE
:1002D00000214353335F5245414459210A002143D1
:1002E00053335F5245534554210A00214353325F33
:1002F00045305F4630210A00214353325F463021AA
:100300000A00214353325F4530210A002143533212
:100310005F494E4954210A00214353315F45305F04
:1003200025303258210A000A5B434C525D20004CB4
:100330002575200053257520000A49443A2530349C
:100340005828257325732920000A556E6B6E6F7728
:100350006E2049443A205265706F727420746F2089
:10036000544D4B20004E4720004F4B20000A35359E
:1003700037365F43533832683A00522575200057AC
:100380002575200057257520005725752000582514
:10039000752000412575200049257520005B4348E4
:1003A000475D20000A2575205052543A25303258B6
:1003B000204953523A2530345820005B5253545D43
:1003C00020000A2575204552523A253032582049DE
:1003D00053523A253034582000007B460102037600
:1003E0003A687F6577482B353B6978796439141E04
:1003F0003C6A7A1D16041A1F3D6B061B0708212054
:100400003E6C2C19091715223F6D11050B0A1C2390
:10041000406E7E100D182425416F360E0C122726D3
:10042000427037380F33132D43717534322F2E44F9
:10043000727C7D28303174457351504A524D492A9F
:100440005466594F5C5F4C4B4E62635A5D5E602947
:100450005367585B56576147554842403E3C3A3BCC
:10046000456843413F3D2B357E697A790078141EFB
:100470007C6A7B1D16041A1F7F6B061B0708212050
:100480004D6C2C19091715224A6D11050B0A1C23F6
:100490004C6E49100D182425516F360E0C1227266C
:1004A0004F7037380F33132D52717534502F2E4E35
:1004B00072397D283065314B735464586776012A50
:1004C000773259745C5F66020362635A5D5E60292D
:1004D0005344575B565561474680291E1F202122F1
:1004E00023242526272D2E2A2B141A0815171C180D
:1004F0000C12132F302878041607090A0B0D0E0F63
:1005000033343579311D1B06190511103637387D06
:10051000557A2C393A3B3C3D3E3F4041424353479C
:100520005F6061565C5D5E57595A5B626346486422
:100530004445677B7F650301025250514F68696AE9
:100540006B6C6D6E6F7071725800494C754A4D73CB
:100550004B4E767C777E7466540A4C6F6F702073B6
:10056000746172742E0A000A55534220636F6E66DE
:100570006967757265642E0A000A544D4B3A31342E
:10058000373537352F4C5546413A64366137646606
:100590000A003403490042004D002000500043008F
:1005A00020006B006500790062006F00610072003E
:1005B0006400200063006F006E007600650072002A
:1005C00074006500720000000E0374002E006D00C0
:1005D0002E006B002E0000000403090409025B00DA
:1005E000030100A0320904000001030101000921F8
:1005F00011010001223900070581032000010904CF
:1006000001000103010200092111010001227F0004
:10061000070582030800010904020002030000002C
:100620000921110100012222000705830320000196
:10063000070503032000011201100100000008ED6E
:10064000FEEE1B0100010200010631FF0974A10149
:100650000975150026FF0095207508810209761599
:100660000026FF00952075089102C005010902A12E
:10067000010901A1008501050919012908150025B5
:10068000019508750181020501093009311581259F
:100690007F95027508810609381581257F950175BA
:1006A000088106050C0A38021581257F9501750819
:1006B0008106C0C005010980A1018502160100263E
:1006C00037001A81002AB700751095018100C00516
:1006D0000C0901A1018503160100269C021A0100E4
:1006E0002A9C02751095018100C005010906A1012F
:1006F000050719E029E71500250195087501810214
:1007000005081901290595057501910295017503E3
:1007100091010507190029F71500250195F87501C4
:100720008102C0636F6E73756D65723A2025303437
:10073000580A0073797374656D3A20253034580A6D
:10074000000A002530325820006B6579626F6172B3
:10075000643A20004C45443A20253032580A00259E
:10076000583A253031366225730A000A202030318C
:1007700032333435363738394142434445460A002E
:1007800064656C5F6B65795F6269743A2063616E62
:1007900027742064656C3A20253032580A00616461
:1007A000645F6B65795F6269743A2063616E277478
:1007B000206164643A20253032580A00290A002555
:1007C00075002F002575005D280025640020002598
:1007D0006400200025640020002564007C00253092
:1007E0003258006D6F7573656B6579205B62746E4E
:1007F0007C782079207620685D287265702F61638F
:100800006C293A205B006D6B5F776865656C5F747F
:10081000696D655F746F5F6D6178203D2025640AA6
:10082000006D6B5F776865656C5F6D61785F737095
:10083000656564203D2025640A006D6B5F74696DF9
:10084000655F746F5F6D6178203D2025640A006DDF
:100850006B5F6D61785F7370656564203D20256412
:100860000A006D6B5F696E74657276616C203D2065
:1008700025640A006D6B5F64656C6179203D2025FD
:10088000640A006D6B5F776865656C5F74696D65A0
:100890005F746F5F6D6178203D2025640A006D6B89
:1008A0005F776865656C5F6D61785F7370656564BF
:1008B000203D2025640A006D6B5F74696D655F746F
:1008C0006F5F6D6178203D2025640A006D6B5F6D60
:1008D00061785F7370656564203D2025640A006D52
:1008E0006B5F696E74657276616C203D2025640AC9
:1008F000006D6B5F64656C6179203D2025640A00A2
:100900000A00257500363A20776865656C5F746962
:100910006D655F746F5F6D61783A20000A00257520
:1009200000353A20776865656C5F6D61785F73703C
:100930006565643A20000A00257500343A20746920
:100940006D655F746F5F6D61783A20000A002575F0
:1009500000333A206D61785F73706565643A2000FA
:100960000A00257500323A20696E74657276616CF2
:10097000286D73293A20000A00257500313A206459
:10098000656C6179282A31306D73293A20000A0993
:100990002D2056616C756573202D0A004D3E004D6B
:1009A00025643E20003F00736574206465666175B0
:1009B0006C740A00433E20007768657265206465A8
:1009C0006C74613A20637572736F723D25642C20DC
:1009D000776865656C3D25640A53656520687474A5
:1009E000703A2F2F656E2E77696B69706564696147
:1009F0002E6F72672F77696B692F4D6F7573655F07
:100A00006B6579730A000A092D204D6F7573656B4C
:100A10006579202D0A4553432F713A097175697420
:100A20000A313A0964656C6179282A31306D73297D
:100A30000A323A09696E74657276616C286D7329A1
:100A40000A333A096D61785F73706565640A343AF8
:100A50000974696D655F746F5F6D61780A353A0975
:100A6000776865656C5F6D61785F73706565640A52
:100A7000363A09776865656C5F74696D655F746F98
:100A80005F6D61780A0A703A097072696E74207637
:100A9000616C7565730A643A0973657420646566F0
:100AA00061756C74730A75703A092B310A646F773B
:100AB0006E3A092D310A706775703A092B31300A88
:100AC0007067646F776E3A092D31300A0A7370656A
:100AD0006564203D2064656C7461202A206D617816
:100AE0005F7370656564202A202872657065617483
:100AF000202F2074696D655F746F5F6D6178290ABE
:100B0000003F004D3E2000433E20004C25640A007B
:100B10000A092D20436F6E736F6C65202D0A4553B3
:100B2000432F713A09717569740A6D3A096D6F75D1
:100B300073656B65790A000A092D204D6167696349
:100B4000202D0A643A0964656275670A783A096477
:100B500065627567206D61747269780A6B3A096421
:100B600065627567206B6579626F6172640A6D3AC0
:100B7000096465627567206D6F7573650A763A0959
:100B800076657273696F6E0A733A0973746174756E
:100B9000730A633A09636F6E736F6C65206D6F64DF
:100BA000650A302D343A096C61796572302D34282C
:100BB0004631302D4634290A506175733A09626F07
:100BC0006F746C6F616465720A6E3A094E4B524FD6
:100BD0000A003F004E4B524F3A206F66660A004EA5
:100BE0004B524F3A206F6E0A0074696D65725F72E6
:100BF000656164333228293A202530346C580A0064
:100C00006B6579626F6172645F6E6B726F3A2025FB
:100C1000580A006B6579626F6172645F69646C6524
:100C20003A2025580A006B6579626F6172645F70C3
:100C3000726F746F636F6C3A2025580A00686F7387
:100C4000745F6B6579626F6172645F6C6564732851
:100C5000293A2025580A000A092D20537461747519
:100C600073202D0A004743433A20352E342E30207E
:100C70004156522D4C4942433A20322E302E3020DC
:100C80004156525F415243483A2061767235310AEB
:100C9000004F5054494F4E533A204C554641204D39
:100CA0004F5553454B45592045585452414B455992
:100CB00020434F4E534F4C4520434F4D4D414E44E2
:100CC000204E4B524F204B45594D41505F534543A9
:100CD00054494F4E20424F4F544C4F414445525F70
:100CE00053495A450A004255494C443A2031343759
:100CF000353735202831363A33313A30372041758F
:100D0000672031362032303231290A005649443AC0
:100D10002030784645454428742E6D2E6B2E2920B0
:100D20005049443A203078316265652849424D2067
:100D30005043206B6579626F61726420636F6E76D9
:100D4000657274657229205645523A2030783030E9
:100D500030310A00444553433A20636F6E76657222
:100D6000742049424D205043206B6579626F617257
:100D70006420746F205553420A000A092D205665DD
:100D80007273696F6E202D0A000A6D6F7573653A74
:100D9000206F66660A000A6D6F7573653A206F6E84
:100DA0000A000A6B6579626F6172643A206F666649
:100DB0000A000A6B6579626F6172643A206F6E0A8D
:100DC000000A6D61747269783A206F66660A000ADB
:100DD0006D61747269783A206F6E0A000A64656208
:100DE00075673A206F6E0A000A64656275673A207B
:100DF0006F66660A000A0A626F6F746C6F616465E1
:100E0000722E2E2E2000433E200011241FBECFEF55
:100E1000D0E2DEBFCDBF04B603FE49C08091DB0344
:100E20009091DC03A091DD03B091DE038730904BFD
:100E3000A740B04B09F03BC01092DB031092DC03DB
:100E40001092DD031092DE0314BE0FB6F894A8953D
:100E500080916000886180936000109260000FBEF6
:100E60001092010810920008E3E0F0E089E080931E
:100E70005700E491E695E370E150E33040F4F0E090
:100E8000EE0FFF1FE85AFE4F2081318102C020E0A3
:100E900030E280E090E0A2E0B0E0821B930BA10979
:100EA000B109B595A79597958795FC01099511E02E
:100EB000A0E0B1E0E8EFF1E600E00BBF02C0079070
:100EC0000D92A836B107D9F723E0A8E6B1E001C03A
:100ED0001D92AB3DB207E1F70E9456150C94FA3013
:100EE0000C940000FF93EF93E0916801F091690189
:100EF000309709F00995EF91FF910895FC018591D4
:100F0000803011F0EFDFFBCF0895FF27E0E230E201
:100F100047FF0CC0419597FF09C0EDE260957095C1
:100F200080959095611D711D811D911D27FF02C047
:100F3000219530E350E2AA27660F771F881F991F7B
:100F4000AA1FA41710F0A41B63955A95A9F7AA30FD
:100F500008F0A95FA05DAF93F39561157105810558
:100F6000910541F7ED3211F4EF93F395F21718F470
:100F70003F93F395FBCF8F91B5DFFA95E1F7089595
:100F8000E991F9918591803021F0853219F0AADF3D
:100F9000F9CF089520E0E89455915532C1F35033CC
:100FA00011F4689455915A3348F4505390F3220F3A
:100FB000022E220F220F200D250FF4CF0EF42195C3
:100FC00089919991533619F3533729F1533559F1D2
:100FD000BC0188279927E8945C3621F4899199917E
:100FE00068945591543639F446EF7EF077FF0DC082
:100FF0008FEF9FEF0AC055374AE039F0583540E18E
:1010000021F0523642E009F00895FF93EF937DDF1F
:10101000EF91FF91B7CFFF93EF93FC018191803067
:10102000B9F360DFFBCFFF93EF9368DFF1CFDF937E
:10103000CF93CDB7DEB72596A3DFCF91DF9108958B
:101040005998519A08955198599A08955898509AD4
:1010500008955098589A08955198599A85E08A951C
:10106000F1F7000089B18695817008955098589ADB
:1010700085E08A95F1F7000089B181700895CF93DA
:10108000DF93EC010E942C08882341F0209731F077
:1010900085E08A95F1F700002197F4CFCE01DF912A
:1010A000CF910895CF93DF93EC010E942C0881111A
:1010B00008C0209731F085E08A95F1F7000021976C
:1010C000F4CFCE01DF91CF9108952E9826982F98D6
:1010D00027980E9420080E942908E9E6F0E0808114
:1010E00088608083E998EBE6F1E080E791E0918306
:1010F0008083128213828FE084830895E19AE99AB3
:101100000E9423080C942908E9980E9420080C9456
:10111000290810928301109282011092810110928D
:10112000800180E090E89093010180930001EBE65C
:10113000F1E0128213820895CF93DF9380916D01C5
:1011400090E0019620916F0130E08223932320915B
:101150006E0130E08217930741F40E948908E19AFA
:10116000E99A0E9423080E9429082FB7F894E09179
:101170006B01F0916C0190916F0180916E01309143
:101180006D01381749F0E80FF11DC0818F5F892389
:1011900080936E01D0E002C0CFEFDFEF2FBFCF3FD3
:1011A0008FEFD80781F08091BE0380FF0CC0DF93E2
:1011B000CF9380EA92E09F938F930E9417080F903D
:1011C0000F900F900F90CE01DF91CF910895CF93A4
:1011D000CAE1C15069F00E949C088F3F2FEF92072F
:1011E00049F48FE99FE00197F1F700C00000F1CFCB
:1011F0008FEF9FEFCF9108953F924F925F926F9242
:101200007F928F929F92AF92BF92CF92DF92EF9296
:10121000FF920F931F93CF93DF93C82F10928001FB
:101220008091BE0380FF0CC01F92CF9380EC92E0B0
:101230009F938F930E9417080F900F900F900F901D
:10124000809100019091010181159048A1F0809159
:10125000BE0380FF10C080910001909101019F9317
:101260008F9386EB92E09F938F930E9417080F90C5
:101270000F900F900F9080910001909101018115C6
:101280009048C9F70E942C08811114C08091BE03B8
:1012900080FF10C088EE93E00E9452089F938F93C6
:1012A00080EB92E09F938F930E9417080F900F900E
:1012B0000F900F900E943608811120C08091BE03CC
:1012C00080FF1CC008EE13E00E94360881110AC09E
:1012D0000115110539F085E08A95F1F700000150FC
:1012E0001109F2CF1F930F938AEA92E09F938F9395
:1012F0000E9417080F900F900F900F90E9988BE0C5
:10130000E82EFF24F394D0E03324339496E0492E62
:1013100027E0522E38E0B32E45E0A42E54E0952E5F
:1013200063E0862E72E0772E66246394E7EACE2E81
:10133000E2E0DE2E0E9420080E9429088FE193E05F
:101340000197F1F700C000000E9426088FE193E0AA
:101350000197F1F700C000000E94230880E197E2A6
:101360000E943F08892B19F4609280019AC000E026
:1013700010E090E59A95F1F7CE01002E02C0959508
:1013800087950A94E2F780FF04C0F3240E9429089D
:1013900002C00E94260882E390E00E945208892B36
:1013A00019F4709280017DC082E390E00E943F08B2
:1013B000892B19F48092800174C00F5F1F4F083091
:1013C0001105B9F620E52A95F1F7FF2019F00E94E2
:1013D000290802C00E94260882E390E00E94520879
:1013E000892B19F4909280015CC082E390E00E9406
:1013F0003F08892B19F4A092800153C080E58A959B
:10140000F1F70E9429080CE211E00E9436088823B7
:1014100051F00115110561F095E09A95F1F7000082
:1014200001501109F2CF012B19F00CE211E00CC0B0
:101430004092800136C00115110561F025E02A9522
:10144000F1F70000015011090E943608882399F332
:10145000012B19F45092800124C08CE291E00E948B
:101460005208892B19F4B09280011BC00E94890890
:101470000E9423080E942908E19AE99ADF91CF91FE
:101480001F910F91FF90EF90DF90CF90BF90AF90A2
:101490009F908F907F906F905F904F903F900C94B3
:1014A000E70880918001813081F4EA94EE2069F0B0
:1014B000109280018091BE0380FF3CCFDF92CF92DB
:1014C0000E9417080F900F9035CF809180018061A6
:1014D000809380010E9420080E9429088FE39FE1E9
:1014E0000197F1F700C000000E9423080E9429081C
:1014F000E19AE99A8FEF9FEFDF91CF911F910F91C2
:10150000FF90EF90DF90CF90BF90AF909F908F9023
:101510007F906F905F904F903F9008951F920F9231
:101520000FB60F9211240BB60F922F933F934F9348
:101530005F938F939F93EF93FF9329B18091BF03A4
:1015400040910001509101014115504819F48093D8
:101550006A010FC090916A01891B833050F080911D
:10156000000190910101909383018093820180E2B8
:1015700008C1809100019091010196958795909303
:1015800001018093000120FF09C08091000190912A
:101590000101906890930101809300018091000106
:1015A0009091010199278038910509F4F2C0A8F4BF
:1015B0008032910509F4EDC038F4009709F4E9C0D0
:1015C000409709F489C0A9C08034910509F4E1C0AD
:1015D0008035910509F480C0A0C0803C910539F1A7
:1015E00050F48039910509F477C0803A910509F0EB
:1015F00094C084E64DC0803D910509F46DC0803EE5
:10160000910509F08AC080910001909101019093A9
:101610008301809382018091000190910101892FC3
:101620009927909301018093000183E252C084E6E0
:1016300049990FC0882369F095E09A95F1F7000069
:101640008150F6CF882349F095E09A95F1F7000094
:1016500081504999F7CF81119CC0809100019091F0
:101660000101909383018093820180910001909108
:101670000101892F9927909301018093000182E253
:1016800028C0882379F095E09A95F1F70000815001
:10169000499BF7CF07C0882349F095E09A95F1F769
:1016A000000081504999F7CF811173C080910001EA
:1016B00090910101909383018093820180910001B8
:1016C00090910101892F9927909301018093000146
:1016D00081E2809381012BC08091000190910101F2
:1016E0009093830180938201809100019091010188
:1016F00097FF02C080E101C081E180938101809168
:1017000000019091010126E0969587952A95E1F7D1
:1017100090930101809300010AC080910001909193
:101720000101909383018093820180E82AC0809117
:1017300000019091010190916D01E0916B01F09198
:101740006C01E90FF11D808320916F0180916D0183
:101750008F5F822380936D0190E0019630E08223B9
:10176000932320916E0130E08217930719F4E998D2
:101770005998519A90916D0180916E01981303C010
:1017800080E48093800180E090E890930101809351
:101790000001FF91EF919F918F915F914F913F9148
:1017A0002F910F900BBE0F900FBE0F901F901895AA
:1017B000CF93C82F8DEE0E94FC088A3F910521F43B
:1017C0008C2FCF910C94FC08CF910895E82F82952F
:1017D0008770EF7090918A01923069F09330A1F098
:1017E0009130E1F4F0E090E1899FE00DF11D1124CA
:1017F000E752FB4F11C0F0E090E1899FE00DF11D31
:101800001124E75AFB4F08C0F0E090E1899FE00DFA
:10181000F11D1124E752FC4F8491089580E808954A
:101820000E94E60B87FD1EC0E82FE295EF70F0E006
:10183000EE0FFF1FE257FE4F40815181982F9F709E
:1018400021E030E0B90102C0660F771F9A95E2F7F8
:10185000CB019A0126233723232B21F4842B952BAC
:101860009183808308950E94E60B87FD1FC0E82FB7
:10187000E295EF70F0E0EE0FFF1FE257FE4F408160
:1018800051818F7021E030E0B90102C0660F771FEF
:101890008A95E2F7CB019B0124233523232B31F0DA
:1018A0008095909584239523918380830895482F74
:1018B00050E0FA013397E138F10508F048C0E45BE5
:1018C000FF4F0C94DD3087E108958FE108958CE59A
:1018D000089580E6089582E6089587E2089583E5F5
:1018E00008958FE2089589E3089587E308958FE3CB
:1018F000089587E408958FE4089586E508958EE5B8
:1019000008958FE7089580E0089585E608958EE6AE
:1019100008958FE6089580E3089588E3089580E4AC
:10192000089588E4089580E5089587E508958FE592
:10193000089588E1089588E0089580E2089580E19F
:10194000089589E108958DE6089588E208958F77D6
:1019500008958FE008958B35D1F058F48131F9F076
:1019600018F48E3081F00895833159F0843569F090
:1019700008958D3571F068F0823669F08C3769F022
:10198000089581E1089584E508958BE508958DE536
:1019900008958AE608958EE0089587E708958FE018
:1019A00008958C3549F018F4833161F00895863735
:1019B00029F08E3729F0089581E508958EE708957E
:1019C00086E708958DE50895CF93482F50E0FA01FA
:1019D0007C97E834F105A0F5E353FF4F0C94DD301C
:1019E00085E53EC08AE53CC08BE53AC08CE538C051
:1019F0008DE536C08EE534C08FE532C080E630C05C
:101A000081E62EC082E62CC083E62AC08FE628C07D
:101A100081E726C082E724C084E722C085E720C092
:101A200087E71EC088E71CC08AE71AC08CE718C089
:101A30008FE716C080E714C089E712C08BE710C09B
:101A4000C82F1F928F9388E193E09F938F930E94FA
:101A500017080F900F900F900F908C2F01C084E506
:101A6000CF9108950F931F93CF93DF930E948928FE
:101A70008C010E949C08EC01019631F4C8010E947F
:101A8000A128843F9140A8F3CE01DF91CF911F910F
:101A90000F9108950C9465088091BE038160809336
:101AA000BE03EEE8F1E01192119281E0EE39F80701
:101AB000D1F70895E82FF0E0EE0FFF1FE257FE4F39
:101AC0008081918108957770E72FF0E098E0899FF9
:101AD000E00DF11D112484E0EE0FFF1F8A95E1F760
:101AE0006F70E60FF11DEE0FFF1FE050F849859172
:101AF00094910895EEE8F1E01192119281E0EE39AF
:101B0000F807D1F70895982F80918A01823058F014
:101B1000843049F092FB882780F990FD826091FD26
:101B200084600C94D80B08951F93CF93DF9380911A
:101B300080018823B9F1C0918201D0918301109175
:101B400080010E948928DF93CF931F921F939F9358
:101B50008F9382EC93E09F938F930E94170880915C
:101B6000800180752DB73EB7285F3F4F0FB6F894C0
:101B70003EBF0FBE2DBF81110FC0809189018B30F8
:101B800059F48BEB93E09F938F930E9417088CE09E
:101B9000809389010F900F90109280011092830121
:101BA0001092820180918101882309F449C09091AB
:101BB000810180918D01981709F442C0C091820182
:101BC000D0918301109181010E948928DF93CF93E6
:101BD0001F921F939F938F9384EA93E09F938F9319
:101BE0000E94170880918D012DB73EB7285F3F4FA7
:101BF0000FB6F8943EBF0FBE2DBF85FF04C0909175
:101C0000810194FD06C084FF13C08091810185FF8E
:101C10000FC0809189018B3059F48DE993E09F9337
:101C20008F930E9417088CE0809389010F900F908A
:101C30008091810180938D01109283011092820125
:101C4000E09189018E2F90E08D30910508F010C44D
:101C5000FC01EB5EFE4F0C94DD300E9489289F93BF
:101C60008F9388E993E09F938F930E9417081092B7
:101C70008A0110928C0110928B0110928D010E94AA
:101C80007A0D0E948928909388018093870181E0D2
:101C9000809389010E947E085DC00E949C08019685
:101CA000E1F780918701909188010E94A128893BEA
:101CB0009B4008F4DDC382E0D9C30E9489289F932A
:101CC0008F9383E993E09F938F930E9417088FEF80
:101CD0000E94FC080F900F900F900F908A3F910583
:101CE00011F486E0C3C383E0C1C30E9484082E9828
:101CF000269A2F98279A0E9489289093880180938A
:101D0000870184E0B3C380918701909188010E948C
:101D1000A128853F914008F4ABC385E0A7C32E9866
:101D200026982F9827980E9489080E947E080E9472
:101D300089289F938F938EE893E09F938F930E94BF
:101D400017080E948928909388018093870186E074
:101D5000809389010F900F900F900F9089C30E947C
:101D60009C08019609F484C30E9489289F938F934D
:101D700089E893E09F938F930E9417080E94892817
:101D8000909388018093870187E0E2CF809187015B
:101D9000909188010E94A128853F914018F089E028
:101DA000809389010E949C08019609F461C30E94F6
:101DB00089289F938F9384E893E09F938F930E9449
:101DC00017080E948928909388018093870188E0F2
:101DD000BFCF80918701909188010E94A128853F03
:101DE000914018F089E0809389010E949C08019637
:101DF00009F43EC30E9489289F938F938FE793E055
:101E00009F938F930E94170889E0A2CF8091810150
:101E10008131C1F082EF0E94FC088F3F3FEF9307B2
:101E2000A1F08A3F9105A1F40E94320D8F3F2FEF60
:101E3000920789F0D82FCC270E94320D9E01282BC3
:101E4000C9010BC08DEF9FEF08C08FEF9FEF05C05A
:101E50008EEF9FEF02C080E090E090938C01809322
:101E60008B010E9489289F938F938AE793E09F9329
:101E70008F930E94170880918B0190918C010F9095
:101E80000F900F900F90009711F482E010C08F3FD9
:101E90003FEF930711F481E00AC09C012D5F3F4F93
:101EA0002230310590F38F3F910569F484E08093EF
:101EB0008A0120918B0130918C012E3F8FEF3807E2
:101EC00009F067C070C09C0125583B4A223031059B
:101ED00020F082392BEA920771F480EF0E94FC080F
:101EE0008A3F910591F683E00E94FC088A3F9105A4
:101EF00061F683E0DCCF9C0120593B4A223031055A
:101F000000F58DE693E09F938F930E94170880EF72
:101F10000E94FC080F900F908A3F910549F482E8D7
:101F20000E94FC088A3F910519F489E693E002C0FB
:101F300085E693E09F938F930E9417080F900F9070
:101F4000A4CF803B3FEB9307A1F2882781152BEAB2
:101F5000920709F49ACF81153FEB930751F281154F
:101F60009F4739F289E493E09F938F930E9417086B
:101F700080EF0E94FC080F900F908A3F910509F0B6
:101F8000ACCF82E00E94FC088A3F910509F0A5CF02
:101F90007CCF2D3F9FEF390749F02115310549F0DE
:101FA00042E251E008C043E251E005C04DE151E09A
:101FB00002C049E251E080918A01813049F08230CB
:101FC00051F0833059F0843061F08EE391E00BC022
:101FD00082E391E008C08FE291E005C085E391E0E3
:101FE00002C083E491E05F934F939F938F933F935D
:101FF0002F9389E393E09F938F930E9417088AE0C1
:10200000809389012DB73EB7285F3F4F0FB6F894F4
:102010003EBF0FBE2DBF2CC20E9489289F938F9375
:1020200084E393E09F938F930E9417080F900F9083
:102030000F900F9080918A01823029F0833039F41B
:1020400088EF0E94FC080E94E41A0E94830D8BE036
:10205000809389010E9489289F938F938FE293E058
:102060009F938F930E9417080F900F900F900F90DF
:102070000E949C08282F482F592F4F3F3FEF5307AE
:1020800009F4F6C180918A01843009F4F1C1411547
:10209000510519F04F3F510539F40E947A0D0E9405
:1020A000EE1D87E293E0A0C1823009F44EC0833078
:1020B00009F40AC1813009F0DBC1809186018230C8
:1020C00061F128F4882341F0813099F03BC08330DE
:1020D00071F1843091F136C0203E21F0213E21F48F
:1020E00082E022C081E020C0822F27FF48C18F7785
:1020F00076C1263339F118F42A3229F423C02A3A5A
:1021000009F1263BF9F0822F27FD03C00E94E40C61
:1021100011C08F770E94E40C13C02D3121F02D39AE
:1021200089F484E001C083E080938601A1C1253455
:1021300049F485E50E94100C05C0253C19F485E59D
:102140000E94330C1092860193C1822FE091850189
:102150004E2F50E04930510508F0B3C0FA01EE5D52
:10216000FE4F0C94DD3040918B0150918C01405911
:102170005B4A4230510518F4822F0E94AB0C803E1E
:1021800069F030F4833871F0843871F48FE787C0D8
:10219000813E31F0803F41F481E08BC082E089C014
:1021A00084E087C082E07BC087FFE9C00E947A0D8F
:1021B0008CE093E061C040918B0150918C014059BB
:1021C0005B4A4230510528F4213109F44BC12134D6
:1021D00051F0293509F475C0203F19F0223121F45E
:1021E00070C083E066C08CE71092850187FD03C054
:1021F0000E94570CC4C00E947A0D82E093E03CC05C
:1022000040918B0150918C0140595B4A42305105FD
:1022100018F4822F0E94AB0C833821F0843821F40B
:102220008FE74DC082E04BC01092850187FFD7C079
:102230000E947A0D88EF92E01FC040918B0150916F
:102240008C0140595B4A4230510528F4213109F490
:102250000BC1213429F02231A1F1293511F431C00B
:102260008CE71092850187FD03C00E94570CB7C010
:102270000E947A0D8BEE92E09F938F930E94170835
:102280000F900F908CE0F2C0243121F0203FC9F470
:1022900086E00FC085E00DC0273799F480E00E94EA
:1022A000100C0FC0243169F487E003C0203F49F4CB
:1022B00088E080938501DCC0273719F480E00E9414
:1022C000330C10928501D4C0822F2F3B41F028F4AB
:1022D00096E5920F923078F402C02C3F61F4109290
:1022E00084018EED92E09F938F930E9417088CE0FB
:1022F000809389017DC090918401913009F445C09B
:1023000038F0923009F477C0933009F493C0B0C02C
:1023100040918B0150918C0142395B4A19F4822F14
:102320000E94D10C863809F168F48338D1F020F48A
:10233000803819F582E076C08438A9F08538E9F450
:1023400088E61DC08C38A9F030F4873881F08B38CE
:10235000A1F481E014C08D3871F0803F71F481E008
:1023600061C082E00CC08FE70AC088E708C080E047
:1023700006C089E004C08AE002C087FD03C00E9455
:10238000100C76C081ED92E02FC010928401409134
:102390008B0150918C0142395B4A19F4822F0E94C3
:1023A000D10C482F50E0FA01E358F109EB30F10568
:1023B000A0F4E55DFE4F0C94DD3082E010C08FE7A5
:1023C0000EC088E60CC088E70AC080E008C081E043
:1023D00006C089E004C08AE002C087FD03C00E94F5
:1023E000330C46C087EC92E09F938F930E941708AE
:1023F0000F900F903DC0253279F030F4263171F006
:102400002E3199F480E00BC0263221F0203F69F490
:1024100083E008C08DE503C083E501C081E50E942B
:10242000100C05C08093840123C00E947A0D109285
:1024300084011EC02E3169F020F42631B1F781E508
:1024400009C0253221F0263281F78DE503C083E5EE
:1024500001C080E00E94330CEACF0E94EE1D109272
:10246000890106C083E1C0CE83E1FBCE8093890160
:1024700081E0DF91CF911F9108958091C20208956C
:10248000CF93DF9300D01F92CDB7DEB72091D20358
:10249000243021F523E029839B838A8382E0809383
:1024A000E9008FEF9091E800815095FD06C095ED11
:1024B0009A95F1F700008111F5CF8091E80085FF32
:1024C0000DC040E050E063E070E0CE0101960E9454
:1024D0000C178091E8008E778093E8000F900F90A2
:1024E0000F90DF91CF910895CF93DF9300D01F928B
:1024F000CDB7DEB72091D203243061F519821A825C
:102500001B8222E029838138910520F080589109AF
:102510009B838A8382E08093E9008FEF9091E800AB
:10252000815095FD06C095ED9A95F1F70000811157
:10253000F5CF8091E80085FF0DC040E050E063E0FA
:1025400070E0CE0101960E940C178091E8008E7712
:102550008093E8000F900F900F90DF91CF91089536
:102560002091D203243051F522E02093E9002FEF8F
:102570003091E800215035FD06C035ED3A95F1F770
:1025800000002111F5CF2091E80025FF17C0209110
:102590001201222341F021E02093F10040E050E0BD
:1025A00065E070E004C040E050E063E070E00E944D
:1025B0000C178091E8008E778093E8000895CF9300
:1025C000DF932091D203243009F04AC0EC018091BE
:1025D00013018823E1F0809114018823C1F081E088
:1025E0008093E90081E8815049F09091E80095FDE1
:1025F00005C09AE29A95F1F700C0F5CF8091E80006
:1026000085FF2EC040E050E060E270E019C081E03C
:102610008093E90081E8815059F09091E80095FDA0
:1026200007C0EFE3F1E03197F1F700C00000F3CF0E
:102630008091E80085FF14C040E050E068E070E061
:10264000CE010E940C178091E8008E778093E800FD
:1026500080E2FE01A2EAB2E001900D928A95E1F7D4
:10266000DF91CF910895CF93C091A001C1110BC00C
:102670000E949528643C79408105910520F081E015
:102680008093A001C1E08C2FCF910895FF920F930A
:102690001F93CF93DF93D82F0FB607FE83C080918F
:1026A000D203843081F08091050190E00196209161
:1026B000070130E0822393232091060130E0821746
:1026C000930709F0CBC00E943313811110C0809191
:1026D000050190E001962091070130E082239323C9
:1026E0002091060130E08217930709F0B7C00E94DD
:1026F00089288C01C091E900CF709091EC00892F5E
:10270000817090FD80E8C82B83E08093E90085E02C
:10271000F82E8091EB0085FD42C08091EB0080FF98
:102720003EC08091EE0087FF3AC0809106019091F3
:102730000501981709F457C09091E80095FF8CC0E7
:10274000E0910301F0910401E80FF11D20818F5FFA
:10275000909107018923809306012093F1008091D5
:10276000E80085FDE2CF8091E80080FFDECF809118
:10277000E8008E778093E800F0920201D6CF809136
:10278000050190E001962091070130E08223932318
:102790002091060130E08217930709F44AC0CF70F8
:1027A000C093E90040910501842F90E001962091AB
:1027B000070130E0822393232091060130E0821745
:1027C000930709F44EC0E0910301F0910401E40F76
:1027D000F11DD083809105018F5F909107018923BE
:1027E000809305013EC08091E80085FF35C0D093FD
:1027F000F10081E02091F2003091F300232B91F061
:102800009091E80090FF0EC09091E80095FF03C002
:102810001092F100F9CF9091E8009E779093E80034
:10282000F0920201882309F4AACFCF70C093E90087
:1028300018C080910201882309F4B1CF0E94892831
:102840009C018017910711F4890163CF90910201D7
:10285000915090930201F8CF80E0CCCF40910501D8
:10286000B2CF80E0DF91CF911F910F91FF9008953B
:102870008091D103811104C00E9474190C94D6195F
:1028800008951092D1030895089542E261EC81E029
:102890000E94851642E061EC82E00E94851642E2C9
:1028A00061EC83E00C9485168091D403833009F4A5
:1028B00053C030F4813071F0823009F4BAC0089509
:1028C0008A3009F4A6C08B3009F478C0893009F049
:1028D000C8C020C08091D303813A09F0C2C0809162
:1028E000E800877F8093E8008091D7039091D80318
:1028F000892B21F460E282EA92E003C060E080E08C
:1029000090E070E00E9459178091E8008B778093E7
:10291000E80008958091D303813209F0A2C080912C
:10292000D7039091D803892B09F09BC08091E800D0
:10293000877F8093E8008091E80082FD05C0809148
:10294000D2038111F8CF8DC08091F1008093C20233
:102950008091E8008B7781C08091D303813A09F0A0
:1029600080C08091D7039091D803892BA1F48091E6
:10297000E800877F8093E8008091E80080FFFCCF2B
:10298000809113018093F1008091E8008E7780930D
:10299000E8000E94BA168091D7039091D80301975E
:1029A00009F05FC08091E800877F8093E800809104
:1029B000E80080FFFCCF809112014AC08091D303D0
:1029C000813209F04EC08091D7039091D803892BB2
:1029D00069F48091E800877F8093E8000E94BA162E
:1029E0008091D503809313010E94EE1D8091D7033F
:1029F0009091D8030197A9F58091E800877F809393
:102A0000E8000E94BA168091D503809312010C94BD
:102A1000EE1D8091D303813221F58091E800877FFC
:102A20008093E8000E94BA168091D6038093C30277
:102A300008958091D303813AA1F48091E800877FC3
:102A40008093E8008091E80080FFFCCF8091C30272
:102A50008093F1008091E8008E778093E8000C94D9
:102A6000BA1608958091C2028093A1011092C20209
:102A70000E947A0D0C94EE1D0C9432150E9435289C
:102A80008091D003882329F00E94422881110C9460
:102A90006F1608950E9457288091A1018093C20269
:102AA00008950C944A1508950C945315CF9384B748
:102AB000877F84BF0FB6F894A895809160008861E5
:102AC00080936000109260000FBE90E080E80FB627
:102AD000F89480936100909361000FBE86E493E1C7
:102AE0000E94F42788E091E00E94DF1A89E795E0D0
:102AF0000E947E070E944A0D0E949E1B0E9474192C
:102B00000E94D61978940E94A01B8091D203843031
:102B100029F00E94C41A0E945315F7CF87E695E06A
:102B20000E947E070E94541589E595E00E947E0769
:102B3000C3E08091D203853019F40E943E15F9CF8D
:102B40000E941E280E94A41B2091E4003091E50001
:102B500080919E0190919F012817390709F466C062
:102B60008091E4009091E50090939F0180939E01F5
:102B70000E943313882309F459C08091D203843012
:102B800009F054C08091E9008F702091EC00922FE1
:102B9000917020FD90E8892BC093E9009091EB00A3
:102BA00090FF41C09091EE0097FF3DC090910601CB
:102BB00020910501291709F12091E80025FF1DC08A
:102BC000E0910301F0910401E90FF11D30819F5F55
:102BD000209107019223909306013093F100909188
:102BE000E80095FDE3CF9091E80090FFDFCF909152
:102BF000E8009E779093E800D9CF2091F2003091C1
:102C0000F300232B81F09091E80090FF0CC090918D
:102C1000E80095FF03C01092F100F9CF9091E80011
:102C20009E779093E8008F708093E9000E94C41A09
:102C300080CF292F332723303105C9F060F42130AC
:102C4000310581F02230310509F041C08BE590E07B
:102C50002CED35E040C021323105E1F02232310562
:102C600031F135C082E190E027E336E034C09927A6
:102C70008130910549F028F0029749F5E2E9F5E045
:102C800005C0E8EDF5E002C0E8ECF5E0849190E0E5
:102C90009F0121C063307105D0F4660F771FFB01DF
:102CA000EE5AFE4F2081318189E090E014C06330FC
:102CB000710568F4FB01EE0FFF1FE45BFE4F2081FE
:102CC0003181FB01E75BFE4F808190E004C080E032
:102CD00090E020E030E0FA0131832083089584E120
:102CE00089BD86E189BD09B400FEFDCF8091D80081
:102CF0008F7D8093D8008091E00082608093E00017
:102D00008091E00081FDFCCF0895982F973068F501
:102D10009093E900981739F07091EC002091ED0044
:102D20005091F00003C0242F762F50E021FD02C007
:102D30009F5FECCF3091EB003E7F3093EB00309102
:102D4000ED003D7F3093ED003091EB00316030932A
:102D5000EB007093EC002093ED005093F000209175
:102D6000EE0027FDE5CF80E008958F708093E900A5
:102D700081E008958091D30387FF11C08091E8001E
:102D800082FD05C08091D2038111F8CF11C08091DE
:102D9000E8008B770BC08091D203882349F08091A3
:102DA000E80080FFF8CF8091E8008E778093E800FC
:102DB00008952091E4003091E50095E64091EC0003
:102DC000842F817040FF23C08091E80080FD1DC0EA
:102DD0008091D203882399F0853099F08091EB009F
:102DE00085FD11C04091E4005091E500241735079E
:102DF00029F3915011F09A01E1CF84E0089582E027
:102E0000089583E0089581E0089580E00895409159
:102E1000E80042FFDDCF0895CF92DF92EF92FF925C
:102E20000F931F93CF93DF93EC018B017A010E94E4
:102E3000D916811135C0E114F10439F0F701808110
:102E40009181081B190BC80FD91FC12CD12C01155A
:102E5000110529F18091E80085FD18C08091E800F6
:102E60008E778093E8000E94C41AE114F10449F0BF
:102E7000F70180819181C80ED91ED182C08285E080
:102E80000FC00E94D916882311F30AC0899180933C
:102E9000F10001501109FFEFCF1ADF0AD8CF80E00F
:102EA000DF91CF911F910F91FF90EF90DF90CF9026
:102EB00008952091D9033091DA032617370748F097
:102EC0006115710539F42091E8002E772093E80010
:102ED00001C0B901FC0120E06115710569F1809123
:102EE000D2038823E1F18530E1F18091E80083FD90
:102EF0003AC08091E80082FD2CC08091E80080FFFC
:102F0000EBCF8091F2009091F3006115710551F0C3
:102F10008830910538F421912093F10061507109B6
:102F20000196F3CF21E0089709F020E08091E800B6
:102F30008E778093E800D0CF2111D1CF0AC0809145
:102F4000D203882361F0853061F08091E80083FD31
:102F50000AC08091E80082FFF2CF80E0089582E00D
:102F6000089583E0089581E008952091D903309178
:102F7000DA032617370748F06115710539F42091F7
:102F8000E8002E772093E80001C0B901FC0120E0A1
:102F90006115710581F18091D203882309F43EC047
:102FA000853009F43DC08091E80083FD3BC08091ED
:102FB000E80082FD2DC08091E80080FFE9CF80917C
:102FC000F2009091F3006115710559F08830910578
:102FD00040F424912093F1003196615071090196DB
:102FE000F2CF21E0089709F020E08091E8008E7789
:102FF0008093E800CDCF2111CECF0AC08091D203BB
:10300000882361F0853061F08091E80083FD0AC07B
:103010008091E80082FFF2CF80E0089582E0089579
:1030200083E0089581E008951F93CF93DF93CDB798
:10303000DEB7AA970FB6F894DEBF0FBECDBFE3EDA3
:10304000F3E08091F100819323E0EB3DF207C9F7B3
:103050000E9454148091E80083FF2EC18091D30315
:103060009091D403492F50E04A30510508F024C113
:10307000FA01EA5CFE4F0C94DD30803821F0823892
:1030800009F01AC108C08091CF039091D003992311
:1030900089F082600FC08091D7038F70873008F06D
:1030A0000BC18093E9008091EB0085FB882780F9B4
:1030B0001092E9009091E800977F9093E800809348
:1030C000F1001092F100D1C0282F2D7F09F0F4C03B
:1030D000882319F0823061F0EFC08091D5038130F0
:1030E00009F0EAC0933009F080E08093D0032EC04D
:1030F0008091D50381112AC08091D7038F702FEF63
:10310000280F263008F0D8C08093E9002091EB000A
:1031100020FF1CC0933021F48091EB00806214C02A
:103120009091EB0090619093EB0021E030E0A901D9
:1031300002C0440F551F8A95E2F74093EA001092AF
:10314000EA008091EB0088608093EB001092E90028
:103150008091E800877F8093E8000E94BA16ACC097
:103160008111AAC01091D5031F778091E300807868
:10317000812B8093E3008091E800877F8093E800B3
:103180000E94BA168091E80080FFFCCF8091E30096
:1031900080688093E300111102C082E001C083E0E7
:1031A0008093D20389C08058823008F085C0809116
:1031B000D5039091D6038C3D53E0950779F583E0D4
:1031C0008A838AE289834FB7F894DE01139620E060
:1031D0003EE051E2E32FF0E050935700E49120FFEE
:1031E00003C0E295EF703F5FEF708E2F90E0EA3002
:1031F00010F0C79601C0C0968D939D932F5F243128
:1032000049F74FBF8091E800877F8093E8006AE22A
:1032100070E0CE0101960E94591716C06091D70345
:103220007091D803AE014F5F5F4F0E941916BC0129
:10323000892B09F441C09091E800977F9093E800B2
:1032400089819A810E94B5178091E8008B778093DD
:10325000E80032C0803881F58091E800877F809354
:10326000E8008091CE038093F1008091E8008E7792
:1032700072CF811121C08091D5039091D6039927F7
:103280000297D4F48091E800877F8093E8008091D2
:10329000D5038093CE030E94BA168091CE0381118C
:1032A00006C08091E30087FD02C081E001C084E098
:1032B0008093D2030E9445148091E80083FF0AC0E6
:1032C0008091E800877F8093E8008091EB00806226
:1032D0008093EB00AA960FB6F894DEBF0FBECDBF69
:1032E000DF91CF911F9108950E94E5190E94ED1979
:1032F000E0EEF0E0808181608083E8EDF0E08081A5
:103300008F77808319BCA7EDB0E08C918E7F8C9372
:1033100080818F7E80831092D10308950F931F9335
:10332000CF93DF930E94E5190E94ED19C8EDD0E01C
:1033300088818F77888388818068888388818F7D62
:103340008883E7EDF0E080818068808319BC10926B
:10335000D2031092CE031092D0031092CF0300EE4E
:1033600010E0F80180818B7F808388818160888371
:1033700042E060E080E00E948516E1EEF0E08081AE
:103380008E7F8083E2EEF0E08081816080838081A7
:1033900088608083F80180818E7F8083888180614E
:1033A0008883DF91CF911F910F910895E8EDF0E0B0
:1033B00080818F7E8083E7EDF0E080818160808373
:1033C00081E08093D1030C948E19E8EDF0E08081C8
:1033D0008C7F80831092E20008951092DA001092A0
:1033E000E10008951F920F920FB60F9211240BB6B1
:1033F0000F922F933F934F935F936F937F938F938E
:103400009F93AF93BF93EF93FF938091E10082FF6F
:103410000BC08091E20082FF07C08091E1008B7FAA
:103420008093E1000E94C31A8091DA0080FF1FC0E0
:103430008091D80080FF1BC08091DA008E7F80933E
:10344000DA008091D90080FF0DC084E189BD86E15A
:1034500089BD09B400FEFDCF81E08093D2030E94B4
:10346000381405C019BC1092D2030E9441148091F7
:10347000E10080FF19C08091E20080FF15C08091BB
:10348000E2008E7F8093E2008091E2008061809371
:10349000E2008091D80080628093D80019BC85E05A
:1034A0008093D2030E943C158091E10084FF30C0DC
:1034B0008091E20084FF2CC084E189BD86E189BD52
:1034C00009B400FEFDCF8091D8008F7D8093D80095
:1034D0008091E1008F7E8093E1008091E2008F7EF9
:1034E0008093E2008091E20081608093E20080910D
:1034F000CE03882311F084E007C08091E30087FDAC
:1035000002C081E001C083E08093D2030E94511584
:103510008091E10083FF24C08091E20083FF20C0FE
:103520008091E100877F8093E10082E08093D20365
:103530001092CE038091E1008E7F8093E100809114
:10354000E2008E7F8093E2008091E20080618093B0
:10355000E20042E060E080E00E9485160E94441490
:10356000FF91EF91BF91AF919F918F917F916F915B
:103570005F914F913F912F910F900BBE0F900FBE17
:103580000F901F9018950895CF938091D2038823B0
:10359000A1F0C091E900CF709091EC00892F81706B
:1035A00090FD80E8C82B1092E9008091E80083FD2F
:1035B0000E941418CF70C093E900CF9108959093A2
:1035C000C9028093C8020895E091C802F091C9022F
:1035D000309721F00190F081E02D099480E008956A
:1035E000EF92FF920F931F93CF93DF93E091C80266
:1035F000F091C9023097B1F18C010280F381E02D86
:1036000009958091BE0382FF2DC080FF04C089E42C
:1036100097E00E947E07E80110E283E4E82E87E04D
:10362000F82E8091BE0380FF0BC088811F928F937C
:10363000FF92EF920E9417080F900F900F900F903B
:10364000115021961111EDCF8091BE0380FF0AC069
:1036500081E497E0DF91CF911F910F91FF90EF9060
:103660000C947E07DF91CF911F910F91FF90EF9007
:103670000895E091C802F091C902309721F00480CA
:10368000F581E02D09940895CF93DF932091C60230
:103690003091C7022817390709F19093C702809328
:1036A000C602E091C802F091C9023097B9F0EC016E
:1036B0000680F781E02D09958091BE0382FF0EC040
:1036C00080FF0CC0DF93CF9383E397E09F938F93AA
:1036D0000E9417080F900F900F900F90DF91CF91DD
:1036E0000895CF93DF932091C4023091C50228172B
:1036F000390709F19093C5028093C402E091C80292
:10370000F091C9023097B9F0EC010084F185E02D09
:1037100009958091BE0382FF0EC080FF0CC0DF932D
:10372000CF9383E297E09F938F930E9417080F90A7
:103730000F900F900F90DF91CF9108950C945F1C24
:103740000E9480280C944C0D8F929F92AF92BF9252
:10375000CF92DF92EF92FF920F931F93CF93DF935D
:1037600000D000D01F92CDB7DEB70E94940D0BECB5
:1037700012E0F12C8F2D0E945A0D4C01F801A0800F
:10378000B180A826B926A114B10439F4F3940E5FD0
:103790001F4FF8E0FF12EECF39C08091BE0381FDCC
:1037A0000E94601CE12CCC24C394D12CC5018C2137
:1037B0009D21892B21F1E982FA8221E0C4018C212B
:1037C0009D21892B09F420E02B830E9489288160A8
:1037D000782F9D838C8349815A816B818D810E94D2
:1037E000961C49815A816B817C818D810E942028A1
:1037F000F801808191818C259D2591838083E394BC
:10380000CC0CDD1CF0E1EF12D1CFC0CF8FEF89835C
:103810008A831B820E9489288160782F9D838C83F4
:1038200049815A816B818D810E94961C0E941F28BC
:103830000E94F52A0E94E41A9091CA02891759F150
:103840000E94E41A8093CA029091BE0392FF0EC0B8
:1038500090FF0CC01F928F9384E597E09F938F9306
:103860000E9417080F900F900F900F908091CA023E
:103870000F900F900F900F900F90DF91CF911F91AD
:103880000F91FF90EF90DF90CF90BF90AF909F90FF
:103890008F900C9431280F900F900F900F900F90F5
:1038A000DF91CF911F910F91FF90EF90DF90CF901C
:1038B000BF90AF909F908F9008950C94830D0895C2
:1038C000EF92FF920F931F93CF93DF938BE697E0D6
:1038D0000E947E07C0E0D0E082E2E82E81E0F82E70
:1038E0000FE517E08C2F0E945A0D0E940B28FF92C3
:1038F000EF929F938F93DF93CF931F930F930E9429
:10390000170821968DB79EB708960FB6F8949EBFFC
:103910000FBE8DBFC830D10529F7DF91CF911F9120
:103920000F91FF90EF90089508950895CF93DF933E
:10393000CDB7DEB72B970FB6F894DEBF0FBECDBF65
:10394000942F4F83252F588769877A878B874A85DD
:103950005B85452B31F02F3F31F481E09F3F19F417
:1039600003C081E001C080E080FD07C04F81588521
:1039700069857A858B850E942028DE01119686E074
:10398000FD0111928A95E9F785E0FE0137960190D5
:103990000D928A95E1F749815A816B817C818D81F5
:1039A0009E810E9407242B960FB6F894DEBF0FBEAF
:1039B000CDBFDF91CF910895CF93882309F4C4C080
:1039C000C82F8CEF8C0F813A48F48C2F0E943F2E29
:1039D0008111BAC08C2F0E94EF260CC080E28C0FA0
:1039E000883058F4C77081E001C0880FCA95EAF7A3
:1039F0000E949427CF910C94CE278BE58C0F8330B7
:103A000078F4C53A29F0C63A31F083E890E005C071
:103A100081E890E002C082E890E0CF910C94441BD2
:103A200088E58C0F873108F08FC0C83A09F445C08B
:103A3000C93A09F445C0CA3A09F445C0CB3A09F479
:103A400045C0CC3A09F445C0CD3A09F445C0CE3A58
:103A500009F445C0CF3A09F445C0C13B09F445C05B
:103A6000C03B09F445C0C23B09F445C0C33B09F45F
:103A700045C0C43B09F445C0C53B09F445C0C63B3D
:103A800009F445C0C73B09F445C0C83B09F445C02B
:103A9000C93B09F445C0CA3B09F445C0CB3B09F416
:103AA00045C0CC3B09F445C0CD3B09F445C0CE3BF5
:103AB00009F445C080E090E044C082EE90E041C04F
:103AC00089EE90E03EC08AEE90E03BC085EB90E04E
:103AD00038C086EB90E035C083EB90E032C084EBD9
:103AE00090E02FC087EB90E02CC08CEC90E029C0D8
:103AF0008DEC90E026C083E891E023C08AE891E055
:103B000020C082E991E01DC084E991E01AC081E201
:103B100092E017C083E292E014C084E292E011C008
:103B200085E292E00EC086E292E00BC087E292E06E
:103B300008C08AE292E005C08FE690E002C080E70C
:103B400090E0CF910C94711BCF910895882329F1B7
:103B50009CEF980F913A18F40E943F270DC090E215
:103B6000980F983058F4877091E001C0990F8A95AA
:103B7000EAF7892F0E949A270C94CE279BE5980F8D
:103B8000933020F480E090E00C94441B885A8731F5
:103B900020F480E090E00C94711B0895882321F0BC
:103BA0000E9494270C94CE270895882321F00E9428
:103BB0009A270C94CE2708950E94B4270E94832749
:103BC0000E94CE270E949A2B0E94682A80E090E0F3
:103BD0000E94441B80E090E00C94711B0E94A4277B
:103BE0000C94DC1DCF92DF92EF92FF920F931F9304
:103BF000CF93DF9300D000D01F92CDB7DEB76C011A
:103C00000E943328811118C385E0F601DE01119668
:103C100001900D928A95E1F7F6014081518123814F
:103C200034812115310531F05F3F31F481E04F3FA0
:103C300019F403C081E001C080E080FDFDC2F601FF
:103C4000F280E580E2948FE0E82249835A83FB8288
:103C5000722F3D832C836F2D8D810E946B268C01EA
:103C60000E946A260E945A25E12FE295EF708E2F5E
:103C700090E0FC01E05CFE4F0C94DD30812F807FF2
:103C80001F70882311F01295107FFF20B9F01123C7
:103C900029F0812F0E94A7270E94CE27802F0F9006
:103CA0000F900F900F900F90DF91CF911F910F9178
:103CB000FF90EF90DF90CF900C94DC1C802F0E943F
:103CC000A61D112309F4B8C2812F0E94AD270F90C1
:103CD0000F900F900F900F90DF91CF911F910F9148
:103CE000FF90EF90DF90CF900C94CE27812F807FB4
:103CF0001F70803211F01295107F002319F00130EF
:103D000009F12BC0FF20A9F0EE2059F1F1E0812F3D
:103D1000EF1228C00F900F900F900F900F90DF912F
:103D2000CF911F910F91FF90EF90DF90CF900C9467
:103D3000B727EE2021F021E0E21609F47DC20E94AF
:103D4000BA274DC0FF20E9F085E08E1508F474C253
:103D50000E949127812329F042C0FF20F1F1E11058
:103D600015C0812F0F900F900F900F900F90DF9143
:103D7000CF911F910F91FF90EF90DF90CF900C9417
:103D8000CE1D94E09E1508F457C229C0F601858126
:103D900080FF13C08F708583E4CF003F09F489C191
:103DA00008F055C180E4800F803208F459C1FF202B
:103DB00009F4EAC1EE2009F49AC1802F0E94DC1CAC
:103DC000093309F0DAC1FFEF21EE84E0F150204021
:103DD0008040E1F700C000002FC2E110D7C1812F61
:103DE00059C1812F86958695837019F08130B9F07D
:103DF00023C2FF2019F0C801937002C080E090E058
:103E00000F900F900F900F900F90DF91CF911F9117
:103E10000F91FF90EF90DF90CF900C94441BFF2008
:103E200019F0C801937002C080E090E00F900F90ED
:103E30000F900F900F90DF91CF911F910F91FF90F6
:103E4000EF90DF90CF900C94711B802FFF2019F022
:103E50000E947B2902C00E94E3290F900F900F90CF
:103E60000F900F90DF91CF911F910F91FF90EF90E6
:103E7000DF90CF900C94682A812F837009F070C076
:103E8000F110DAC1202F229526952770220F220FDC
:103E9000602F6F70862F90E0A0E0B0E06C017D0194
:103EA000022E04C0CC0CDD1CEE1CFF1C0A94D2F7C1
:103EB00004FF12C08FE090E0A0E0B0E004C0880FE3
:103EC000991FAA1FBB1F2A95D2F7BC01CD0160958F
:103ED00070958095909503C060E070E0CB011695D9
:103EE000169513701230B1F040F56C297D298E299A
:103EF0009F29113031F10F900F900F900F900F907C
:103F0000DF91CF911F910F91FF90EF90DF90CF90B5
:103F10000C947F256C297D298E299F290F900F9065
:103F20000F900F900F90DF91CF911F910F91FF9005
:103F3000EF90DF90CF900C9499250E947F25C701C8
:103F4000B6010F900F900F900F900F90DF91CF91CF
:103F50001F910F91FF90EF90DF90CF900C9465250B
:103F6000FF2019F0812F817001C08695882309F404
:103F700063C1202F229526952770220F220F602FD4
:103F80006F70862F90E0A0E0B0E06C017D01022E02
:103F900004C0CC0CDD1CEE1CFF1C0A94D2F704FFFD
:103FA00012C08FE090E0A0E0B0E004C0880F991F3D
:103FB000AA1FBB1F2A95D2F7BC01CD016095709551
:103FC0008095909503C060E070E0CB011695169542
:103FD00013701230B1F040F56C297D298E299F298C
:103FE000113031F10F900F900F900F900F90DF91E3
:103FF000CF911F910F91FF90EF90DF90CF900C9495
:1040000046266C297D298E299F290F900F900F90AD
:104010000F900F90DF91CF911F910F91FF90EF9034
:10402000DF90CF900C9458260E944626C701B60117
:104030000F900F900F900F900F90DF91CF911F91E5
:104040000F91FF90EF90DF90CF900C943426023FB9
:1040500009F45EC008F449C0033F09F46CC0A7CE60
:10406000902F9071E92E812F8F71FF2051F00E94C7
:10407000CD25802FEE2019F08295807F73CE8F7032
:1040800071CE0E94EE25802FEE2019F08295807F60
:1040900001C08F700F900F900F900F900F90DF91D5
:1040A000CF911F910F91FF90EF90DF90CF900C94E4
:1040B000D51DFF20A9F0E4E0EE1508F4BDC0812F66
:1040C0008F710F900F900F900F900F90DF91CF9105
:1040D0001F910F91FF90EF90DF90CF900C941326DB
:1040E000F5E0FE1508F4A8C0EACFFF2099F0812F73
:1040F0008F710F900F900F900F900F90DF91CF91D5
:104100001F910F91FF90EF90DF90CF900C94CD25F1
:10411000FF2069F3812F8F710F900F900F900F90F8
:104120000F90DF91CF911F910F91FF90EF90DF9053
:10413000CF900C94EE25FF2089F0812F8F710F9086
:104140000F900F900F900F90DF91CF911F910F91D3
:10415000FF90EF90DF90CF900C94B8250F900F90C8
:104160000F900F900F90DF91CF911F910F91FF90C3
:10417000EF90DF90CF900C94B325033509F423CE54
:10418000073409F059C01FCEEE2021F2802F0F9086
:104190000F900F900F900F90DF91CF911F910F9183
:1041A000FF90EF90DF90CF900C94A61D412F4F70A1
:1041B000602FC6010E94F5280F900F900F900F906E
:1041C0000F90DF91CF911F910F91FF90EF90DF90B3
:1041D000CF900C94B52401112FC0FF2069F10E94EB
:1041E000EE1D2FEF80E792E0215080409040E1F7F4
:1041F00000C000000F900F900F900F900F90DF9174
:10420000CF911F910F91FF90EF90DF90CF900C9482
:10421000D628412F4F70602FC6010F900F900F903E
:104220000F900F90DF91CF911F910F91FF90EF9022
:10423000DF90CF900C94F8280F900F900F900F9074
:104240000F90DF91CF911F910F91FF90EF90DF9032
:10425000CF9008951F93CF93DF9300D000D01F928B
:10426000CDB7DEB7942F4983252F5A836B837C8388
:104270008D834C815D81452B31F02F3F31F481E0FE
:104280009F3F19F403C081E001C080E0182F117036
:1042900080FD24C049815A816B817C818D810E947F
:1042A0006B26292F22952F702C3030F42A3048F4B9
:1042B0002250223068F013C02C3061F02F3051F0C2
:1042C0000EC0803C28F0803E50F0815F833038F093
:1042D00011E005C093FB112710F901C010E0812FF8
:1042E0000F900F900F900F900F90DF91CF911F9133
:1042F0000895CF93DF9300D000D01F92CDB7DEB7E3
:104300000F900F900F900F900F90DF91CF91089525
:10431000CF93DF9300D000D000D0CDB7DEB7269684
:104320000FB6F894DEBF0FBECDBFDF91CF910895D9
:104330001F93CF93DF93C091DB0216E08091DC02E4
:10434000C81799F0D0E01C9FF0011D9FF00D1124BB
:10435000E352FD4F40815181628173818481958157
:104360000E9488212196C770E9CFDF91CF911F91DC
:10437000089540910D0350910E0360910F037091C9
:10438000100380911103909112030C9488210F93D4
:104390001F93CF93DF938091120382958F7009F062
:1043A0005DC080910F03882309F458C08091DB021F
:1043B0001091DC0260910D0370910E03C091100307
:1043C000D091110391E06F3F09F090E0292F06E0B2
:1043D000811709F443C0209721F07F3F21F030E09E
:1043E00003C031E001C0322F90E030FD34C0089F9F
:1043F000F001099FF00D1124DF01A352BD4F11966A
:104400003C911197371327C03C91361324C0129664
:104410003C91129731111FC013964D915C911497E6
:104420004C1B5D0B483C5105B0F4809112038F701A
:10443000806180931203EE51FD4F80818F70806107
:1044400080838DE093E00E94F21DDF91CF911F9158
:104450000F910C94982101968770BACFDF91CF917C
:104460001F910F9108959F92AF92BF92CF92DF92CA
:10447000EF92FF920F931F93CF93DF93CDB7DEB7E9
:1044800061970FB6F894DEBF0FBECDBF8C0185E0FB
:10449000F801DE011D9601900D928A95E1F7F80171
:1044A00040815181F280C380D48090910D0360914E
:1044B0000E0320911003309111032115310531F0C5
:1044C0006F3F31F481E09F3F19F403C081E001C0E8
:1044D00080E0F82FF1709F2E80FD52C18DE0A82E54
:1044E00083E0B82EE0900F03F601E21BF30BEE2001
:1044F00009F4E8C080911203E83CF10508F0A4C07B
:10450000282F207F09F053C0561313C0491311C040
:10451000EF2CF1100EC08F708061809312030E9407
:10452000B921C5010E94F21D80911203F801858313
:104530005BC1C114D10431F05F3F31F481E04F3FE2
:1045400019F403C081E001C080E080FD03C081E078
:104550008F2502C080E090E0F82FF170EF2E80FFF1
:104560001CC08091DB022091DC0236E0821709F446
:1045700018C190E0389FF001399FF00D1124E352EB
:10458000FD4F6181561306C06081461303C06281EE
:10459000F61203C001968770E9CFEF2CFF2009F4D3
:1045A00023C18091120381608093120362C056136D
:1045B00006C0491304C0F11002C0F801A7C04D871E
:1045C0005E87FF867C2DD98AC88A6F2D89890E94D3
:1045D0002A21882399F1FF2089F120911203822F4B
:1045E00082958F7090E0029774F080910D03909106
:1045F0000E0398878F831986DB86CA862C87CE01A7
:1046000007960E94F21D86E0F801ADE0B3E001904C
:104610000D928A95E1F70E94C7210E94B92111C02D
:10462000561749F14D875E87FF867C2DD98AC88A47
:104630006F2D89890E942A2181112CC0C8010E94F6
:10464000F21DEE24E394D0C0282F207F49F77C2D63
:10465000D98AC88A6F2D89890E9479218DE093E0DB
:104660000E94F21D86E0F50111928A95E9F70E94F9
:10467000B921E12CB9C04913D5CFF110D3CFF8013E
:104680008583C8010E94F21D86E0F50111928A958A
:10469000E9F7AAC0FF2091F220911203822F8295A0
:1046A0008F7090E002970CF4AECF80910D03909143
:1046B0000E039A8389831B82DD82CC822E83CE01F6
:1046C00001969FCFE83CF10508F04BC0EF2CFF208E
:1046D00009F4B4CF561330C049132EC020911203F1
:1046E00020FD21C0822F82958F70482F50E0411508
:1046F0005105C9F0F80125834F30510541F08F5F16
:10470000982F9295907F822F8F70892B8583C80177
:104710000E94F21D86E0F801ADE0B3E001900D9239
:104720008A95E1F72AC086E0F801ADE0B3E0019098
:104730000D928A95E1F758C04D875E87FF867C2DE4
:10474000D98AC88A6F2D89890E942A2181115BCF5D
:1047500080911203816080931203C8010E94F21DB0
:1047600043C07C2DD98AC88A6F2D89890E947921FE
:1047700086E0F50111928A95E9F70E94B92134C0CB
:10478000FF2009F45BCF4D875E87FF867C2DD98A99
:10479000C88A6F2D89890E942A21882309F44ECF67
:1047A00032CF7C2DD98AC88A6F2D89890E946B26C9
:1047B000292F22952F70223028F49F7039F0811113
:1047C00005C00BC0243028F49F7049F4805E883007
:1047D00020F0C8010E94F21D9E2CE92C05C0F801B2
:1047E0009581907F99F7F9CF8E2D61960FB6F89449
:1047F000DEBF0FBECDBFDF91CF911F910F91FF9014
:10480000EF90DF90CF90BF90AF909F9008951F934F
:10481000CF93DF93CDB7DEB72C970FB6F894DEBFFA
:104820000FBECDBF4F83588769877A878B879C8758
:10483000CE0107960E9433228823D1F09F8188857C
:104840002A853B85232B31F08F3F31F481E09F3F58
:1048500019F403C081E001C080E080FD47C04F81B2
:10486000588569857A858B859C850E9488213EC004
:1048700086E0FE013796DE01119601900D928A9531
:10488000E1F7FF81E8856A857B856115710531F067
:10489000EF3F31F481E0FF3F19F403C081E001C034
:1048A00080E080FD23C02091DC0230E0C901019648
:1048B000877099274091DB0250E084179507F1F14A
:1048C000F983EA837D836C8396E0929FD001939F66
:1048D000B00D1124A352BD4FFE01319601900D92EF
:1048E0009A95E1F78093DC020E94982116E080916E
:1048F000DB029091DC02891771F1189FC00111242D
:1049000083529D4F0E943322882329F1E091DB02DC
:104910001E9FF0011124E352FD4F408151816281BD
:104920007381848195810E9488218091DB0290E0CF
:104930000196877099278093DB02D9CF0E94EE1DE4
:104940001092DC021092DB02EDE0F3E086E0DF0182
:104950001D928A95E9F72C960FB6F894DEBF0FBE2C
:10496000CDBFDF91CF911F910895DF92EF92FF921B
:104970000F931F93CF93DF93FC01892B09F488C019
:10498000E12CF12CDD24D394EF012196849185371D
:1049900009F460C058F4843708F04EC0843008F041
:1049A00068C08130D1F0823071F172C0883709F46B
:1049B0005BC050F4863709F453C0873709F068C0EC
:1049C0008E2D0E94A12752C09CE7980F903708F0C7
:1049D0005FC08F770E94A61D4EC08F010E5F1F4FD4
:1049E000FE01849190E2980F983050F48770FD2D6D
:1049F00001C0FF0F8A95EAF78F2F0E94A72715C0E5
:104A00000E94DC1C14C08F010E5F1F4FFE018491B9
:104A100090E2980F983068F48770FD2D01C0FF0F69
:104A20008A95EAF78F2F0E94AD270E94CE27E801D2
:104A300022C00E94A61DFBCFCF010296FE01C491A9
:104A4000CC2361F0EFE9FFE03197F1F700C00000FF
:104A5000C150F6CFCF010296FE01F490EC010BC0DD
:104A60000E949127E82E07C00E94A4270E94CE270B
:104A700002C00E94DC1C8F2D882341F0EFE9FFE08B
:104A80003197F1F700C000008150F6CFFE017CCFD6
:104A9000DF91CF911F910F91FF90EF90DF900895DC
:104AA000609393037093940380939503909396037C
:104AB0000C94302808956093970370939803809323
:104AC000990390939A030C942F280F931F930091AE
:104AD0009703109198032091990330919A03602BCA
:104AE000712B822B932B6093970370939803809381
:104AF000990390939A031F910F910C942F280F9371
:104B00001F9300919703109198032091990330917E
:104B10009A036023712382239323609397037093F6
:104B200098038093990390939A031F910F910C948B
:104B30002F280F931F9300919703109198032091B2
:104B4000990330919A0360277127822793276093F6
:104B50009703709398038093990390939A031F91FE
:104B60000F910C942F2860E070E0CB010C9450253D
:104B70000F931F9341E050E060E070E08A019B01D9
:104B800004C0000F111F221F331F8A95D2F7C901DD
:104B9000B8011F910F910C9450250F931F9341E082
:104BA00050E060E070E004C0440F551F661F771F9F
:104BB0008A95D2F78091930390919403A0919503E5
:104BC000B09196038A019B01082B192B2A2B3B2BB2
:104BD000C901B8011F910F910C9450250F931F9399
:104BE00041E050E060E070E004C0440F551F661FD4
:104BF000771F8A95D2F74095509560957095809172
:104C0000930390919403A0919503B09196038A0128
:104C10009B01082319232A233B23C901B8011F91B3
:104C20000F910C9450250F931F9341E050E060E0EA
:104C300070E004C0440F551F661F771F8A95D2F796
:104C40008091930390919403A0919503B091960362
:104C50008A019B01082719272A273B27C901B80188
:104C60001F910F910C9450250F931F930091930364
:104C7000109194032091950330919603602B712B32
:104C8000822B932B1F910F910C9450250F931F9300
:104C90000091930310919403209195033091960312
:104CA00060237123822393231F910F910C9450252D
:104CB0000F931F93009193031091940320919503F8
:104CC0003091960360277127822793271F910F91B8
:104CD0000C94502508958F929F92AF92BF92DF92CD
:104CE000EF92FF920F931F93CF93DF9300D000D0EA
:104CF0001F92CDB7DEB76B837C838D838A018C8155
:104D00009D81892B31F01F3F31F481E04F3F19F431
:104D100003C081E001C080E080FF03C080E090E03C
:104D20004DC08B818823D1F18090930390909403A0
:104D3000A0909503B090960380919703909198036B
:104D4000A0919903B0919A03882A992AAA2ABB2A8A
:104D50008FE1E82EF12CD501C4010E2C04C0B695CC
:104D6000A795979587950A94D2F780FD06C081E0B4
:104D7000E81AF10880F7D12C07C0DE2CB8018E2D7F
:104D80000E94630D019799F380E1189FF0011124AF
:104D9000ED5EFC4FE00FF11DD08209C080E1189F4D
:104DA000F0011124ED5EFC4FE00FF11DD08009836E
:104DB0001A8369817A818D2D0E94630D0F900F9067
:104DC0000F900F900F90DF91CF911F910F91FF9057
:104DD000EF90DF90BF90AF909F908F90089590914B
:104DE0001301992379F190911401992359F1982F86
:104DF0009695969596959F31A1F0E0911501F091C9
:104E00001601E90FF11D877021E030E0A90102C011
:104E1000440F551F8A95E2F7CA019181892B81833E
:104E200008959091BE0390FF29C01F928F938EE941
:104E300097E09F938F930E9417080F900F900F9009
:104E40000F9008952091150130911601F9013296C5
:104E50009FEF40E05191851789F09F3F19F4511160
:104E600001C0942F4F5F4E31A9F79F3F39F0F901F0
:104E7000E90FF11D97FDFA958283089508959091A9
:104E80001301992381F190911401992361F1982FD5
:104E90009695969596959F31A9F0E0911501F09120
:104EA0001601E90FF11D877021E030E0A90102C071
:104EB000440F551F8A95E2F7CA0180959181892395
:104EC000818308959091BE0390FF1CC01F928F9321
:104ED00080E897E09F938F930E9417080F900F90A0
:104EE0000F900F900895E0911501F09116019F0128
:104EF000225E3F4F9281891301C012823196E217E0
:104F0000F307C1F7089581E090E0E0911501F09179
:104F10001601E80FF91F1082019680329105A9F75A
:104F200008958091BD0308959091BD03892B8093CE
:104F3000BD03089580959091BD0389238093BD039F
:104F400008958093BD0308951092BD030895909134
:104F5000BC03892B8093BC03089580959091BC037A
:104F600089238093BC0308951092BC030895809315
:104F70009B03089510929B030895809115019091D1
:104F80001601FC0131969C01205E3F4F80E091911B
:104F900091118F5FE217F307D1F70895E0911501A2
:104FA000F09116018091BD038083E0911501F0918D
:104FB000160190818091BC03892B808380919B0393
:104FC000882361F0E0911501F09116019081892B01
:104FD00080830E94BD27811110929B03809115014F
:104FE000909116010C94F01A9093690180936801D6
:104FF00008958295982F937344E0949F9001112413
:105000008C7C86958695282B822F8575880F2A7A29
:105010002695822B0895CF93DF93D92F0E94F927ED
:10502000C82F8D2F0E94F9272C2F30E0322F2227F6
:10503000A901482BCA01DF91CF91089508950895E1
:10504000CF93DF9300D000D01F92CDB7DEB70F9083
:105050000F900F900F900F90DF91CF9108950895CA
:1050600008950C945D1C80E0089583B7817F8C6067
:1050700083BF83B7816083BF7894889583B78E7F21
:1050800083BF0895CF930E94941C0E94940D0E94A8
:10509000951CC0E08C2F0E945A0D892B29F4CF5FFC
:1050A000C830C1F780E001C081E0CF9108950E942F
:1050B0007A0D0C94EE1D1F920F920FB60F921124D1
:1050C0008F939F93AF93BF938091BF039091C00341
:1050D000A091C103B091C2034196A11DB11D80935F
:1050E000BF039093C003A093C103B093C203BF91C9
:1050F000AF919F918F910F900FBE0F901F901895B9
:1051000082E084BD93E095BD9AEF97BD80936E00D9
:1051100008952FB7F8948091BF039091C003A09198
:10512000C103B091C2032FBF08952FB7F8946091C7
:10513000BF037091C0038091C1039091C2032FBF40
:1051400008959C014FB7F8948091BF039091C003DC
:10515000A091C103B091C2034FBF821B930B08956E
:1051600078941F920F920FB60F9211248F939F93F2
:10517000AF93BF938091BF039091C003A091C103EF
:10518000B091C2030196A11DB11D8093BF039093FE
:10519000C003A093C103B093C203BF91AF919F918D
:1051A0008F910F900FBE0F901F9018950E94741949
:1051B000F89487E797E7909301088093000887E0C9
:1051C00090EBDC018093DB039093DC03A093DD0381
:1051D000B093DE039CE088E10FB6F894A895809325
:1051E00060000FBE90936000FFCF80E090E00895D4
:1051F00008958091C50380FF0BC060911A0185E07E
:10520000689FB001112475956795759567952BC0BA
:1052100081FF09C060911A0185E0689FB0011124E7
:105220007595679520C082FF07C060911A0185E0DF
:10523000689FB001112417C09091C6039923D1F043
:1052400060911901961788F720911A0185E0289F2F
:1052500090011124929FA001939F500D112470E0A2
:10526000CA010E94C9306038710540F461157105AA
:1052700019F406C065E070E0862F08958FE7089561
:1052800081E008958091C50380FF08C060911801F6
:1052900070E0759567957595679521C081FF06C08B
:1052A0006091180170E07595679519C082FF04C080
:1052B0006091180170E010C09091C603992399F095
:1052C000609117019617A0F780911801899FC0017E
:1052D000112470E00E94C9306038710540F46115F6
:1052E000710519F406C061E070E0862F08958FE71C
:1052F000089581E00895803F21F40E94F928819566
:1053000004C0813F29F40E94F9288093C9030895BD
:10531000823F21F40E94F928819504C0833F29F43B
:105320000E94F9288093C8030895893F19F40E94C8
:10533000422905C08A3F31F40E9442298195809319
:10534000CA0308958B3F21F40E944229819504C02D
:105350008C3F29F40E9442298093CB030895843F17
:1053600021F48091C703816017C0853F21F48091AB
:10537000C703826011C0863F21F48091C703846017
:105380000BC0873F21F48091C703886005C0883F28
:1053900031F48091C70380618093C70308958D3FE6
:1053A00021F48091C50381600BC08E3F21F4809170
:1053B000C503826005C08F3F29F48091C5038460D6
:1053C0008093C5030895803F39F48091C90387FF16
:1053D0006CC01092C90369C0813F29F48091C90350
:1053E0001816BCF362C09091C803823F29F497FF5E
:1053F0005CC01092C80359C0833F19F41916CCF34E
:1054000054C0893F41F48091CA0318160CF04DC076
:105410001092CA034AC08A3F29F48091CA0387FFC9
:1054200044C0F6CF8B3F39F48091CB0387FF3DC05A
:105430001092CB033AC08C3F29F48091CB0318160D
:10544000BCF333C0843F21F48091C7038E7F17C023
:10545000853F21F48091C7038D7F11C0863F21F4E1
:105460008091C7038B7F0BC0873F21F48091C703D6
:10547000877F05C0883F31F48091C7038F7E80937A
:10548000C70313C08D3F21F48091C5038E7F0BC0ED
:105490008E3F21F48091C5038D7F05C08F3F29F495
:1054A0008091C5038B7F8093C5038091C8038111D0
:1054B0000EC08091C90381110AC08091CA03811175
:1054C00006C08091CB03811102C01092C6030895DB
:1054D0008091BE0383FF7EC083EE97E00E947E072B
:1054E0008091C7031F928F938EED97E09F938F93C8
:1054F0000E9417088CED97E00E947E078091C803F8
:10550000282F082E000C330B3F938F9389ED97E0E3
:105510009F938F930E94170887ED97E00E947E0764
:105520008091C903282F082E000C330B3F938F93D3
:1055300084ED97E09F938F930E94170882ED97E088
:105540000E947E078091CA03282F082E000C330B7F
:105550003F938F938FEC97E09F938F930E94170850
:105560008DEC97E00E947E078091CB03282F082EB8
:10557000000C330B3F938F938AEC97E09F938F93AC
:105580000E94170887EC97E00E947E078091C6036F
:105590001F928F9384EC97E09F938F930E9417083C
:1055A00082EC97E00E947E078091C5031F928F9343
:1055B0008FEB97E09F938F930E9417088CEB97E0F7
:1055C0000E947E078DB79EB74C960FB6F8949EBF8B
:1055D0000FBE8DBF87EC93E00E94391B0E94892883
:1055E0009093C4038093C30308951F93CF93DF93D5
:1055F0008091C3039091C4030E94A128AC019091B3
:10560000C603992321F020911B0130E006C02091B0
:105610001C018AE0289F900111244217530708F4C7
:1056200085C08091C803C091C903D091CA0310916D
:10563000CB03811107C0C11175C0D11173C0111105
:1056400071C074C09F3F19F09F5F9093C6031816F6
:1056500024F40E94F9288093C8038091C80387FF2F
:1056600005C00E94F92881958093C8031C1624F474
:105670000E94F9288093C9038091C90387FF05C060
:105680000E94F92881958093C9036091C80366231D
:1056900031F1C091C903CC2311F1062E000C770B18
:1056A000880B990B0E94D02F23E333E343E35FE39E
:1056B0000E9434300E94982F6093C8036C2FCC0F47
:1056C000770B880B990B0E94D02F23E333E343E33E
:1056D0005FE30E9434300E94982F6093C9031D1627
:1056E00024F40E9442298093CA038091CA0387FF51
:1056F00005C00E94422981958093CA03111624F4A3
:105700000E9442298093CB038091CB0387FF05C081
:105710000E94422981958093CB03DF91CF911F9105
:105720000C94682A9F3F09F08FCFA0CFDF91CF91D3
:105730001F910895E7ECF3E085E0DF011D928A9563
:10574000E9F71092C6031092C503089586E09AE027
:105750000E947E071F9281E08F931F9285E08F93B6
:1057600088EB99E09F938F930E9417080F900F90FA
:105770000F900F900F900F9008958330E9F128F467
:10578000813061F0823009F10895853009F462C0FA
:1057900008F449C0863009F474C0089580911C0152
:1057A000262F30E0280F311D2F3F310524F4680FDC
:1057B00060931C0103C08FEF80931C0180911C013A
:1057C0001F928F9381EF98E072C080911B01262F6A
:1057D00030E0280F311D2F3F310524F4680F60930E
:1057E0001B0103C08FEF80931B0180911B011F924F
:1057F0008F938FED98E05BC080911A01262F30E0E7
:10580000280F311D2F3F310524F4680F60931A01D2
:1058100003C08FEF80931A0180911A011F928F931A
:105820008CEC98E044C080911901262F30E0280FBD
:10583000311D2F3F310524F4680F6093190103C017
:105840008FEF80931901809119011F928F9387EB3D
:1058500098E02DC080911801262F30E0280F311DCF
:105860002F3F310524F4680F6093180103C08FEFB8
:1058700080931801809118011F928F938EE998E010
:1058800016C080911701262F30E0280F311D2F3FC1
:10589000310524F4680F6093170103C08FEF8093E4
:1058A0001701809117011F928F9383E898E09F93CF
:1058B0008F930E9417080F900F900F900F900895EC
:1058C000833081F128F4813059F08230D1F008958D
:1058D000853009F449C0B8F1863009F456C00895FE
:1058E00080911C01681720F4861B80931C0102C064
:1058F00010921C0180911C011F928F9384E798E005
:1059000054C080911B01681720F4861B80931B01F3
:1059100002C010921B0180911B011F928F9382E69F
:1059200098E043C080911A01681720F4861B809389
:105930001A0102C010921A0180911A011F928F93CE
:105940008FE498E032C080911901681720F4861B1B
:105950008093190102C010921901809119011F92C0
:105960008F938AE398E021C080911801681720F492
:10597000861B8093180102C01092180180911801B3
:105980001F928F9381E298E010C0809117016817F1
:1059900020F4861B8093170102C01092170180919A
:1059A00017011F928F9386E098E09F938F930E9438
:1059B00017080F900F900F900F900895CF93C82F56
:1059C0001F928F938BE09BE09F938F930E94170809
:1059D00081E090E0A0E0B0E0BC01CD0104C0660F22
:1059E000771F881F991FCA95D2F70E945B250F90D9
:1059F0000F900F900F90CF910C94EE1DCF938732A4
:105A0000A8F58E3108F02BC1803109F49FC0F8F45D
:105A1000873009F464C0A8F4863009F024C180916D
:105A2000BE03817F8E7F8093BE0380E19BE00E9456
:105A30007E0786E09EE00E947E0781E08093CD0392
:105A40004CC08B30F1F18E3009F46CC00CC1863142
:105A500009F4B0C020F4813109F4EDC004C18931EA
:105A600009F491C08B3109F449C0FDC0883349F174
:105A700050F4893209F4F1C0853309F4EEC087325D
:105A800009F0F1C0EAC0833409F4E7C028F48A338E
:105A900008F4E9C08953E4C0883409F0E4C00E94E6
:105AA000EE1D85EF9DE00E947E072FEF83ED90E3D2
:105AB000215080409040E1F700C000000E94D628AD
:105AC0000CC087E39BE05CC08CED9DE00E947E07EC
:105AD0008091BE0381608093BE03C1E0C9C0809104
